{
	"BankAccount.sol": {
		"BankAccount": {
			"abi": [
				{
					"anonymous": false,
					"inputs": [
						{
							"indexed": false,
							"internalType": "address[]",
							"name": "owners",
							"type": "address[]"
						},
						{
							"indexed": true,
							"internalType": "uint256",
							"name": "id",
							"type": "uint256"
						},
						{
							"indexed": false,
							"internalType": "uint256",
							"name": "timestamp",
							"type": "uint256"
						}
					],
					"name": "AccountCreated",
					"type": "event"
				},
				{
					"anonymous": false,
					"inputs": [
						{
							"indexed": true,
							"internalType": "address",
							"name": "user",
							"type": "address"
						},
						{
							"indexed": true,
							"internalType": "uint256",
							"name": "accountId",
							"type": "uint256"
						},
						{
							"indexed": false,
							"internalType": "uint256",
							"name": "value",
							"type": "uint256"
						},
						{
							"indexed": false,
							"internalType": "uint256",
							"name": "timestamp",
							"type": "uint256"
						}
					],
					"name": "Deposit",
					"type": "event"
				},
				{
					"anonymous": false,
					"inputs": [
						{
							"indexed": true,
							"internalType": "uint256",
							"name": "withdrawId",
							"type": "uint256"
						},
						{
							"indexed": false,
							"internalType": "uint256",
							"name": "timestamp",
							"type": "uint256"
						}
					],
					"name": "Withdraw",
					"type": "event"
				},
				{
					"anonymous": false,
					"inputs": [
						{
							"indexed": true,
							"internalType": "address",
							"name": "user",
							"type": "address"
						},
						{
							"indexed": true,
							"internalType": "uint256",
							"name": "accountId",
							"type": "uint256"
						},
						{
							"indexed": true,
							"internalType": "uint256",
							"name": "withdrawId",
							"type": "uint256"
						},
						{
							"indexed": false,
							"internalType": "uint256",
							"name": "amount",
							"type": "uint256"
						},
						{
							"indexed": false,
							"internalType": "uint256",
							"name": "timestamp",
							"type": "uint256"
						}
					],
					"name": "WithdrawRequested",
					"type": "event"
				},
				{
					"inputs": [
						{
							"internalType": "uint256",
							"name": "accountId",
							"type": "uint256"
						},
						{
							"internalType": "uint256",
							"name": "withdrawId",
							"type": "uint256"
						}
					],
					"name": "approveWithdrawl",
					"outputs": [],
					"stateMutability": "nonpayable",
					"type": "function"
				},
				{
					"inputs": [
						{
							"internalType": "address[]",
							"name": "otherOwners",
							"type": "address[]"
						}
					],
					"name": "createAccount",
					"outputs": [],
					"stateMutability": "nonpayable",
					"type": "function"
				},
				{
					"inputs": [
						{
							"internalType": "uint256",
							"name": "accountId",
							"type": "uint256"
						}
					],
					"name": "deposit",
					"outputs": [],
					"stateMutability": "payable",
					"type": "function"
				},
				{
					"inputs": [],
					"name": "getAccounts",
					"outputs": [
						{
							"internalType": "uint256[]",
							"name": "",
							"type": "uint256[]"
						}
					],
					"stateMutability": "view",
					"type": "function"
				},
				{
					"inputs": [
						{
							"internalType": "uint256",
							"name": "accountId",
							"type": "uint256"
						},
						{
							"internalType": "uint256",
							"name": "withdrawId",
							"type": "uint256"
						}
					],
					"name": "getApprovals",
					"outputs": [
						{
							"internalType": "uint256",
							"name": "",
							"type": "uint256"
						}
					],
					"stateMutability": "view",
					"type": "function"
				},
				{
					"inputs": [
						{
							"internalType": "uint256",
							"name": "accountId",
							"type": "uint256"
						}
					],
					"name": "getBalance",
					"outputs": [
						{
							"internalType": "uint256",
							"name": "",
							"type": "uint256"
						}
					],
					"stateMutability": "view",
					"type": "function"
				},
				{
					"inputs": [
						{
							"internalType": "uint256",
							"name": "accountId",
							"type": "uint256"
						}
					],
					"name": "getOwners",
					"outputs": [
						{
							"internalType": "address[]",
							"name": "",
							"type": "address[]"
						}
					],
					"stateMutability": "view",
					"type": "function"
				},
				{
					"inputs": [
						{
							"internalType": "uint256",
							"name": "accountId",
							"type": "uint256"
						},
						{
							"internalType": "uint256",
							"name": "amount",
							"type": "uint256"
						}
					],
					"name": "requestWithdrawl",
					"outputs": [],
					"stateMutability": "nonpayable",
					"type": "function"
				},
				{
					"inputs": [
						{
							"internalType": "uint256",
							"name": "accountId",
							"type": "uint256"
						},
						{
							"internalType": "uint256",
							"name": "withdrawId",
							"type": "uint256"
						}
					],
					"name": "withdraw",
					"outputs": [],
					"stateMutability": "nonpayable",
					"type": "function"
				}
			],
			"devdoc": {
				"kind": "dev",
				"methods": {},
				"version": 1
			},
			"evm": {
				"assembly": "    /* \"BankAccount.sol\":191:6684  contract BankAccount {... */\n  mstore(0x40, 0x80)\n  callvalue\n  dup1\n  iszero\n  tag_1\n  jumpi\n  0x00\n  dup1\n  revert\ntag_1:\n  pop\n  dataSize(sub_0)\n  dup1\n  dataOffset(sub_0)\n  0x00\n  codecopy\n  0x00\n  return\nstop\n\nsub_0: assembly {\n        /* \"BankAccount.sol\":191:6684  contract BankAccount {... */\n      mstore(0x40, 0x80)\n      jumpi(tag_1, lt(calldatasize, 0x04))\n      shr(0xe0, calldataload(0x00))\n      dup1\n      0x8a48ac03\n      gt\n      tag_11\n      jumpi\n      dup1\n      0x8a48ac03\n      eq\n      tag_6\n      jumpi\n      dup1\n      0xa52a6f9a\n      eq\n      tag_7\n      jumpi\n      dup1\n      0xb6b55f25\n      eq\n      tag_8\n      jumpi\n      dup1\n      0xee4525d5\n      eq\n      tag_9\n      jumpi\n      dup1\n      0xeff63433\n      eq\n      tag_10\n      jumpi\n      jump(tag_1)\n    tag_11:\n      dup1\n      0x1e010439\n      eq\n      tag_2\n      jumpi\n      dup1\n      0x441a3e70\n      eq\n      tag_3\n      jumpi\n      dup1\n      0x785e5531\n      eq\n      tag_4\n      jumpi\n      dup1\n      0x867275a5\n      eq\n      tag_5\n      jumpi\n    tag_1:\n      0x00\n      dup1\n      revert\n        /* \"BankAccount.sol\":6078:6200  function getBalance(uint256 accountId) public view returns (uint256) {... */\n    tag_2:\n      callvalue\n      dup1\n      iszero\n      tag_12\n      jumpi\n      0x00\n      dup1\n      revert\n    tag_12:\n      pop\n      tag_13\n      0x04\n      dup1\n      calldatasize\n      sub\n      dup2\n      add\n      swap1\n      tag_14\n      swap2\n      swap1\n      tag_15\n      jump\t// in\n    tag_14:\n      tag_16\n      jump\t// in\n    tag_13:\n      mload(0x40)\n      tag_17\n      swap2\n      swap1\n      tag_18\n      jump\t// in\n    tag_17:\n      mload(0x40)\n      dup1\n      swap2\n      sub\n      swap1\n      return\n        /* \"BankAccount.sol\":5477:6070  function withdraw(... */\n    tag_3:\n      callvalue\n      dup1\n      iszero\n      tag_19\n      jumpi\n      0x00\n      dup1\n      revert\n    tag_19:\n      pop\n      tag_20\n      0x04\n      dup1\n      calldatasize\n      sub\n      dup2\n      add\n      swap1\n      tag_21\n      swap2\n      swap1\n      tag_22\n      jump\t// in\n    tag_21:\n      tag_23\n      jump\t// in\n    tag_20:\n      stop\n        /* \"BankAccount.sol\":4979:5469  function approveWithdrawl(... */\n    tag_4:\n      callvalue\n      dup1\n      iszero\n      tag_24\n      jumpi\n      0x00\n      dup1\n      revert\n    tag_24:\n      pop\n      tag_25\n      0x04\n      dup1\n      calldatasize\n      sub\n      dup2\n      add\n      swap1\n      tag_26\n      swap2\n      swap1\n      tag_22\n      jump\t// in\n    tag_26:\n      tag_27\n      jump\t// in\n    tag_25:\n      stop\n        /* \"BankAccount.sol\":6361:6561  function getApprovals(... */\n    tag_5:\n      callvalue\n      dup1\n      iszero\n      tag_28\n      jumpi\n      0x00\n      dup1\n      revert\n    tag_28:\n      pop\n      tag_29\n      0x04\n      dup1\n      calldatasize\n      sub\n      dup2\n      add\n      swap1\n      tag_30\n      swap2\n      swap1\n      tag_22\n      jump\t// in\n    tag_30:\n      tag_31\n      jump\t// in\n    tag_29:\n      mload(0x40)\n      tag_32\n      swap2\n      swap1\n      tag_18\n      jump\t// in\n    tag_32:\n      mload(0x40)\n      dup1\n      swap2\n      sub\n      swap1\n      return\n        /* \"BankAccount.sol\":6569:6681  function getAccounts() public view returns (uint256[] memory) {... */\n    tag_6:\n      callvalue\n      dup1\n      iszero\n      tag_33\n      jumpi\n      0x00\n      dup1\n      revert\n    tag_33:\n      pop\n      tag_34\n      tag_35\n      jump\t// in\n    tag_34:\n      mload(0x40)\n      tag_36\n      swap2\n      swap1\n      tag_37\n      jump\t// in\n    tag_36:\n      mload(0x40)\n      dup1\n      swap2\n      sub\n      swap1\n      return\n        /* \"BankAccount.sol\":4402:4971  function requestWithdrawl(... */\n    tag_7:\n      callvalue\n      dup1\n      iszero\n      tag_38\n      jumpi\n      0x00\n      dup1\n      revert\n    tag_38:\n      pop\n      tag_39\n      0x04\n      dup1\n      calldatasize\n      sub\n      dup2\n      add\n      swap1\n      tag_40\n      swap2\n      swap1\n      tag_22\n      jump\t// in\n    tag_40:\n      tag_41\n      jump\t// in\n    tag_39:\n      stop\n        /* \"BankAccount.sol\":3464:3616  function deposit(... */\n    tag_8:\n      tag_42\n      0x04\n      dup1\n      calldatasize\n      sub\n      dup2\n      add\n      swap1\n      tag_43\n      swap2\n      swap1\n      tag_15\n      jump\t// in\n    tag_43:\n      tag_44\n      jump\t// in\n    tag_42:\n      stop\n        /* \"BankAccount.sol\":6208:6353  function getOwners(... */\n    tag_9:\n      callvalue\n      dup1\n      iszero\n      tag_45\n      jumpi\n      0x00\n      dup1\n      revert\n    tag_45:\n      pop\n      tag_46\n      0x04\n      dup1\n      calldatasize\n      sub\n      dup2\n      add\n      swap1\n      tag_47\n      swap2\n      swap1\n      tag_15\n      jump\t// in\n    tag_47:\n      tag_48\n      jump\t// in\n    tag_46:\n      mload(0x40)\n      tag_49\n      swap2\n      swap1\n      tag_50\n      jump\t// in\n    tag_49:\n      mload(0x40)\n      dup1\n      swap2\n      sub\n      swap1\n      return\n        /* \"BankAccount.sol\":3624:4394  function createAccount(... */\n    tag_10:\n      callvalue\n      dup1\n      iszero\n      tag_51\n      jumpi\n      0x00\n      dup1\n      revert\n    tag_51:\n      pop\n      tag_52\n      0x04\n      dup1\n      calldatasize\n      sub\n      dup2\n      add\n      swap1\n      tag_53\n      swap2\n      swap1\n      tag_54\n      jump\t// in\n    tag_53:\n      tag_55\n      jump\t// in\n    tag_52:\n      stop\n        /* \"BankAccount.sol\":6078:6200  function getBalance(uint256 accountId) public view returns (uint256) {... */\n    tag_16:\n        /* \"BankAccount.sol\":6138:6145  uint256 */\n      0x00\n        /* \"BankAccount.sol\":6165:6173  accounts */\n      dup1\n        /* \"BankAccount.sol\":6165:6184  accounts[accountId] */\n      0x00\n        /* \"BankAccount.sol\":6174:6183  accountId */\n      dup4\n        /* \"BankAccount.sol\":6165:6184  accounts[accountId] */\n      dup2\n      mstore\n      0x20\n      add\n      swap1\n      dup2\n      mstore\n      0x20\n      add\n      0x00\n      keccak256\n        /* \"BankAccount.sol\":6165:6192  accounts[accountId].balance */\n      0x01\n      add\n      sload\n        /* \"BankAccount.sol\":6158:6192  return accounts[accountId].balance */\n      swap1\n      pop\n        /* \"BankAccount.sol\":6078:6200  function getBalance(uint256 accountId) public view returns (uint256) {... */\n      swap2\n      swap1\n      pop\n      jump\t// out\n        /* \"BankAccount.sol\":5477:6070  function withdraw(... */\n    tag_23:\n        /* \"BankAccount.sol\":5580:5589  accountId */\n      dup2\n        /* \"BankAccount.sol\":5591:5601  withdrawId */\n      dup2\n        /* \"BankAccount.sol\":3221:3231  msg.sender */\n      caller\n        /* \"BankAccount.sol\":3164:3231  accounts[accountId].withdrawRequests[withdrawId].user == msg.sender */\n      0xffffffffffffffffffffffffffffffffffffffff\n      and\n        /* \"BankAccount.sol\":3164:3172  accounts */\n      0x00\n        /* \"BankAccount.sol\":3164:3183  accounts[accountId] */\n      dup1\n        /* \"BankAccount.sol\":3173:3182  accountId */\n      dup5\n        /* \"BankAccount.sol\":3164:3183  accounts[accountId] */\n      dup2\n      mstore\n      0x20\n      add\n      swap1\n      dup2\n      mstore\n      0x20\n      add\n      0x00\n      keccak256\n        /* \"BankAccount.sol\":3164:3200  accounts[accountId].withdrawRequests */\n      0x02\n      add\n        /* \"BankAccount.sol\":3164:3212  accounts[accountId].withdrawRequests[withdrawId] */\n      0x00\n        /* \"BankAccount.sol\":3201:3211  withdrawId */\n      dup4\n        /* \"BankAccount.sol\":3164:3212  accounts[accountId].withdrawRequests[withdrawId] */\n      dup2\n      mstore\n      0x20\n      add\n      swap1\n      dup2\n      mstore\n      0x20\n      add\n      0x00\n      keccak256\n        /* \"BankAccount.sol\":3164:3217  accounts[accountId].withdrawRequests[withdrawId].user */\n      0x00\n      add\n      0x00\n      swap1\n      sload\n      swap1\n      0x0100\n      exp\n      swap1\n      div\n      0xffffffffffffffffffffffffffffffffffffffff\n      and\n        /* \"BankAccount.sol\":3164:3231  accounts[accountId].withdrawRequests[withdrawId].user == msg.sender */\n      0xffffffffffffffffffffffffffffffffffffffff\n      and\n      eq\n        /* \"BankAccount.sol\":3142:3290  require(... */\n      tag_58\n      jumpi\n      mload(0x40)\n      0x08c379a000000000000000000000000000000000000000000000000000000000\n      dup2\n      mstore\n      0x04\n      add\n      tag_59\n      swap1\n      tag_60\n      jump\t// in\n    tag_59:\n      mload(0x40)\n      dup1\n      swap2\n      sub\n      swap1\n      revert\n    tag_58:\n        /* \"BankAccount.sol\":3323:3331  accounts */\n      0x00\n        /* \"BankAccount.sol\":3323:3342  accounts[accountId] */\n      dup1\n        /* \"BankAccount.sol\":3332:3341  accountId */\n      dup4\n        /* \"BankAccount.sol\":3323:3342  accounts[accountId] */\n      dup2\n      mstore\n      0x20\n      add\n      swap1\n      dup2\n      mstore\n      0x20\n      add\n      0x00\n      keccak256\n        /* \"BankAccount.sol\":3323:3359  accounts[accountId].withdrawRequests */\n      0x02\n      add\n        /* \"BankAccount.sol\":3323:3371  accounts[accountId].withdrawRequests[withdrawId] */\n      0x00\n        /* \"BankAccount.sol\":3360:3370  withdrawId */\n      dup3\n        /* \"BankAccount.sol\":3323:3371  accounts[accountId].withdrawRequests[withdrawId] */\n      dup2\n      mstore\n      0x20\n      add\n      swap1\n      dup2\n      mstore\n      0x20\n      add\n      0x00\n      keccak256\n        /* \"BankAccount.sol\":3323:3380  accounts[accountId].withdrawRequests[withdrawId].approved */\n      0x04\n      add\n      0x00\n      swap1\n      sload\n      swap1\n      0x0100\n      exp\n      swap1\n      div\n      0xff\n      and\n        /* \"BankAccount.sol\":3301:3436  require(... */\n      tag_61\n      jumpi\n      mload(0x40)\n      0x08c379a000000000000000000000000000000000000000000000000000000000\n      dup2\n      mstore\n      0x04\n      add\n      tag_62\n      swap1\n      tag_63\n      jump\t// in\n    tag_62:\n      mload(0x40)\n      dup1\n      swap2\n      sub\n      swap1\n      revert\n    tag_61:\n        /* \"BankAccount.sol\":5614:5628  uint256 amount */\n      0x00\n        /* \"BankAccount.sol\":5631:5639  accounts */\n      dup1\n        /* \"BankAccount.sol\":5631:5650  accounts[accountId] */\n      0x00\n        /* \"BankAccount.sol\":5640:5649  accountId */\n      dup7\n        /* \"BankAccount.sol\":5631:5650  accounts[accountId] */\n      dup2\n      mstore\n      0x20\n      add\n      swap1\n      dup2\n      mstore\n      0x20\n      add\n      0x00\n      keccak256\n        /* \"BankAccount.sol\":5631:5681  accounts[accountId]... */\n      0x02\n      add\n        /* \"BankAccount.sol\":5631:5693  accounts[accountId]... */\n      0x00\n        /* \"BankAccount.sol\":5682:5692  withdrawId */\n      dup6\n        /* \"BankAccount.sol\":5631:5693  accounts[accountId]... */\n      dup2\n      mstore\n      0x20\n      add\n      swap1\n      dup2\n      mstore\n      0x20\n      add\n      0x00\n      keccak256\n        /* \"BankAccount.sol\":5631:5714  accounts[accountId]... */\n      0x01\n      add\n      sload\n        /* \"BankAccount.sol\":5614:5714  uint256 amount = accounts[accountId]... */\n      swap1\n      pop\n        /* \"BankAccount.sol\":5764:5770  amount */\n      dup1\n        /* \"BankAccount.sol\":5733:5741  accounts */\n      0x00\n        /* \"BankAccount.sol\":5733:5752  accounts[accountId] */\n      dup1\n        /* \"BankAccount.sol\":5742:5751  accountId */\n      dup8\n        /* \"BankAccount.sol\":5733:5752  accounts[accountId] */\n      dup2\n      mstore\n      0x20\n      add\n      swap1\n      dup2\n      mstore\n      0x20\n      add\n      0x00\n      keccak256\n        /* \"BankAccount.sol\":5733:5760  accounts[accountId].balance */\n      0x01\n      add\n      sload\n        /* \"BankAccount.sol\":5733:5770  accounts[accountId].balance >= amount */\n      lt\n      iszero\n        /* \"BankAccount.sol\":5725:5795  require(accounts[accountId].balance >= amount, \"insufficient balance\") */\n      tag_65\n      jumpi\n      mload(0x40)\n      0x08c379a000000000000000000000000000000000000000000000000000000000\n      dup2\n      mstore\n      0x04\n      add\n      tag_66\n      swap1\n      tag_67\n      jump\t// in\n    tag_66:\n      mload(0x40)\n      dup1\n      swap2\n      sub\n      swap1\n      revert\n    tag_65:\n        /* \"BankAccount.sol\":5839:5845  amount */\n      dup1\n        /* \"BankAccount.sol\":5808:5816  accounts */\n      0x00\n        /* \"BankAccount.sol\":5808:5827  accounts[accountId] */\n      dup1\n        /* \"BankAccount.sol\":5817:5826  accountId */\n      dup8\n        /* \"BankAccount.sol\":5808:5827  accounts[accountId] */\n      dup2\n      mstore\n      0x20\n      add\n      swap1\n      dup2\n      mstore\n      0x20\n      add\n      0x00\n      keccak256\n        /* \"BankAccount.sol\":5808:5835  accounts[accountId].balance */\n      0x01\n      add\n      0x00\n        /* \"BankAccount.sol\":5808:5845  accounts[accountId].balance -= amount */\n      dup3\n      dup3\n      sload\n      tag_68\n      swap2\n      swap1\n      tag_69\n      jump\t// in\n    tag_68:\n      swap3\n      pop\n      pop\n      dup2\n      swap1\n      sstore\n      pop\n        /* \"BankAccount.sol\":5863:5871  accounts */\n      0x00\n        /* \"BankAccount.sol\":5863:5882  accounts[accountId] */\n      dup1\n        /* \"BankAccount.sol\":5872:5881  accountId */\n      dup7\n        /* \"BankAccount.sol\":5863:5882  accounts[accountId] */\n      dup2\n      mstore\n      0x20\n      add\n      swap1\n      dup2\n      mstore\n      0x20\n      add\n      0x00\n      keccak256\n        /* \"BankAccount.sol\":5863:5899  accounts[accountId].withdrawRequests */\n      0x02\n      add\n        /* \"BankAccount.sol\":5863:5911  accounts[accountId].withdrawRequests[withdrawId] */\n      0x00\n        /* \"BankAccount.sol\":5900:5910  withdrawId */\n      dup6\n        /* \"BankAccount.sol\":5863:5911  accounts[accountId].withdrawRequests[withdrawId] */\n      dup2\n      mstore\n      0x20\n      add\n      swap1\n      dup2\n      mstore\n      0x20\n      add\n      0x00\n      keccak256\n      0x00\n        /* \"BankAccount.sol\":5856:5911  delete accounts[accountId].withdrawRequests[withdrawId] */\n      dup1\n      dup3\n      add\n      exp(0x0100, 0x00)\n      dup2\n      sload\n      swap1\n      0xffffffffffffffffffffffffffffffffffffffff\n      mul\n      not\n      and\n      swap1\n      sstore\n      0x01\n      dup3\n      add\n      0x00\n      swap1\n      sstore\n      0x02\n      dup3\n      add\n      0x00\n      swap1\n      sstore\n      0x04\n      dup3\n      add\n      exp(0x0100, 0x00)\n      dup2\n      sload\n      swap1\n      0xff\n      mul\n      not\n      and\n      swap1\n      sstore\n      pop\n      pop\n        /* \"BankAccount.sol\":5925:5934  bool sent */\n      0x00\n        /* \"BankAccount.sol\":5948:5958  msg.sender */\n      caller\n        /* \"BankAccount.sol\":5940:5964  payable(msg.sender).call */\n      0xffffffffffffffffffffffffffffffffffffffff\n      and\n        /* \"BankAccount.sol\":5972:5978  amount */\n      dup3\n        /* \"BankAccount.sol\":5940:5983  payable(msg.sender).call{value: amount}(\"\") */\n      mload(0x40)\n      tag_70\n      swap1\n      tag_71\n      jump\t// in\n    tag_70:\n      0x00\n      mload(0x40)\n      dup1\n      dup4\n      sub\n      dup2\n      dup6\n      dup8\n      gas\n      call\n      swap3\n      pop\n      pop\n      pop\n      returndatasize\n      dup1\n      0x00\n      dup2\n      eq\n      tag_74\n      jumpi\n      mload(0x40)\n      swap2\n      pop\n      and(add(returndatasize, 0x3f), not(0x1f))\n      dup3\n      add\n      0x40\n      mstore\n      returndatasize\n      dup3\n      mstore\n      returndatasize\n      0x00\n      0x20\n      dup5\n      add\n      returndatacopy\n      jump(tag_73)\n    tag_74:\n      0x60\n      swap2\n      pop\n    tag_73:\n      pop\n        /* \"BankAccount.sol\":5924:5983  (bool sent, ) = payable(msg.sender).call{value: amount}(\"\") */\n      pop\n      swap1\n      pop\n        /* \"BankAccount.sol\":6002:6006  sent */\n      dup1\n        /* \"BankAccount.sol\":5994:6007  require(sent) */\n      tag_75\n      jumpi\n      0x00\n      dup1\n      revert\n    tag_75:\n        /* \"BankAccount.sol\":6034:6044  withdrawId */\n      dup5\n        /* \"BankAccount.sol\":6025:6062  Withdraw(withdrawId, block.timestamp) */\n      0x56ca301a9219608c91e7bcee90e083c19671d2cdcc96752c7af291cee5f9c8c8\n        /* \"BankAccount.sol\":6046:6061  block.timestamp */\n      timestamp\n        /* \"BankAccount.sol\":6025:6062  Withdraw(withdrawId, block.timestamp) */\n      mload(0x40)\n      tag_76\n      swap2\n      swap1\n      tag_18\n      jump\t// in\n    tag_76:\n      mload(0x40)\n      dup1\n      swap2\n      sub\n      swap1\n      log2\n        /* \"BankAccount.sol\":5603:6070  {... */\n      pop\n      pop\n        /* \"BankAccount.sol\":5477:6070  function withdraw(... */\n      pop\n      pop\n      pop\n      pop\n      jump\t// out\n        /* \"BankAccount.sol\":4979:5469  function approveWithdrawl(... */\n    tag_27:\n        /* \"BankAccount.sol\":5091:5100  accountId */\n      dup2\n        /* \"BankAccount.sol\":1288:1300  bool isOwner */\n      0x00\n        /* \"BankAccount.sol\":1316:1327  uint256 idx */\n      dup1\n        /* \"BankAccount.sol\":1311:1527  for (uint256 idx; idx < accounts[accountId].owners.length; idx++) {... */\n    tag_78:\n        /* \"BankAccount.sol\":1335:1343  accounts */\n      0x00\n        /* \"BankAccount.sol\":1335:1354  accounts[accountId] */\n      dup1\n        /* \"BankAccount.sol\":1344:1353  accountId */\n      dup5\n        /* \"BankAccount.sol\":1335:1354  accounts[accountId] */\n      dup2\n      mstore\n      0x20\n      add\n      swap1\n      dup2\n      mstore\n      0x20\n      add\n      0x00\n      keccak256\n        /* \"BankAccount.sol\":1335:1361  accounts[accountId].owners */\n      0x00\n      add\n        /* \"BankAccount.sol\":1335:1368  accounts[accountId].owners.length */\n      dup1\n      sload\n      swap1\n      pop\n        /* \"BankAccount.sol\":1329:1332  idx */\n      dup2\n        /* \"BankAccount.sol\":1329:1368  idx < accounts[accountId].owners.length */\n      lt\n        /* \"BankAccount.sol\":1311:1527  for (uint256 idx; idx < accounts[accountId].owners.length; idx++) {... */\n      iszero\n      tag_79\n      jumpi\n        /* \"BankAccount.sol\":1431:1441  msg.sender */\n      caller\n        /* \"BankAccount.sol\":1396:1441  accounts[accountId].owners[idx] == msg.sender */\n      0xffffffffffffffffffffffffffffffffffffffff\n      and\n        /* \"BankAccount.sol\":1396:1404  accounts */\n      0x00\n        /* \"BankAccount.sol\":1396:1415  accounts[accountId] */\n      dup1\n        /* \"BankAccount.sol\":1405:1414  accountId */\n      dup6\n        /* \"BankAccount.sol\":1396:1415  accounts[accountId] */\n      dup2\n      mstore\n      0x20\n      add\n      swap1\n      dup2\n      mstore\n      0x20\n      add\n      0x00\n      keccak256\n        /* \"BankAccount.sol\":1396:1422  accounts[accountId].owners */\n      0x00\n      add\n        /* \"BankAccount.sol\":1423:1426  idx */\n      dup3\n        /* \"BankAccount.sol\":1396:1427  accounts[accountId].owners[idx] */\n      dup2\n      sload\n      dup2\n      lt\n      tag_81\n      jumpi\n      tag_82\n      tag_83\n      jump\t// in\n    tag_82:\n    tag_81:\n      swap1\n      0x00\n      mstore\n      keccak256(0x00, 0x20)\n      add\n      0x00\n      swap1\n      sload\n      swap1\n      0x0100\n      exp\n      swap1\n      div\n      0xffffffffffffffffffffffffffffffffffffffff\n      and\n        /* \"BankAccount.sol\":1396:1441  accounts[accountId].owners[idx] == msg.sender */\n      0xffffffffffffffffffffffffffffffffffffffff\n      and\n      sub\n        /* \"BankAccount.sol\":1392:1516  if (accounts[accountId].owners[idx] == msg.sender) {... */\n      tag_85\n      jumpi\n        /* \"BankAccount.sol\":1472:1476  true */\n      0x01\n        /* \"BankAccount.sol\":1462:1476  isOwner = true */\n      swap2\n      pop\n        /* \"BankAccount.sol\":1495:1500  break */\n      jump(tag_79)\n        /* \"BankAccount.sol\":1392:1516  if (accounts[accountId].owners[idx] == msg.sender) {... */\n    tag_85:\n        /* \"BankAccount.sol\":1370:1375  idx++ */\n      dup1\n      dup1\n      0x01\n      add\n      swap2\n      pop\n      pop\n        /* \"BankAccount.sol\":1311:1527  for (uint256 idx; idx < accounts[accountId].owners.length; idx++) {... */\n      jump(tag_78)\n    tag_79:\n      pop\n        /* \"BankAccount.sol\":1545:1552  isOwner */\n      dup1\n        /* \"BankAccount.sol\":1537:1593  require(isOwner, \"you are not an owner of this account\") */\n      tag_86\n      jumpi\n      mload(0x40)\n      0x08c379a000000000000000000000000000000000000000000000000000000000\n      dup2\n      mstore\n      0x04\n      add\n      tag_87\n      swap1\n      tag_88\n      jump\t// in\n    tag_87:\n      mload(0x40)\n      dup1\n      swap2\n      sub\n      swap1\n      revert\n    tag_86:\n        /* \"BankAccount.sol\":5113:5122  accountId */\n      dup4\n        /* \"BankAccount.sol\":5124:5134  withdrawId */\n      dup4\n        /* \"BankAccount.sol\":2405:2413  accounts */\n      0x00\n        /* \"BankAccount.sol\":2405:2424  accounts[accountId] */\n      dup1\n        /* \"BankAccount.sol\":2414:2423  accountId */\n      dup4\n        /* \"BankAccount.sol\":2405:2424  accounts[accountId] */\n      dup2\n      mstore\n      0x20\n      add\n      swap1\n      dup2\n      mstore\n      0x20\n      add\n      0x00\n      keccak256\n        /* \"BankAccount.sol\":2405:2441  accounts[accountId].withdrawRequests */\n      0x02\n      add\n        /* \"BankAccount.sol\":2405:2453  accounts[accountId].withdrawRequests[withdrawId] */\n      0x00\n        /* \"BankAccount.sol\":2442:2452  withdrawId */\n      dup3\n        /* \"BankAccount.sol\":2405:2453  accounts[accountId].withdrawRequests[withdrawId] */\n      dup2\n      mstore\n      0x20\n      add\n      swap1\n      dup2\n      mstore\n      0x20\n      add\n      0x00\n      keccak256\n        /* \"BankAccount.sol\":2405:2462  accounts[accountId].withdrawRequests[withdrawId].approved */\n      0x04\n      add\n      0x00\n      swap1\n      sload\n      swap1\n      0x0100\n      exp\n      swap1\n      div\n      0xff\n      and\n        /* \"BankAccount.sol\":2404:2462  !accounts[accountId].withdrawRequests[withdrawId].approved */\n      iszero\n        /* \"BankAccount.sol\":2382:2522  require(... */\n      tag_90\n      jumpi\n      mload(0x40)\n      0x08c379a000000000000000000000000000000000000000000000000000000000\n      dup2\n      mstore\n      0x04\n      add\n      tag_91\n      swap1\n      tag_92\n      jump\t// in\n    tag_91:\n      mload(0x40)\n      dup1\n      swap2\n      sub\n      swap1\n      revert\n    tag_90:\n        /* \"BankAccount.sol\":2612:2622  msg.sender */\n      caller\n        /* \"BankAccount.sol\":2555:2622  accounts[accountId].withdrawRequests[withdrawId].user != msg.sender */\n      0xffffffffffffffffffffffffffffffffffffffff\n      and\n        /* \"BankAccount.sol\":2555:2563  accounts */\n      0x00\n        /* \"BankAccount.sol\":2555:2574  accounts[accountId] */\n      dup1\n        /* \"BankAccount.sol\":2564:2573  accountId */\n      dup5\n        /* \"BankAccount.sol\":2555:2574  accounts[accountId] */\n      dup2\n      mstore\n      0x20\n      add\n      swap1\n      dup2\n      mstore\n      0x20\n      add\n      0x00\n      keccak256\n        /* \"BankAccount.sol\":2555:2591  accounts[accountId].withdrawRequests */\n      0x02\n      add\n        /* \"BankAccount.sol\":2555:2603  accounts[accountId].withdrawRequests[withdrawId] */\n      0x00\n        /* \"BankAccount.sol\":2592:2602  withdrawId */\n      dup4\n        /* \"BankAccount.sol\":2555:2603  accounts[accountId].withdrawRequests[withdrawId] */\n      dup2\n      mstore\n      0x20\n      add\n      swap1\n      dup2\n      mstore\n      0x20\n      add\n      0x00\n      keccak256\n        /* \"BankAccount.sol\":2555:2608  accounts[accountId].withdrawRequests[withdrawId].user */\n      0x00\n      add\n      0x00\n      swap1\n      sload\n      swap1\n      0x0100\n      exp\n      swap1\n      div\n      0xffffffffffffffffffffffffffffffffffffffff\n      and\n        /* \"BankAccount.sol\":2555:2622  accounts[accountId].withdrawRequests[withdrawId].user != msg.sender */\n      0xffffffffffffffffffffffffffffffffffffffff\n      and\n      sub\n        /* \"BankAccount.sol\":2533:2681  require(... */\n      tag_93\n      jumpi\n      mload(0x40)\n      0x08c379a000000000000000000000000000000000000000000000000000000000\n      dup2\n      mstore\n      0x04\n      add\n      tag_94\n      swap1\n      tag_95\n      jump\t// in\n    tag_94:\n      mload(0x40)\n      dup1\n      swap2\n      sub\n      swap1\n      revert\n    tag_93:\n        /* \"BankAccount.sol\":2779:2780  0 */\n      0x00\n        /* \"BankAccount.sol\":2714:2781  accounts[accountId].withdrawRequests[withdrawId].user != address(0) */\n      0xffffffffffffffffffffffffffffffffffffffff\n      and\n        /* \"BankAccount.sol\":2714:2722  accounts */\n      0x00\n        /* \"BankAccount.sol\":2714:2733  accounts[accountId] */\n      dup1\n        /* \"BankAccount.sol\":2723:2732  accountId */\n      dup5\n        /* \"BankAccount.sol\":2714:2733  accounts[accountId] */\n      dup2\n      mstore\n      0x20\n      add\n      swap1\n      dup2\n      mstore\n      0x20\n      add\n      0x00\n      keccak256\n        /* \"BankAccount.sol\":2714:2750  accounts[accountId].withdrawRequests */\n      0x02\n      add\n        /* \"BankAccount.sol\":2714:2762  accounts[accountId].withdrawRequests[withdrawId] */\n      0x00\n        /* \"BankAccount.sol\":2751:2761  withdrawId */\n      dup4\n        /* \"BankAccount.sol\":2714:2762  accounts[accountId].withdrawRequests[withdrawId] */\n      dup2\n      mstore\n      0x20\n      add\n      swap1\n      dup2\n      mstore\n      0x20\n      add\n      0x00\n      keccak256\n        /* \"BankAccount.sol\":2714:2767  accounts[accountId].withdrawRequests[withdrawId].user */\n      0x00\n      add\n      0x00\n      swap1\n      sload\n      swap1\n      0x0100\n      exp\n      swap1\n      div\n      0xffffffffffffffffffffffffffffffffffffffff\n      and\n        /* \"BankAccount.sol\":2714:2781  accounts[accountId].withdrawRequests[withdrawId].user != address(0) */\n      0xffffffffffffffffffffffffffffffffffffffff\n      and\n      sub\n        /* \"BankAccount.sol\":2692:2836  require(... */\n      tag_96\n      jumpi\n      mload(0x40)\n      0x08c379a000000000000000000000000000000000000000000000000000000000\n      dup2\n      mstore\n      0x04\n      add\n      tag_97\n      swap1\n      tag_98\n      jump\t// in\n    tag_97:\n      mload(0x40)\n      dup1\n      swap2\n      sub\n      swap1\n      revert\n    tag_96:\n        /* \"BankAccount.sol\":2870:2878  accounts */\n      0x00\n        /* \"BankAccount.sol\":2870:2889  accounts[accountId] */\n      dup1\n        /* \"BankAccount.sol\":2879:2888  accountId */\n      dup4\n        /* \"BankAccount.sol\":2870:2889  accounts[accountId] */\n      dup2\n      mstore\n      0x20\n      add\n      swap1\n      dup2\n      mstore\n      0x20\n      add\n      0x00\n      keccak256\n        /* \"BankAccount.sol\":2870:2906  accounts[accountId].withdrawRequests */\n      0x02\n      add\n        /* \"BankAccount.sol\":2870:2918  accounts[accountId].withdrawRequests[withdrawId] */\n      0x00\n        /* \"BankAccount.sol\":2907:2917  withdrawId */\n      dup3\n        /* \"BankAccount.sol\":2870:2918  accounts[accountId].withdrawRequests[withdrawId] */\n      dup2\n      mstore\n      0x20\n      add\n      swap1\n      dup2\n      mstore\n      0x20\n      add\n      0x00\n      keccak256\n        /* \"BankAccount.sol\":2870:2933  accounts[accountId].withdrawRequests[withdrawId].ownersApproved */\n      0x03\n      add\n        /* \"BankAccount.sol\":2870:2977  accounts[accountId].withdrawRequests[withdrawId].ownersApproved[... */\n      0x00\n        /* \"BankAccount.sol\":2952:2962  msg.sender */\n      caller\n        /* \"BankAccount.sol\":2870:2977  accounts[accountId].withdrawRequests[withdrawId].ownersApproved[... */\n      0xffffffffffffffffffffffffffffffffffffffff\n      and\n      0xffffffffffffffffffffffffffffffffffffffff\n      and\n      dup2\n      mstore\n      0x20\n      add\n      swap1\n      dup2\n      mstore\n      0x20\n      add\n      0x00\n      keccak256\n      0x00\n      swap1\n      sload\n      swap1\n      0x0100\n      exp\n      swap1\n      div\n      0xff\n      and\n        /* \"BankAccount.sol\":2869:2977  !accounts[accountId].withdrawRequests[withdrawId].ownersApproved[... */\n      iszero\n        /* \"BankAccount.sol\":2847:3043  require(... */\n      tag_99\n      jumpi\n      mload(0x40)\n      0x08c379a000000000000000000000000000000000000000000000000000000000\n      dup2\n      mstore\n      0x04\n      add\n      tag_100\n      swap1\n      tag_101\n      jump\t// in\n    tag_100:\n      mload(0x40)\n      dup1\n      swap2\n      sub\n      swap1\n      revert\n    tag_99:\n        /* \"BankAccount.sol\":5147:5178  WithdrawRequest storage request */\n      0x00\n        /* \"BankAccount.sol\":5181:5189  accounts */\n      dup1\n        /* \"BankAccount.sol\":5181:5200  accounts[accountId] */\n      0x00\n        /* \"BankAccount.sol\":5190:5199  accountId */\n      dup9\n        /* \"BankAccount.sol\":5181:5200  accounts[accountId] */\n      dup2\n      mstore\n      0x20\n      add\n      swap1\n      dup2\n      mstore\n      0x20\n      add\n      0x00\n      keccak256\n        /* \"BankAccount.sol\":5181:5217  accounts[accountId].withdrawRequests */\n      0x02\n      add\n        /* \"BankAccount.sol\":5181:5253  accounts[accountId].withdrawRequests[... */\n      0x00\n        /* \"BankAccount.sol\":5232:5242  withdrawId */\n      dup8\n        /* \"BankAccount.sol\":5181:5253  accounts[accountId].withdrawRequests[... */\n      dup2\n      mstore\n      0x20\n      add\n      swap1\n      dup2\n      mstore\n      0x20\n      add\n      0x00\n      keccak256\n        /* \"BankAccount.sol\":5147:5253  WithdrawRequest storage request = accounts[accountId].withdrawRequests[... */\n      swap1\n      pop\n        /* \"BankAccount.sol\":5264:5271  request */\n      dup1\n        /* \"BankAccount.sol\":5264:5281  request.approvals */\n      0x02\n      add\n      0x00\n        /* \"BankAccount.sol\":5264:5283  request.approvals++ */\n      dup2\n      sload\n      dup1\n      swap3\n      swap2\n      swap1\n      tag_103\n      swap1\n      tag_104\n      jump\t// in\n    tag_103:\n      swap2\n      swap1\n      pop\n      sstore\n      pop\n        /* \"BankAccount.sol\":5331:5335  true */\n      0x01\n        /* \"BankAccount.sol\":5294:5301  request */\n      dup2\n        /* \"BankAccount.sol\":5294:5316  request.ownersApproved */\n      0x03\n      add\n        /* \"BankAccount.sol\":5294:5328  request.ownersApproved[msg.sender] */\n      0x00\n        /* \"BankAccount.sol\":5317:5327  msg.sender */\n      caller\n        /* \"BankAccount.sol\":5294:5328  request.ownersApproved[msg.sender] */\n      0xffffffffffffffffffffffffffffffffffffffff\n      and\n      0xffffffffffffffffffffffffffffffffffffffff\n      and\n      dup2\n      mstore\n      0x20\n      add\n      swap1\n      dup2\n      mstore\n      0x20\n      add\n      0x00\n      keccak256\n      0x00\n        /* \"BankAccount.sol\":5294:5335  request.ownersApproved[msg.sender] = true */\n      0x0100\n      exp\n      dup2\n      sload\n      dup2\n      0xff\n      mul\n      not\n      and\n      swap1\n      dup4\n      iszero\n      iszero\n      mul\n      or\n      swap1\n      sstore\n      pop\n        /* \"BankAccount.sol\":5409:5410  1 */\n      0x01\n        /* \"BankAccount.sol\":5373:5381  accounts */\n      0x00\n        /* \"BankAccount.sol\":5373:5392  accounts[accountId] */\n      dup1\n        /* \"BankAccount.sol\":5382:5391  accountId */\n      dup10\n        /* \"BankAccount.sol\":5373:5392  accounts[accountId] */\n      dup2\n      mstore\n      0x20\n      add\n      swap1\n      dup2\n      mstore\n      0x20\n      add\n      0x00\n      keccak256\n        /* \"BankAccount.sol\":5373:5399  accounts[accountId].owners */\n      0x00\n      add\n        /* \"BankAccount.sol\":5373:5406  accounts[accountId].owners.length */\n      dup1\n      sload\n      swap1\n      pop\n        /* \"BankAccount.sol\":5373:5410  accounts[accountId].owners.length - 1 */\n      tag_105\n      swap2\n      swap1\n      tag_69\n      jump\t// in\n    tag_105:\n        /* \"BankAccount.sol\":5352:5359  request */\n      dup2\n        /* \"BankAccount.sol\":5352:5369  request.approvals */\n      0x02\n      add\n      sload\n        /* \"BankAccount.sol\":5352:5410  request.approvals == accounts[accountId].owners.length - 1 */\n      sub\n        /* \"BankAccount.sol\":5348:5462  if (request.approvals == accounts[accountId].owners.length - 1) {... */\n      tag_106\n      jumpi\n        /* \"BankAccount.sol\":5446:5450  true */\n      0x01\n        /* \"BankAccount.sol\":5427:5434  request */\n      dup2\n        /* \"BankAccount.sol\":5427:5443  request.approved */\n      0x04\n      add\n      0x00\n        /* \"BankAccount.sol\":5427:5450  request.approved = true */\n      0x0100\n      exp\n      dup2\n      sload\n      dup2\n      0xff\n      mul\n      not\n      and\n      swap1\n      dup4\n      iszero\n      iszero\n      mul\n      or\n      swap1\n      sstore\n      pop\n        /* \"BankAccount.sol\":5348:5462  if (request.approvals == accounts[accountId].owners.length - 1) {... */\n    tag_106:\n        /* \"BankAccount.sol\":5136:5469  {... */\n      pop\n        /* \"BankAccount.sol\":1604:1605  _ */\n      pop\n      pop\n        /* \"BankAccount.sol\":1277:1613  {... */\n      pop\n        /* \"BankAccount.sol\":4979:5469  function approveWithdrawl(... */\n      pop\n      pop\n      pop\n      jump\t// out\n        /* \"BankAccount.sol\":6361:6561  function getApprovals(... */\n    tag_31:\n        /* \"BankAccount.sol\":6468:6475  uint256 */\n      0x00\n        /* \"BankAccount.sol\":6495:6503  accounts */\n      dup1\n        /* \"BankAccount.sol\":6495:6514  accounts[accountId] */\n      0x00\n        /* \"BankAccount.sol\":6504:6513  accountId */\n      dup5\n        /* \"BankAccount.sol\":6495:6514  accounts[accountId] */\n      dup2\n      mstore\n      0x20\n      add\n      swap1\n      dup2\n      mstore\n      0x20\n      add\n      0x00\n      keccak256\n        /* \"BankAccount.sol\":6495:6531  accounts[accountId].withdrawRequests */\n      0x02\n      add\n        /* \"BankAccount.sol\":6495:6543  accounts[accountId].withdrawRequests[withdrawId] */\n      0x00\n        /* \"BankAccount.sol\":6532:6542  withdrawId */\n      dup4\n        /* \"BankAccount.sol\":6495:6543  accounts[accountId].withdrawRequests[withdrawId] */\n      dup2\n      mstore\n      0x20\n      add\n      swap1\n      dup2\n      mstore\n      0x20\n      add\n      0x00\n      keccak256\n        /* \"BankAccount.sol\":6495:6553  accounts[accountId].withdrawRequests[withdrawId].approvals */\n      0x02\n      add\n      sload\n        /* \"BankAccount.sol\":6488:6553  return accounts[accountId].withdrawRequests[withdrawId].approvals */\n      swap1\n      pop\n        /* \"BankAccount.sol\":6361:6561  function getApprovals(... */\n      swap3\n      swap2\n      pop\n      pop\n      jump\t// out\n        /* \"BankAccount.sol\":6569:6681  function getAccounts() public view returns (uint256[] memory) {... */\n    tag_35:\n        /* \"BankAccount.sol\":6613:6629  uint256[] memory */\n      0x60\n        /* \"BankAccount.sol\":6649:6661  userAccounts */\n      0x01\n        /* \"BankAccount.sol\":6649:6673  userAccounts[msg.sender] */\n      0x00\n        /* \"BankAccount.sol\":6662:6672  msg.sender */\n      caller\n        /* \"BankAccount.sol\":6649:6673  userAccounts[msg.sender] */\n      0xffffffffffffffffffffffffffffffffffffffff\n      and\n      0xffffffffffffffffffffffffffffffffffffffff\n      and\n      dup2\n      mstore\n      0x20\n      add\n      swap1\n      dup2\n      mstore\n      0x20\n      add\n      0x00\n      keccak256\n        /* \"BankAccount.sol\":6642:6673  return userAccounts[msg.sender] */\n      dup1\n      sload\n      dup1\n      0x20\n      mul\n      0x20\n      add\n      mload(0x40)\n      swap1\n      dup2\n      add\n      0x40\n      mstore\n      dup1\n      swap3\n      swap2\n      swap1\n      dup2\n      dup2\n      mstore\n      0x20\n      add\n      dup3\n      dup1\n      sload\n      dup1\n      iszero\n      tag_109\n      jumpi\n      0x20\n      mul\n      dup3\n      add\n      swap2\n      swap1\n      0x00\n      mstore\n      keccak256(0x00, 0x20)\n      swap1\n    tag_110:\n      dup2\n      sload\n      dup2\n      mstore\n      0x20\n      add\n      swap1\n      0x01\n      add\n      swap1\n      dup1\n      dup4\n      gt\n      tag_110\n      jumpi\n    tag_109:\n      pop\n      pop\n      pop\n      pop\n      pop\n      swap1\n      pop\n        /* \"BankAccount.sol\":6569:6681  function getAccounts() public view returns (uint256[] memory) {... */\n      swap1\n      jump\t// out\n        /* \"BankAccount.sol\":4402:4971  function requestWithdrawl(... */\n    tag_41:\n        /* \"BankAccount.sol\":4510:4519  accountId */\n      dup2\n        /* \"BankAccount.sol\":1288:1300  bool isOwner */\n      0x00\n        /* \"BankAccount.sol\":1316:1327  uint256 idx */\n      dup1\n        /* \"BankAccount.sol\":1311:1527  for (uint256 idx; idx < accounts[accountId].owners.length; idx++) {... */\n    tag_112:\n        /* \"BankAccount.sol\":1335:1343  accounts */\n      0x00\n        /* \"BankAccount.sol\":1335:1354  accounts[accountId] */\n      dup1\n        /* \"BankAccount.sol\":1344:1353  accountId */\n      dup5\n        /* \"BankAccount.sol\":1335:1354  accounts[accountId] */\n      dup2\n      mstore\n      0x20\n      add\n      swap1\n      dup2\n      mstore\n      0x20\n      add\n      0x00\n      keccak256\n        /* \"BankAccount.sol\":1335:1361  accounts[accountId].owners */\n      0x00\n      add\n        /* \"BankAccount.sol\":1335:1368  accounts[accountId].owners.length */\n      dup1\n      sload\n      swap1\n      pop\n        /* \"BankAccount.sol\":1329:1332  idx */\n      dup2\n        /* \"BankAccount.sol\":1329:1368  idx < accounts[accountId].owners.length */\n      lt\n        /* \"BankAccount.sol\":1311:1527  for (uint256 idx; idx < accounts[accountId].owners.length; idx++) {... */\n      iszero\n      tag_113\n      jumpi\n        /* \"BankAccount.sol\":1431:1441  msg.sender */\n      caller\n        /* \"BankAccount.sol\":1396:1441  accounts[accountId].owners[idx] == msg.sender */\n      0xffffffffffffffffffffffffffffffffffffffff\n      and\n        /* \"BankAccount.sol\":1396:1404  accounts */\n      0x00\n        /* \"BankAccount.sol\":1396:1415  accounts[accountId] */\n      dup1\n        /* \"BankAccount.sol\":1405:1414  accountId */\n      dup6\n        /* \"BankAccount.sol\":1396:1415  accounts[accountId] */\n      dup2\n      mstore\n      0x20\n      add\n      swap1\n      dup2\n      mstore\n      0x20\n      add\n      0x00\n      keccak256\n        /* \"BankAccount.sol\":1396:1422  accounts[accountId].owners */\n      0x00\n      add\n        /* \"BankAccount.sol\":1423:1426  idx */\n      dup3\n        /* \"BankAccount.sol\":1396:1427  accounts[accountId].owners[idx] */\n      dup2\n      sload\n      dup2\n      lt\n      tag_115\n      jumpi\n      tag_116\n      tag_83\n      jump\t// in\n    tag_116:\n    tag_115:\n      swap1\n      0x00\n      mstore\n      keccak256(0x00, 0x20)\n      add\n      0x00\n      swap1\n      sload\n      swap1\n      0x0100\n      exp\n      swap1\n      div\n      0xffffffffffffffffffffffffffffffffffffffff\n      and\n        /* \"BankAccount.sol\":1396:1441  accounts[accountId].owners[idx] == msg.sender */\n      0xffffffffffffffffffffffffffffffffffffffff\n      and\n      sub\n        /* \"BankAccount.sol\":1392:1516  if (accounts[accountId].owners[idx] == msg.sender) {... */\n      tag_118\n      jumpi\n        /* \"BankAccount.sol\":1472:1476  true */\n      0x01\n        /* \"BankAccount.sol\":1462:1476  isOwner = true */\n      swap2\n      pop\n        /* \"BankAccount.sol\":1495:1500  break */\n      jump(tag_113)\n        /* \"BankAccount.sol\":1392:1516  if (accounts[accountId].owners[idx] == msg.sender) {... */\n    tag_118:\n        /* \"BankAccount.sol\":1370:1375  idx++ */\n      dup1\n      dup1\n      0x01\n      add\n      swap2\n      pop\n      pop\n        /* \"BankAccount.sol\":1311:1527  for (uint256 idx; idx < accounts[accountId].owners.length; idx++) {... */\n      jump(tag_112)\n    tag_113:\n      pop\n        /* \"BankAccount.sol\":1545:1552  isOwner */\n      dup1\n        /* \"BankAccount.sol\":1537:1593  require(isOwner, \"you are not an owner of this account\") */\n      tag_119\n      jumpi\n      mload(0x40)\n      0x08c379a000000000000000000000000000000000000000000000000000000000\n      dup2\n      mstore\n      0x04\n      add\n      tag_120\n      swap1\n      tag_88\n      jump\t// in\n    tag_120:\n      mload(0x40)\n      dup1\n      swap2\n      sub\n      swap1\n      revert\n    tag_119:\n        /* \"BankAccount.sol\":4539:4548  accountId */\n      dup4\n        /* \"BankAccount.sol\":4550:4556  amount */\n      dup4\n        /* \"BankAccount.sol\":2253:2259  amount */\n      dup1\n        /* \"BankAccount.sol\":2222:2230  accounts */\n      0x00\n        /* \"BankAccount.sol\":2222:2241  accounts[accountId] */\n      dup1\n        /* \"BankAccount.sol\":2231:2240  accountId */\n      dup5\n        /* \"BankAccount.sol\":2222:2241  accounts[accountId] */\n      dup2\n      mstore\n      0x20\n      add\n      swap1\n      dup2\n      mstore\n      0x20\n      add\n      0x00\n      keccak256\n        /* \"BankAccount.sol\":2222:2249  accounts[accountId].balance */\n      0x01\n      add\n      sload\n        /* \"BankAccount.sol\":2222:2259  accounts[accountId].balance >= amount */\n      lt\n      iszero\n        /* \"BankAccount.sol\":2214:2284  require(accounts[accountId].balance >= amount, \"insufficient balance\") */\n      tag_122\n      jumpi\n      mload(0x40)\n      0x08c379a000000000000000000000000000000000000000000000000000000000\n      dup2\n      mstore\n      0x04\n      add\n      tag_123\n      swap1\n      tag_67\n      jump\t// in\n    tag_123:\n      mload(0x40)\n      dup1\n      swap2\n      sub\n      swap1\n      revert\n    tag_122:\n        /* \"BankAccount.sol\":4569:4579  uint256 id */\n      0x00\n        /* \"BankAccount.sol\":4582:4596  nextWithdrawId */\n      sload(0x03)\n        /* \"BankAccount.sol\":4569:4596  uint256 id = nextWithdrawId */\n      swap1\n      pop\n        /* \"BankAccount.sol\":4607:4638  WithdrawRequest storage request */\n      0x00\n        /* \"BankAccount.sol\":4641:4649  accounts */\n      dup1\n        /* \"BankAccount.sol\":4641:4660  accounts[accountId] */\n      0x00\n        /* \"BankAccount.sol\":4650:4659  accountId */\n      dup10\n        /* \"BankAccount.sol\":4641:4660  accounts[accountId] */\n      dup2\n      mstore\n      0x20\n      add\n      swap1\n      dup2\n      mstore\n      0x20\n      add\n      0x00\n      keccak256\n        /* \"BankAccount.sol\":4641:4677  accounts[accountId].withdrawRequests */\n      0x02\n      add\n        /* \"BankAccount.sol\":4641:4705  accounts[accountId].withdrawRequests[... */\n      0x00\n        /* \"BankAccount.sol\":4692:4694  id */\n      dup4\n        /* \"BankAccount.sol\":4641:4705  accounts[accountId].withdrawRequests[... */\n      dup2\n      mstore\n      0x20\n      add\n      swap1\n      dup2\n      mstore\n      0x20\n      add\n      0x00\n      keccak256\n        /* \"BankAccount.sol\":4607:4705  WithdrawRequest storage request = accounts[accountId].withdrawRequests[... */\n      swap1\n      pop\n        /* \"BankAccount.sol\":4731:4741  msg.sender */\n      caller\n        /* \"BankAccount.sol\":4716:4723  request */\n      dup2\n        /* \"BankAccount.sol\":4716:4728  request.user */\n      0x00\n      add\n      0x00\n        /* \"BankAccount.sol\":4716:4741  request.user = msg.sender */\n      0x0100\n      exp\n      dup2\n      sload\n      dup2\n      0xffffffffffffffffffffffffffffffffffffffff\n      mul\n      not\n      and\n      swap1\n      dup4\n      0xffffffffffffffffffffffffffffffffffffffff\n      and\n      mul\n      or\n      swap1\n      sstore\n      pop\n        /* \"BankAccount.sol\":4769:4775  amount */\n      dup7\n        /* \"BankAccount.sol\":4752:4759  request */\n      dup2\n        /* \"BankAccount.sol\":4752:4766  request.amount */\n      0x01\n      add\n        /* \"BankAccount.sol\":4752:4775  request.amount = amount */\n      dup2\n      swap1\n      sstore\n      pop\n        /* \"BankAccount.sol\":4786:4800  nextWithdrawId */\n      0x03\n      0x00\n        /* \"BankAccount.sol\":4786:4802  nextWithdrawId++ */\n      dup2\n      sload\n      dup1\n      swap3\n      swap2\n      swap1\n      tag_125\n      swap1\n      tag_104\n      jump\t// in\n    tag_125:\n      swap2\n      swap1\n      pop\n      sstore\n      pop\n        /* \"BankAccount.sol\":4899:4901  id */\n      dup2\n        /* \"BankAccount.sol\":4875:4884  accountId */\n      dup9\n        /* \"BankAccount.sol\":4850:4860  msg.sender */\n      caller\n        /* \"BankAccount.sol\":4818:4963  WithdrawRequested(... */\n      0xffffffffffffffffffffffffffffffffffffffff\n      and\n      0x1f0d204a59639d21245dbaa239dfc9a6227aa86cb614bdda19843c52d155fcfa\n        /* \"BankAccount.sol\":4916:4922  amount */\n      dup11\n        /* \"BankAccount.sol\":4937:4952  block.timestamp */\n      timestamp\n        /* \"BankAccount.sol\":4818:4963  WithdrawRequested(... */\n      mload(0x40)\n      tag_126\n      swap3\n      swap2\n      swap1\n      tag_127\n      jump\t// in\n    tag_126:\n      mload(0x40)\n      dup1\n      swap2\n      sub\n      swap1\n      log4\n        /* \"BankAccount.sol\":4558:4971  {... */\n      pop\n      pop\n        /* \"BankAccount.sol\":1604:1605  _ */\n      pop\n      pop\n        /* \"BankAccount.sol\":1277:1613  {... */\n      pop\n        /* \"BankAccount.sol\":4402:4971  function requestWithdrawl(... */\n      pop\n      pop\n      pop\n      jump\t// out\n        /* \"BankAccount.sol\":3464:3616  function deposit(... */\n    tag_44:\n        /* \"BankAccount.sol\":3546:3555  accountId */\n      dup1\n        /* \"BankAccount.sol\":1288:1300  bool isOwner */\n      0x00\n        /* \"BankAccount.sol\":1316:1327  uint256 idx */\n      dup1\n        /* \"BankAccount.sol\":1311:1527  for (uint256 idx; idx < accounts[accountId].owners.length; idx++) {... */\n    tag_129:\n        /* \"BankAccount.sol\":1335:1343  accounts */\n      0x00\n        /* \"BankAccount.sol\":1335:1354  accounts[accountId] */\n      dup1\n        /* \"BankAccount.sol\":1344:1353  accountId */\n      dup5\n        /* \"BankAccount.sol\":1335:1354  accounts[accountId] */\n      dup2\n      mstore\n      0x20\n      add\n      swap1\n      dup2\n      mstore\n      0x20\n      add\n      0x00\n      keccak256\n        /* \"BankAccount.sol\":1335:1361  accounts[accountId].owners */\n      0x00\n      add\n        /* \"BankAccount.sol\":1335:1368  accounts[accountId].owners.length */\n      dup1\n      sload\n      swap1\n      pop\n        /* \"BankAccount.sol\":1329:1332  idx */\n      dup2\n        /* \"BankAccount.sol\":1329:1368  idx < accounts[accountId].owners.length */\n      lt\n        /* \"BankAccount.sol\":1311:1527  for (uint256 idx; idx < accounts[accountId].owners.length; idx++) {... */\n      iszero\n      tag_130\n      jumpi\n        /* \"BankAccount.sol\":1431:1441  msg.sender */\n      caller\n        /* \"BankAccount.sol\":1396:1441  accounts[accountId].owners[idx] == msg.sender */\n      0xffffffffffffffffffffffffffffffffffffffff\n      and\n        /* \"BankAccount.sol\":1396:1404  accounts */\n      0x00\n        /* \"BankAccount.sol\":1396:1415  accounts[accountId] */\n      dup1\n        /* \"BankAccount.sol\":1405:1414  accountId */\n      dup6\n        /* \"BankAccount.sol\":1396:1415  accounts[accountId] */\n      dup2\n      mstore\n      0x20\n      add\n      swap1\n      dup2\n      mstore\n      0x20\n      add\n      0x00\n      keccak256\n        /* \"BankAccount.sol\":1396:1422  accounts[accountId].owners */\n      0x00\n      add\n        /* \"BankAccount.sol\":1423:1426  idx */\n      dup3\n        /* \"BankAccount.sol\":1396:1427  accounts[accountId].owners[idx] */\n      dup2\n      sload\n      dup2\n      lt\n      tag_132\n      jumpi\n      tag_133\n      tag_83\n      jump\t// in\n    tag_133:\n    tag_132:\n      swap1\n      0x00\n      mstore\n      keccak256(0x00, 0x20)\n      add\n      0x00\n      swap1\n      sload\n      swap1\n      0x0100\n      exp\n      swap1\n      div\n      0xffffffffffffffffffffffffffffffffffffffff\n      and\n        /* \"BankAccount.sol\":1396:1441  accounts[accountId].owners[idx] == msg.sender */\n      0xffffffffffffffffffffffffffffffffffffffff\n      and\n      sub\n        /* \"BankAccount.sol\":1392:1516  if (accounts[accountId].owners[idx] == msg.sender) {... */\n      tag_135\n      jumpi\n        /* \"BankAccount.sol\":1472:1476  true */\n      0x01\n        /* \"BankAccount.sol\":1462:1476  isOwner = true */\n      swap2\n      pop\n        /* \"BankAccount.sol\":1495:1500  break */\n      jump(tag_130)\n        /* \"BankAccount.sol\":1392:1516  if (accounts[accountId].owners[idx] == msg.sender) {... */\n    tag_135:\n        /* \"BankAccount.sol\":1370:1375  idx++ */\n      dup1\n      dup1\n      0x01\n      add\n      swap2\n      pop\n      pop\n        /* \"BankAccount.sol\":1311:1527  for (uint256 idx; idx < accounts[accountId].owners.length; idx++) {... */\n      jump(tag_129)\n    tag_130:\n      pop\n        /* \"BankAccount.sol\":1545:1552  isOwner */\n      dup1\n        /* \"BankAccount.sol\":1537:1593  require(isOwner, \"you are not an owner of this account\") */\n      tag_136\n      jumpi\n      mload(0x40)\n      0x08c379a000000000000000000000000000000000000000000000000000000000\n      dup2\n      mstore\n      0x04\n      add\n      tag_137\n      swap1\n      tag_88\n      jump\t// in\n    tag_137:\n      mload(0x40)\n      dup1\n      swap2\n      sub\n      swap1\n      revert\n    tag_136:\n        /* \"BankAccount.sol\":3599:3608  msg.value */\n      callvalue\n        /* \"BankAccount.sol\":3568:3576  accounts */\n      0x00\n        /* \"BankAccount.sol\":3568:3587  accounts[accountId] */\n      dup1\n        /* \"BankAccount.sol\":3577:3586  accountId */\n      dup6\n        /* \"BankAccount.sol\":3568:3587  accounts[accountId] */\n      dup2\n      mstore\n      0x20\n      add\n      swap1\n      dup2\n      mstore\n      0x20\n      add\n      0x00\n      keccak256\n        /* \"BankAccount.sol\":3568:3595  accounts[accountId].balance */\n      0x01\n      add\n      0x00\n        /* \"BankAccount.sol\":3568:3608  accounts[accountId].balance += msg.value */\n      dup3\n      dup3\n      sload\n      tag_139\n      swap2\n      swap1\n      tag_140\n      jump\t// in\n    tag_139:\n      swap3\n      pop\n      pop\n      dup2\n      swap1\n      sstore\n      pop\n        /* \"BankAccount.sol\":1277:1613  {... */\n      pop\n        /* \"BankAccount.sol\":3464:3616  function deposit(... */\n      pop\n      pop\n      jump\t// out\n        /* \"BankAccount.sol\":6208:6353  function getOwners(... */\n    tag_48:\n        /* \"BankAccount.sol\":6283:6299  address[] memory */\n      0x60\n        /* \"BankAccount.sol\":6319:6327  accounts */\n      0x00\n        /* \"BankAccount.sol\":6319:6338  accounts[accountId] */\n      dup1\n        /* \"BankAccount.sol\":6328:6337  accountId */\n      dup4\n        /* \"BankAccount.sol\":6319:6338  accounts[accountId] */\n      dup2\n      mstore\n      0x20\n      add\n      swap1\n      dup2\n      mstore\n      0x20\n      add\n      0x00\n      keccak256\n        /* \"BankAccount.sol\":6319:6345  accounts[accountId].owners */\n      0x00\n      add\n        /* \"BankAccount.sol\":6312:6345  return accounts[accountId].owners */\n      dup1\n      sload\n      dup1\n      0x20\n      mul\n      0x20\n      add\n      mload(0x40)\n      swap1\n      dup2\n      add\n      0x40\n      mstore\n      dup1\n      swap3\n      swap2\n      swap1\n      dup2\n      dup2\n      mstore\n      0x20\n      add\n      dup3\n      dup1\n      sload\n      dup1\n      iszero\n      tag_142\n      jumpi\n      0x20\n      mul\n      dup3\n      add\n      swap2\n      swap1\n      0x00\n      mstore\n      keccak256(0x00, 0x20)\n      swap1\n    tag_143:\n      dup2\n      0x00\n      swap1\n      sload\n      swap1\n      0x0100\n      exp\n      swap1\n      div\n      0xffffffffffffffffffffffffffffffffffffffff\n      and\n      0xffffffffffffffffffffffffffffffffffffffff\n      and\n      dup2\n      mstore\n      0x20\n      add\n      swap1\n      0x01\n      add\n      swap1\n      dup1\n      dup4\n      gt\n      tag_143\n      jumpi\n    tag_142:\n      pop\n      pop\n      pop\n      pop\n      pop\n      swap1\n      pop\n        /* \"BankAccount.sol\":6208:6353  function getOwners(... */\n      swap2\n      swap1\n      pop\n      jump\t// out\n        /* \"BankAccount.sol\":3624:4394  function createAccount(... */\n    tag_55:\n        /* \"BankAccount.sol\":3716:3727  otherOwners */\n      dup2\n      dup2\n        /* \"BankAccount.sol\":1709:1710  4 */\n      0x04\n        /* \"BankAccount.sol\":1704:1705  1 */\n      0x01\n        /* \"BankAccount.sol\":1688:1694  owners */\n      dup4\n      dup4\n        /* \"BankAccount.sol\":1688:1701  owners.length */\n      swap1\n      pop\n        /* \"BankAccount.sol\":1688:1705  owners.length + 1 */\n      tag_145\n      swap2\n      swap1\n      tag_140\n      jump\t// in\n    tag_145:\n        /* \"BankAccount.sol\":1688:1710  owners.length + 1 <= 4 */\n      gt\n      iszero\n        /* \"BankAccount.sol\":1680:1746  require(owners.length + 1 <= 4, \"maximum of 4 owners per account\") */\n      tag_146\n      jumpi\n      mload(0x40)\n      0x08c379a000000000000000000000000000000000000000000000000000000000\n      dup2\n      mstore\n      0x04\n      add\n      tag_147\n      swap1\n      tag_148\n      jump\t// in\n    tag_147:\n      mload(0x40)\n      dup1\n      swap2\n      sub\n      swap1\n      revert\n    tag_146:\n        /* \"BankAccount.sol\":1762:1771  uint256 i */\n      0x00\n        /* \"BankAccount.sol\":1757:2114  for (uint256 i; i < owners.length; i++) {... */\n    tag_149:\n        /* \"BankAccount.sol\":1777:1783  owners */\n      dup3\n      dup3\n        /* \"BankAccount.sol\":1777:1790  owners.length */\n      swap1\n      pop\n        /* \"BankAccount.sol\":1773:1774  i */\n      dup2\n        /* \"BankAccount.sol\":1773:1790  i < owners.length */\n      lt\n        /* \"BankAccount.sol\":1757:2114  for (uint256 i; i < owners.length; i++) {... */\n      iszero\n      tag_150\n      jumpi\n        /* \"BankAccount.sol\":1829:1839  msg.sender */\n      caller\n        /* \"BankAccount.sol\":1816:1839  owners[i] == msg.sender */\n      0xffffffffffffffffffffffffffffffffffffffff\n      and\n        /* \"BankAccount.sol\":1816:1822  owners */\n      dup4\n      dup4\n        /* \"BankAccount.sol\":1823:1824  i */\n      dup4\n        /* \"BankAccount.sol\":1816:1825  owners[i] */\n      dup2\n      dup2\n      lt\n      tag_152\n      jumpi\n      tag_153\n      tag_83\n      jump\t// in\n    tag_153:\n    tag_152:\n      swap1\n      pop\n      0x20\n      mul\n      add\n      0x20\n      dup2\n      add\n      swap1\n      tag_154\n      swap2\n      swap1\n      tag_155\n      jump\t// in\n    tag_154:\n        /* \"BankAccount.sol\":1816:1839  owners[i] == msg.sender */\n      0xffffffffffffffffffffffffffffffffffffffff\n      and\n      sub\n        /* \"BankAccount.sol\":1812:1905  if (owners[i] == msg.sender) {... */\n      tag_156\n      jumpi\n        /* \"BankAccount.sol\":1860:1889  revert(\"no duplicate owners\") */\n      mload(0x40)\n      0x08c379a000000000000000000000000000000000000000000000000000000000\n      dup2\n      mstore\n      0x04\n      add\n      tag_157\n      swap1\n      tag_158\n      jump\t// in\n    tag_157:\n      mload(0x40)\n      dup1\n      swap2\n      sub\n      swap1\n      revert\n        /* \"BankAccount.sol\":1812:1905  if (owners[i] == msg.sender) {... */\n    tag_156:\n        /* \"BankAccount.sol\":1926:1935  uint256 j */\n      0x00\n        /* \"BankAccount.sol\":1942:1943  1 */\n      0x01\n        /* \"BankAccount.sol\":1938:1939  i */\n      dup3\n        /* \"BankAccount.sol\":1938:1943  i + 1 */\n      tag_162\n      swap2\n      swap1\n      tag_140\n      jump\t// in\n    tag_162:\n        /* \"BankAccount.sol\":1926:1943  uint256 j = i + 1 */\n      swap1\n      pop\n        /* \"BankAccount.sol\":1921:2103  for (uint256 j = i + 1; j < owners.length; j++) {... */\n    tag_159:\n        /* \"BankAccount.sol\":1949:1955  owners */\n      dup4\n      dup4\n        /* \"BankAccount.sol\":1949:1962  owners.length */\n      swap1\n      pop\n        /* \"BankAccount.sol\":1945:1946  j */\n      dup2\n        /* \"BankAccount.sol\":1945:1962  j < owners.length */\n      lt\n        /* \"BankAccount.sol\":1921:2103  for (uint256 j = i + 1; j < owners.length; j++) {... */\n      iszero\n      tag_160\n      jumpi\n        /* \"BankAccount.sol\":2005:2011  owners */\n      dup4\n      dup4\n        /* \"BankAccount.sol\":2012:2013  j */\n      dup3\n        /* \"BankAccount.sol\":2005:2014  owners[j] */\n      dup2\n      dup2\n      lt\n      tag_163\n      jumpi\n      tag_164\n      tag_83\n      jump\t// in\n    tag_164:\n    tag_163:\n      swap1\n      pop\n      0x20\n      mul\n      add\n      0x20\n      dup2\n      add\n      swap1\n      tag_165\n      swap2\n      swap1\n      tag_155\n      jump\t// in\n    tag_165:\n        /* \"BankAccount.sol\":1992:2014  owners[i] == owners[j] */\n      0xffffffffffffffffffffffffffffffffffffffff\n      and\n        /* \"BankAccount.sol\":1992:1998  owners */\n      dup5\n      dup5\n        /* \"BankAccount.sol\":1999:2000  i */\n      dup5\n        /* \"BankAccount.sol\":1992:2001  owners[i] */\n      dup2\n      dup2\n      lt\n      tag_166\n      jumpi\n      tag_167\n      tag_83\n      jump\t// in\n    tag_167:\n    tag_166:\n      swap1\n      pop\n      0x20\n      mul\n      add\n      0x20\n      dup2\n      add\n      swap1\n      tag_168\n      swap2\n      swap1\n      tag_155\n      jump\t// in\n    tag_168:\n        /* \"BankAccount.sol\":1992:2014  owners[i] == owners[j] */\n      0xffffffffffffffffffffffffffffffffffffffff\n      and\n      sub\n        /* \"BankAccount.sol\":1988:2088  if (owners[i] == owners[j]) {... */\n      tag_169\n      jumpi\n        /* \"BankAccount.sol\":2039:2068  revert(\"no duplicate owners\") */\n      mload(0x40)\n      0x08c379a000000000000000000000000000000000000000000000000000000000\n      dup2\n      mstore\n      0x04\n      add\n      tag_170\n      swap1\n      tag_158\n      jump\t// in\n    tag_170:\n      mload(0x40)\n      dup1\n      swap2\n      sub\n      swap1\n      revert\n        /* \"BankAccount.sol\":1988:2088  if (owners[i] == owners[j]) {... */\n    tag_169:\n        /* \"BankAccount.sol\":1964:1967  j++ */\n      dup1\n      dup1\n      0x01\n      add\n      swap2\n      pop\n      pop\n        /* \"BankAccount.sol\":1921:2103  for (uint256 j = i + 1; j < owners.length; j++) {... */\n      jump(tag_159)\n    tag_160:\n      pop\n        /* \"BankAccount.sol\":1792:1795  i++ */\n      dup1\n      dup1\n      0x01\n      add\n      swap2\n      pop\n      pop\n        /* \"BankAccount.sol\":1757:2114  for (uint256 i; i < owners.length; i++) {... */\n      jump(tag_149)\n    tag_150:\n      pop\n        /* \"BankAccount.sol\":3740:3763  address[] memory owners */\n      0x00\n        /* \"BankAccount.sol\":3801:3802  1 */\n      0x01\n        /* \"BankAccount.sol\":3780:3791  otherOwners */\n      dup6\n      dup6\n        /* \"BankAccount.sol\":3780:3798  otherOwners.length */\n      swap1\n      pop\n        /* \"BankAccount.sol\":3780:3802  otherOwners.length + 1 */\n      tag_172\n      swap2\n      swap1\n      tag_140\n      jump\t// in\n    tag_172:\n        /* \"BankAccount.sol\":3766:3803  new address[](otherOwners.length + 1) */\n      0xffffffffffffffff\n      dup2\n      gt\n      iszero\n      tag_173\n      jumpi\n      tag_174\n      tag_175\n      jump\t// in\n    tag_174:\n    tag_173:\n      mload(0x40)\n      swap1\n      dup1\n      dup3\n      mstore\n      dup1\n      0x20\n      mul\n      0x20\n      add\n      dup3\n      add\n      0x40\n      mstore\n      dup1\n      iszero\n      tag_176\n      jumpi\n      dup2\n      0x20\n      add\n      0x20\n      dup3\n      mul\n      dup1\n      calldatasize\n      dup4\n      calldatacopy\n      dup1\n      dup3\n      add\n      swap2\n      pop\n      pop\n      swap1\n      pop\n    tag_176:\n      pop\n        /* \"BankAccount.sol\":3740:3803  address[] memory owners = new address[](otherOwners.length + 1) */\n      swap1\n      pop\n        /* \"BankAccount.sol\":3843:3853  msg.sender */\n      caller\n        /* \"BankAccount.sol\":3814:3820  owners */\n      dup2\n        /* \"BankAccount.sol\":3821:3832  otherOwners */\n      dup7\n      dup7\n        /* \"BankAccount.sol\":3821:3839  otherOwners.length */\n      swap1\n      pop\n        /* \"BankAccount.sol\":3814:3840  owners[otherOwners.length] */\n      dup2\n      mload\n      dup2\n      lt\n      tag_177\n      jumpi\n      tag_178\n      tag_83\n      jump\t// in\n    tag_178:\n    tag_177:\n      0x20\n      mul\n      0x20\n      add\n      add\n        /* \"BankAccount.sol\":3814:3853  owners[otherOwners.length] = msg.sender */\n      swap1\n      0xffffffffffffffffffffffffffffffffffffffff\n      and\n      swap1\n      dup2\n      0xffffffffffffffffffffffffffffffffffffffff\n      and\n      dup2\n      mstore\n      pop\n      pop\n        /* \"BankAccount.sol\":3866:3876  uint256 id */\n      0x00\n        /* \"BankAccount.sol\":3879:3892  nextAccountId */\n      sload(0x02)\n        /* \"BankAccount.sol\":3866:3892  uint256 id = nextAccountId */\n      swap1\n      pop\n        /* \"BankAccount.sol\":3910:3921  uint256 idx */\n      0x00\n        /* \"BankAccount.sol\":3905:4261  for (uint256 idx; idx < owners.length; idx++) {... */\n    tag_179:\n        /* \"BankAccount.sol\":3929:3935  owners */\n      dup3\n        /* \"BankAccount.sol\":3929:3942  owners.length */\n      mload\n        /* \"BankAccount.sol\":3923:3926  idx */\n      dup2\n        /* \"BankAccount.sol\":3923:3942  idx < owners.length */\n      lt\n        /* \"BankAccount.sol\":3905:4261  for (uint256 idx; idx < owners.length; idx++) {... */\n      iszero\n      tag_180\n      jumpi\n        /* \"BankAccount.sol\":3992:3993  1 */\n      0x01\n        /* \"BankAccount.sol\":3976:3982  owners */\n      dup4\n        /* \"BankAccount.sol\":3976:3989  owners.length */\n      mload\n        /* \"BankAccount.sol\":3976:3993  owners.length - 1 */\n      tag_182\n      swap2\n      swap1\n      tag_69\n      jump\t// in\n    tag_182:\n        /* \"BankAccount.sol\":3970:3973  idx */\n      dup2\n        /* \"BankAccount.sol\":3970:3993  idx < owners.length - 1 */\n      lt\n        /* \"BankAccount.sol\":3966:4060  if (idx < owners.length - 1) {... */\n      iszero\n      tag_183\n      jumpi\n        /* \"BankAccount.sol\":4028:4039  otherOwners */\n      dup7\n      dup7\n        /* \"BankAccount.sol\":4040:4043  idx */\n      dup3\n        /* \"BankAccount.sol\":4028:4044  otherOwners[idx] */\n      dup2\n      dup2\n      lt\n      tag_184\n      jumpi\n      tag_185\n      tag_83\n      jump\t// in\n    tag_185:\n    tag_184:\n      swap1\n      pop\n      0x20\n      mul\n      add\n      0x20\n      dup2\n      add\n      swap1\n      tag_186\n      swap2\n      swap1\n      tag_155\n      jump\t// in\n    tag_186:\n        /* \"BankAccount.sol\":4014:4020  owners */\n      dup4\n        /* \"BankAccount.sol\":4021:4024  idx */\n      dup3\n        /* \"BankAccount.sol\":4014:4025  owners[idx] */\n      dup2\n      mload\n      dup2\n      lt\n      tag_187\n      jumpi\n      tag_188\n      tag_83\n      jump\t// in\n    tag_188:\n    tag_187:\n      0x20\n      mul\n      0x20\n      add\n      add\n        /* \"BankAccount.sol\":4014:4044  owners[idx] = otherOwners[idx] */\n      swap1\n      0xffffffffffffffffffffffffffffffffffffffff\n      and\n      swap1\n      dup2\n      0xffffffffffffffffffffffffffffffffffffffff\n      and\n      dup2\n      mstore\n      pop\n      pop\n        /* \"BankAccount.sol\":3966:4060  if (idx < owners.length - 1) {... */\n    tag_183:\n        /* \"BankAccount.sol\":4115:4116  2 */\n      0x02\n        /* \"BankAccount.sol\":4080:4092  userAccounts */\n      0x01\n        /* \"BankAccount.sol\":4080:4105  userAccounts[owners[idx]] */\n      0x00\n        /* \"BankAccount.sol\":4093:4099  owners */\n      dup6\n        /* \"BankAccount.sol\":4100:4103  idx */\n      dup5\n        /* \"BankAccount.sol\":4093:4104  owners[idx] */\n      dup2\n      mload\n      dup2\n      lt\n      tag_189\n      jumpi\n      tag_190\n      tag_83\n      jump\t// in\n    tag_190:\n    tag_189:\n      0x20\n      mul\n      0x20\n      add\n      add\n      mload\n        /* \"BankAccount.sol\":4080:4105  userAccounts[owners[idx]] */\n      0xffffffffffffffffffffffffffffffffffffffff\n      and\n      0xffffffffffffffffffffffffffffffffffffffff\n      and\n      dup2\n      mstore\n      0x20\n      add\n      swap1\n      dup2\n      mstore\n      0x20\n      add\n      0x00\n      keccak256\n        /* \"BankAccount.sol\":4080:4112  userAccounts[owners[idx]].length */\n      dup1\n      sload\n      swap1\n      pop\n        /* \"BankAccount.sol\":4080:4116  userAccounts[owners[idx]].length > 2 */\n      gt\n        /* \"BankAccount.sol\":4076:4201  if (userAccounts[owners[idx]].length > 2) {... */\n      iszero\n      tag_191\n      jumpi\n        /* \"BankAccount.sol\":4137:4185  revert(\"each user can have a max of 3 accounts\") */\n      mload(0x40)\n      0x08c379a000000000000000000000000000000000000000000000000000000000\n      dup2\n      mstore\n      0x04\n      add\n      tag_192\n      swap1\n      tag_193\n      jump\t// in\n    tag_192:\n      mload(0x40)\n      dup1\n      swap2\n      sub\n      swap1\n      revert\n        /* \"BankAccount.sol\":4076:4201  if (userAccounts[owners[idx]].length > 2) {... */\n    tag_191:\n        /* \"BankAccount.sol\":4215:4227  userAccounts */\n      0x01\n        /* \"BankAccount.sol\":4215:4240  userAccounts[owners[idx]] */\n      0x00\n        /* \"BankAccount.sol\":4228:4234  owners */\n      dup5\n        /* \"BankAccount.sol\":4235:4238  idx */\n      dup4\n        /* \"BankAccount.sol\":4228:4239  owners[idx] */\n      dup2\n      mload\n      dup2\n      lt\n      tag_194\n      jumpi\n      tag_195\n      tag_83\n      jump\t// in\n    tag_195:\n    tag_194:\n      0x20\n      mul\n      0x20\n      add\n      add\n      mload\n        /* \"BankAccount.sol\":4215:4240  userAccounts[owners[idx]] */\n      0xffffffffffffffffffffffffffffffffffffffff\n      and\n      0xffffffffffffffffffffffffffffffffffffffff\n      and\n      dup2\n      mstore\n      0x20\n      add\n      swap1\n      dup2\n      mstore\n      0x20\n      add\n      0x00\n      keccak256\n        /* \"BankAccount.sol\":4246:4248  id */\n      dup3\n        /* \"BankAccount.sol\":4215:4249  userAccounts[owners[idx]].push(id) */\n      swap1\n      dup1\n      0x01\n      dup2\n      sload\n      add\n      dup1\n      dup3\n      sstore\n      dup1\n      swap2\n      pop\n      pop\n      0x01\n      swap1\n      sub\n      swap1\n      0x00\n      mstore\n      keccak256(0x00, 0x20)\n      add\n      0x00\n      swap1\n      swap2\n      swap1\n      swap2\n      swap1\n      swap2\n      pop\n      sstore\n        /* \"BankAccount.sol\":3944:3949  idx++ */\n      dup1\n      dup1\n      0x01\n      add\n      swap2\n      pop\n      pop\n        /* \"BankAccount.sol\":3905:4261  for (uint256 idx; idx < owners.length; idx++) {... */\n      jump(tag_179)\n    tag_180:\n      pop\n        /* \"BankAccount.sol\":4295:4301  owners */\n      dup2\n        /* \"BankAccount.sol\":4273:4281  accounts */\n      0x00\n        /* \"BankAccount.sol\":4273:4285  accounts[id] */\n      dup1\n        /* \"BankAccount.sol\":4282:4284  id */\n      dup4\n        /* \"BankAccount.sol\":4273:4285  accounts[id] */\n      dup2\n      mstore\n      0x20\n      add\n      swap1\n      dup2\n      mstore\n      0x20\n      add\n      0x00\n      keccak256\n        /* \"BankAccount.sol\":4273:4292  accounts[id].owners */\n      0x00\n      add\n        /* \"BankAccount.sol\":4273:4301  accounts[id].owners = owners */\n      swap1\n      dup1\n      mload\n      swap1\n      0x20\n      add\n      swap1\n      tag_197\n      swap3\n      swap2\n      swap1\n      tag_198\n      jump\t// in\n    tag_197:\n      pop\n        /* \"BankAccount.sol\":4312:4325  nextAccountId */\n      0x02\n      0x00\n        /* \"BankAccount.sol\":4312:4327  nextAccountId++ */\n      dup2\n      sload\n      dup1\n      swap3\n      swap2\n      swap1\n      tag_199\n      swap1\n      tag_104\n      jump\t// in\n    tag_199:\n      swap2\n      swap1\n      pop\n      sstore\n      pop\n        /* \"BankAccount.sol\":4366:4368  id */\n      dup1\n        /* \"BankAccount.sol\":4343:4386  AccountCreated(owners, id, block.timestamp) */\n      0x1dfea57c7217d8ee2ef44253419f3a05acdf0e6dea69f12e9e2afa2e748e3c8c\n        /* \"BankAccount.sol\":4358:4364  owners */\n      dup4\n        /* \"BankAccount.sol\":4370:4385  block.timestamp */\n      timestamp\n        /* \"BankAccount.sol\":4343:4386  AccountCreated(owners, id, block.timestamp) */\n      mload(0x40)\n      tag_200\n      swap3\n      swap2\n      swap1\n      tag_201\n      jump\t// in\n    tag_200:\n      mload(0x40)\n      dup1\n      swap2\n      sub\n      swap1\n      log2\n        /* \"BankAccount.sol\":3729:4394  {... */\n      pop\n      pop\n        /* \"BankAccount.sol\":3624:4394  function createAccount(... */\n      pop\n      pop\n      pop\n      pop\n      jump\t// out\n    tag_198:\n      dup3\n      dup1\n      sload\n      dup3\n      dup3\n      sstore\n      swap1\n      0x00\n      mstore\n      keccak256(0x00, 0x20)\n      swap1\n      dup2\n      add\n      swap3\n      dup3\n      iszero\n      tag_202\n      jumpi\n      swap2\n      0x20\n      mul\n      dup3\n      add\n    tag_203:\n      dup3\n      dup2\n      gt\n      iszero\n      tag_204\n      jumpi\n      dup3\n      mload\n      dup3\n      exp(0x0100, 0x00)\n      dup2\n      sload\n      dup2\n      0xffffffffffffffffffffffffffffffffffffffff\n      mul\n      not\n      and\n      swap1\n      dup4\n      0xffffffffffffffffffffffffffffffffffffffff\n      and\n      mul\n      or\n      swap1\n      sstore\n      pop\n      swap2\n      0x20\n      add\n      swap2\n      swap1\n      0x01\n      add\n      swap1\n      jump(tag_203)\n    tag_204:\n    tag_202:\n      pop\n      swap1\n      pop\n      tag_205\n      swap2\n      swap1\n      tag_206\n      jump\t// in\n    tag_205:\n      pop\n      swap1\n      jump\t// out\n    tag_206:\n    tag_207:\n      dup1\n      dup3\n      gt\n      iszero\n      tag_208\n      jumpi\n      0x00\n      dup2\n      0x00\n      swap1\n      sstore\n      pop\n      0x01\n      add\n      jump(tag_207)\n    tag_208:\n      pop\n      swap1\n      jump\t// out\n        /* \"#utility.yul\":88:205   */\n    tag_210:\n        /* \"#utility.yul\":197:198   */\n      0x00\n        /* \"#utility.yul\":194:195   */\n      dup1\n        /* \"#utility.yul\":187:199   */\n      revert\n        /* \"#utility.yul\":211:328   */\n    tag_211:\n        /* \"#utility.yul\":320:321   */\n      0x00\n        /* \"#utility.yul\":317:318   */\n      dup1\n        /* \"#utility.yul\":310:322   */\n      revert\n        /* \"#utility.yul\":334:411   */\n    tag_212:\n        /* \"#utility.yul\":371:378   */\n      0x00\n        /* \"#utility.yul\":400:405   */\n      dup2\n        /* \"#utility.yul\":389:405   */\n      swap1\n      pop\n        /* \"#utility.yul\":334:411   */\n      swap2\n      swap1\n      pop\n      jump\t// out\n        /* \"#utility.yul\":417:539   */\n    tag_213:\n        /* \"#utility.yul\":490:514   */\n      tag_271\n        /* \"#utility.yul\":508:513   */\n      dup2\n        /* \"#utility.yul\":490:514   */\n      tag_212\n      jump\t// in\n    tag_271:\n        /* \"#utility.yul\":483:488   */\n      dup2\n        /* \"#utility.yul\":480:515   */\n      eq\n        /* \"#utility.yul\":470:533   */\n      tag_272\n      jumpi\n        /* \"#utility.yul\":529:530   */\n      0x00\n        /* \"#utility.yul\":526:527   */\n      dup1\n        /* \"#utility.yul\":519:531   */\n      revert\n        /* \"#utility.yul\":470:533   */\n    tag_272:\n        /* \"#utility.yul\":417:539   */\n      pop\n      jump\t// out\n        /* \"#utility.yul\":545:684   */\n    tag_214:\n        /* \"#utility.yul\":591:596   */\n      0x00\n        /* \"#utility.yul\":629:635   */\n      dup2\n        /* \"#utility.yul\":616:636   */\n      calldataload\n        /* \"#utility.yul\":607:636   */\n      swap1\n      pop\n        /* \"#utility.yul\":645:678   */\n      tag_274\n        /* \"#utility.yul\":672:677   */\n      dup2\n        /* \"#utility.yul\":645:678   */\n      tag_213\n      jump\t// in\n    tag_274:\n        /* \"#utility.yul\":545:684   */\n      swap3\n      swap2\n      pop\n      pop\n      jump\t// out\n        /* \"#utility.yul\":690:1019   */\n    tag_15:\n        /* \"#utility.yul\":749:755   */\n      0x00\n        /* \"#utility.yul\":798:800   */\n      0x20\n        /* \"#utility.yul\":786:795   */\n      dup3\n        /* \"#utility.yul\":777:784   */\n      dup5\n        /* \"#utility.yul\":773:796   */\n      sub\n        /* \"#utility.yul\":769:801   */\n      slt\n        /* \"#utility.yul\":766:885   */\n      iszero\n      tag_276\n      jumpi\n        /* \"#utility.yul\":804:883   */\n      tag_277\n      tag_210\n      jump\t// in\n    tag_277:\n        /* \"#utility.yul\":766:885   */\n    tag_276:\n        /* \"#utility.yul\":924:925   */\n      0x00\n        /* \"#utility.yul\":949:1002   */\n      tag_278\n        /* \"#utility.yul\":994:1001   */\n      dup5\n        /* \"#utility.yul\":985:991   */\n      dup3\n        /* \"#utility.yul\":974:983   */\n      dup6\n        /* \"#utility.yul\":970:992   */\n      add\n        /* \"#utility.yul\":949:1002   */\n      tag_214\n      jump\t// in\n    tag_278:\n        /* \"#utility.yul\":939:1002   */\n      swap2\n      pop\n        /* \"#utility.yul\":895:1012   */\n      pop\n        /* \"#utility.yul\":690:1019   */\n      swap3\n      swap2\n      pop\n      pop\n      jump\t// out\n        /* \"#utility.yul\":1025:1143   */\n    tag_215:\n        /* \"#utility.yul\":1112:1136   */\n      tag_280\n        /* \"#utility.yul\":1130:1135   */\n      dup2\n        /* \"#utility.yul\":1112:1136   */\n      tag_212\n      jump\t// in\n    tag_280:\n        /* \"#utility.yul\":1107:1110   */\n      dup3\n        /* \"#utility.yul\":1100:1137   */\n      mstore\n        /* \"#utility.yul\":1025:1143   */\n      pop\n      pop\n      jump\t// out\n        /* \"#utility.yul\":1149:1371   */\n    tag_18:\n        /* \"#utility.yul\":1242:1246   */\n      0x00\n        /* \"#utility.yul\":1280:1282   */\n      0x20\n        /* \"#utility.yul\":1269:1278   */\n      dup3\n        /* \"#utility.yul\":1265:1283   */\n      add\n        /* \"#utility.yul\":1257:1283   */\n      swap1\n      pop\n        /* \"#utility.yul\":1293:1364   */\n      tag_282\n        /* \"#utility.yul\":1361:1362   */\n      0x00\n        /* \"#utility.yul\":1350:1359   */\n      dup4\n        /* \"#utility.yul\":1346:1363   */\n      add\n        /* \"#utility.yul\":1337:1343   */\n      dup5\n        /* \"#utility.yul\":1293:1364   */\n      tag_215\n      jump\t// in\n    tag_282:\n        /* \"#utility.yul\":1149:1371   */\n      swap3\n      swap2\n      pop\n      pop\n      jump\t// out\n        /* \"#utility.yul\":1377:1851   */\n    tag_22:\n        /* \"#utility.yul\":1445:1451   */\n      0x00\n        /* \"#utility.yul\":1453:1459   */\n      dup1\n        /* \"#utility.yul\":1502:1504   */\n      0x40\n        /* \"#utility.yul\":1490:1499   */\n      dup4\n        /* \"#utility.yul\":1481:1488   */\n      dup6\n        /* \"#utility.yul\":1477:1500   */\n      sub\n        /* \"#utility.yul\":1473:1505   */\n      slt\n        /* \"#utility.yul\":1470:1589   */\n      iszero\n      tag_284\n      jumpi\n        /* \"#utility.yul\":1508:1587   */\n      tag_285\n      tag_210\n      jump\t// in\n    tag_285:\n        /* \"#utility.yul\":1470:1589   */\n    tag_284:\n        /* \"#utility.yul\":1628:1629   */\n      0x00\n        /* \"#utility.yul\":1653:1706   */\n      tag_286\n        /* \"#utility.yul\":1698:1705   */\n      dup6\n        /* \"#utility.yul\":1689:1695   */\n      dup3\n        /* \"#utility.yul\":1678:1687   */\n      dup7\n        /* \"#utility.yul\":1674:1696   */\n      add\n        /* \"#utility.yul\":1653:1706   */\n      tag_214\n      jump\t// in\n    tag_286:\n        /* \"#utility.yul\":1643:1706   */\n      swap3\n      pop\n        /* \"#utility.yul\":1599:1716   */\n      pop\n        /* \"#utility.yul\":1755:1757   */\n      0x20\n        /* \"#utility.yul\":1781:1834   */\n      tag_287\n        /* \"#utility.yul\":1826:1833   */\n      dup6\n        /* \"#utility.yul\":1817:1823   */\n      dup3\n        /* \"#utility.yul\":1806:1815   */\n      dup7\n        /* \"#utility.yul\":1802:1824   */\n      add\n        /* \"#utility.yul\":1781:1834   */\n      tag_214\n      jump\t// in\n    tag_287:\n        /* \"#utility.yul\":1771:1834   */\n      swap2\n      pop\n        /* \"#utility.yul\":1726:1844   */\n      pop\n        /* \"#utility.yul\":1377:1851   */\n      swap3\n      pop\n      swap3\n      swap1\n      pop\n      jump\t// out\n        /* \"#utility.yul\":1857:1971   */\n    tag_216:\n        /* \"#utility.yul\":1924:1930   */\n      0x00\n        /* \"#utility.yul\":1958:1963   */\n      dup2\n        /* \"#utility.yul\":1952:1964   */\n      mload\n        /* \"#utility.yul\":1942:1964   */\n      swap1\n      pop\n        /* \"#utility.yul\":1857:1971   */\n      swap2\n      swap1\n      pop\n      jump\t// out\n        /* \"#utility.yul\":1977:2161   */\n    tag_217:\n        /* \"#utility.yul\":2076:2087   */\n      0x00\n        /* \"#utility.yul\":2110:2116   */\n      dup3\n        /* \"#utility.yul\":2105:2108   */\n      dup3\n        /* \"#utility.yul\":2098:2117   */\n      mstore\n        /* \"#utility.yul\":2150:2154   */\n      0x20\n        /* \"#utility.yul\":2145:2148   */\n      dup3\n        /* \"#utility.yul\":2141:2155   */\n      add\n        /* \"#utility.yul\":2126:2155   */\n      swap1\n      pop\n        /* \"#utility.yul\":1977:2161   */\n      swap3\n      swap2\n      pop\n      pop\n      jump\t// out\n        /* \"#utility.yul\":2167:2299   */\n    tag_218:\n        /* \"#utility.yul\":2234:2238   */\n      0x00\n        /* \"#utility.yul\":2257:2260   */\n      dup2\n        /* \"#utility.yul\":2249:2260   */\n      swap1\n      pop\n        /* \"#utility.yul\":2287:2291   */\n      0x20\n        /* \"#utility.yul\":2282:2285   */\n      dup3\n        /* \"#utility.yul\":2278:2292   */\n      add\n        /* \"#utility.yul\":2270:2292   */\n      swap1\n      pop\n        /* \"#utility.yul\":2167:2299   */\n      swap2\n      swap1\n      pop\n      jump\t// out\n        /* \"#utility.yul\":2305:2413   */\n    tag_219:\n        /* \"#utility.yul\":2382:2406   */\n      tag_292\n        /* \"#utility.yul\":2400:2405   */\n      dup2\n        /* \"#utility.yul\":2382:2406   */\n      tag_212\n      jump\t// in\n    tag_292:\n        /* \"#utility.yul\":2377:2380   */\n      dup3\n        /* \"#utility.yul\":2370:2407   */\n      mstore\n        /* \"#utility.yul\":2305:2413   */\n      pop\n      pop\n      jump\t// out\n        /* \"#utility.yul\":2419:2598   */\n    tag_220:\n        /* \"#utility.yul\":2488:2498   */\n      0x00\n        /* \"#utility.yul\":2509:2555   */\n      tag_294\n        /* \"#utility.yul\":2551:2554   */\n      dup4\n        /* \"#utility.yul\":2543:2549   */\n      dup4\n        /* \"#utility.yul\":2509:2555   */\n      tag_219\n      jump\t// in\n    tag_294:\n        /* \"#utility.yul\":2587:2591   */\n      0x20\n        /* \"#utility.yul\":2582:2585   */\n      dup4\n        /* \"#utility.yul\":2578:2592   */\n      add\n        /* \"#utility.yul\":2564:2592   */\n      swap1\n      pop\n        /* \"#utility.yul\":2419:2598   */\n      swap3\n      swap2\n      pop\n      pop\n      jump\t// out\n        /* \"#utility.yul\":2604:2717   */\n    tag_221:\n        /* \"#utility.yul\":2674:2678   */\n      0x00\n        /* \"#utility.yul\":2706:2710   */\n      0x20\n        /* \"#utility.yul\":2701:2704   */\n      dup3\n        /* \"#utility.yul\":2697:2711   */\n      add\n        /* \"#utility.yul\":2689:2711   */\n      swap1\n      pop\n        /* \"#utility.yul\":2604:2717   */\n      swap2\n      swap1\n      pop\n      jump\t// out\n        /* \"#utility.yul\":2753:3485   */\n    tag_222:\n        /* \"#utility.yul\":2872:2875   */\n      0x00\n        /* \"#utility.yul\":2901:2955   */\n      tag_297\n        /* \"#utility.yul\":2949:2954   */\n      dup3\n        /* \"#utility.yul\":2901:2955   */\n      tag_216\n      jump\t// in\n    tag_297:\n        /* \"#utility.yul\":2971:3057   */\n      tag_298\n        /* \"#utility.yul\":3050:3056   */\n      dup2\n        /* \"#utility.yul\":3045:3048   */\n      dup6\n        /* \"#utility.yul\":2971:3057   */\n      tag_217\n      jump\t// in\n    tag_298:\n        /* \"#utility.yul\":2964:3057   */\n      swap4\n      pop\n        /* \"#utility.yul\":3081:3137   */\n      tag_299\n        /* \"#utility.yul\":3131:3136   */\n      dup4\n        /* \"#utility.yul\":3081:3137   */\n      tag_218\n      jump\t// in\n    tag_299:\n        /* \"#utility.yul\":3160:3167   */\n      dup1\n        /* \"#utility.yul\":3191:3192   */\n      0x00\n        /* \"#utility.yul\":3176:3460   */\n    tag_300:\n        /* \"#utility.yul\":3201:3207   */\n      dup4\n        /* \"#utility.yul\":3198:3199   */\n      dup2\n        /* \"#utility.yul\":3195:3208   */\n      lt\n        /* \"#utility.yul\":3176:3460   */\n      iszero\n      tag_302\n      jumpi\n        /* \"#utility.yul\":3277:3283   */\n      dup2\n        /* \"#utility.yul\":3271:3284   */\n      mload\n        /* \"#utility.yul\":3304:3367   */\n      tag_303\n        /* \"#utility.yul\":3363:3366   */\n      dup9\n        /* \"#utility.yul\":3348:3361   */\n      dup3\n        /* \"#utility.yul\":3304:3367   */\n      tag_220\n      jump\t// in\n    tag_303:\n        /* \"#utility.yul\":3297:3367   */\n      swap8\n      pop\n        /* \"#utility.yul\":3390:3450   */\n      tag_304\n        /* \"#utility.yul\":3443:3449   */\n      dup4\n        /* \"#utility.yul\":3390:3450   */\n      tag_221\n      jump\t// in\n    tag_304:\n        /* \"#utility.yul\":3380:3450   */\n      swap3\n      pop\n        /* \"#utility.yul\":3236:3460   */\n      pop\n        /* \"#utility.yul\":3223:3224   */\n      0x01\n        /* \"#utility.yul\":3220:3221   */\n      dup2\n        /* \"#utility.yul\":3216:3225   */\n      add\n        /* \"#utility.yul\":3211:3225   */\n      swap1\n      pop\n        /* \"#utility.yul\":3176:3460   */\n      jump(tag_300)\n    tag_302:\n        /* \"#utility.yul\":3180:3194   */\n      pop\n        /* \"#utility.yul\":3476:3479   */\n      dup6\n        /* \"#utility.yul\":3469:3479   */\n      swap4\n      pop\n        /* \"#utility.yul\":2877:3485   */\n      pop\n      pop\n      pop\n        /* \"#utility.yul\":2753:3485   */\n      swap3\n      swap2\n      pop\n      pop\n      jump\t// out\n        /* \"#utility.yul\":3491:3864   */\n    tag_37:\n        /* \"#utility.yul\":3634:3638   */\n      0x00\n        /* \"#utility.yul\":3672:3674   */\n      0x20\n        /* \"#utility.yul\":3661:3670   */\n      dup3\n        /* \"#utility.yul\":3657:3675   */\n      add\n        /* \"#utility.yul\":3649:3675   */\n      swap1\n      pop\n        /* \"#utility.yul\":3721:3730   */\n      dup2\n        /* \"#utility.yul\":3715:3719   */\n      dup2\n        /* \"#utility.yul\":3711:3731   */\n      sub\n        /* \"#utility.yul\":3707:3708   */\n      0x00\n        /* \"#utility.yul\":3696:3705   */\n      dup4\n        /* \"#utility.yul\":3692:3709   */\n      add\n        /* \"#utility.yul\":3685:3732   */\n      mstore\n        /* \"#utility.yul\":3749:3857   */\n      tag_306\n        /* \"#utility.yul\":3852:3856   */\n      dup2\n        /* \"#utility.yul\":3843:3849   */\n      dup5\n        /* \"#utility.yul\":3749:3857   */\n      tag_222\n      jump\t// in\n    tag_306:\n        /* \"#utility.yul\":3741:3857   */\n      swap1\n      pop\n        /* \"#utility.yul\":3491:3864   */\n      swap3\n      swap2\n      pop\n      pop\n      jump\t// out\n        /* \"#utility.yul\":3870:3984   */\n    tag_223:\n        /* \"#utility.yul\":3937:3943   */\n      0x00\n        /* \"#utility.yul\":3971:3976   */\n      dup2\n        /* \"#utility.yul\":3965:3977   */\n      mload\n        /* \"#utility.yul\":3955:3977   */\n      swap1\n      pop\n        /* \"#utility.yul\":3870:3984   */\n      swap2\n      swap1\n      pop\n      jump\t// out\n        /* \"#utility.yul\":3990:4174   */\n    tag_224:\n        /* \"#utility.yul\":4089:4100   */\n      0x00\n        /* \"#utility.yul\":4123:4129   */\n      dup3\n        /* \"#utility.yul\":4118:4121   */\n      dup3\n        /* \"#utility.yul\":4111:4130   */\n      mstore\n        /* \"#utility.yul\":4163:4167   */\n      0x20\n        /* \"#utility.yul\":4158:4161   */\n      dup3\n        /* \"#utility.yul\":4154:4168   */\n      add\n        /* \"#utility.yul\":4139:4168   */\n      swap1\n      pop\n        /* \"#utility.yul\":3990:4174   */\n      swap3\n      swap2\n      pop\n      pop\n      jump\t// out\n        /* \"#utility.yul\":4180:4312   */\n    tag_225:\n        /* \"#utility.yul\":4247:4251   */\n      0x00\n        /* \"#utility.yul\":4270:4273   */\n      dup2\n        /* \"#utility.yul\":4262:4273   */\n      swap1\n      pop\n        /* \"#utility.yul\":4300:4304   */\n      0x20\n        /* \"#utility.yul\":4295:4298   */\n      dup3\n        /* \"#utility.yul\":4291:4305   */\n      add\n        /* \"#utility.yul\":4283:4305   */\n      swap1\n      pop\n        /* \"#utility.yul\":4180:4312   */\n      swap2\n      swap1\n      pop\n      jump\t// out\n        /* \"#utility.yul\":4318:4444   */\n    tag_226:\n        /* \"#utility.yul\":4355:4362   */\n      0x00\n        /* \"#utility.yul\":4395:4437   */\n      0xffffffffffffffffffffffffffffffffffffffff\n        /* \"#utility.yul\":4388:4393   */\n      dup3\n        /* \"#utility.yul\":4384:4438   */\n      and\n        /* \"#utility.yul\":4373:4438   */\n      swap1\n      pop\n        /* \"#utility.yul\":4318:4444   */\n      swap2\n      swap1\n      pop\n      jump\t// out\n        /* \"#utility.yul\":4450:4546   */\n    tag_227:\n        /* \"#utility.yul\":4487:4494   */\n      0x00\n        /* \"#utility.yul\":4516:4540   */\n      tag_312\n        /* \"#utility.yul\":4534:4539   */\n      dup3\n        /* \"#utility.yul\":4516:4540   */\n      tag_226\n      jump\t// in\n    tag_312:\n        /* \"#utility.yul\":4505:4540   */\n      swap1\n      pop\n        /* \"#utility.yul\":4450:4546   */\n      swap2\n      swap1\n      pop\n      jump\t// out\n        /* \"#utility.yul\":4552:4660   */\n    tag_228:\n        /* \"#utility.yul\":4629:4653   */\n      tag_314\n        /* \"#utility.yul\":4647:4652   */\n      dup2\n        /* \"#utility.yul\":4629:4653   */\n      tag_227\n      jump\t// in\n    tag_314:\n        /* \"#utility.yul\":4624:4627   */\n      dup3\n        /* \"#utility.yul\":4617:4654   */\n      mstore\n        /* \"#utility.yul\":4552:4660   */\n      pop\n      pop\n      jump\t// out\n        /* \"#utility.yul\":4666:4845   */\n    tag_229:\n        /* \"#utility.yul\":4735:4745   */\n      0x00\n        /* \"#utility.yul\":4756:4802   */\n      tag_316\n        /* \"#utility.yul\":4798:4801   */\n      dup4\n        /* \"#utility.yul\":4790:4796   */\n      dup4\n        /* \"#utility.yul\":4756:4802   */\n      tag_228\n      jump\t// in\n    tag_316:\n        /* \"#utility.yul\":4834:4838   */\n      0x20\n        /* \"#utility.yul\":4829:4832   */\n      dup4\n        /* \"#utility.yul\":4825:4839   */\n      add\n        /* \"#utility.yul\":4811:4839   */\n      swap1\n      pop\n        /* \"#utility.yul\":4666:4845   */\n      swap3\n      swap2\n      pop\n      pop\n      jump\t// out\n        /* \"#utility.yul\":4851:4964   */\n    tag_230:\n        /* \"#utility.yul\":4921:4925   */\n      0x00\n        /* \"#utility.yul\":4953:4957   */\n      0x20\n        /* \"#utility.yul\":4948:4951   */\n      dup3\n        /* \"#utility.yul\":4944:4958   */\n      add\n        /* \"#utility.yul\":4936:4958   */\n      swap1\n      pop\n        /* \"#utility.yul\":4851:4964   */\n      swap2\n      swap1\n      pop\n      jump\t// out\n        /* \"#utility.yul\":5000:5732   */\n    tag_231:\n        /* \"#utility.yul\":5119:5122   */\n      0x00\n        /* \"#utility.yul\":5148:5202   */\n      tag_319\n        /* \"#utility.yul\":5196:5201   */\n      dup3\n        /* \"#utility.yul\":5148:5202   */\n      tag_223\n      jump\t// in\n    tag_319:\n        /* \"#utility.yul\":5218:5304   */\n      tag_320\n        /* \"#utility.yul\":5297:5303   */\n      dup2\n        /* \"#utility.yul\":5292:5295   */\n      dup6\n        /* \"#utility.yul\":5218:5304   */\n      tag_224\n      jump\t// in\n    tag_320:\n        /* \"#utility.yul\":5211:5304   */\n      swap4\n      pop\n        /* \"#utility.yul\":5328:5384   */\n      tag_321\n        /* \"#utility.yul\":5378:5383   */\n      dup4\n        /* \"#utility.yul\":5328:5384   */\n      tag_225\n      jump\t// in\n    tag_321:\n        /* \"#utility.yul\":5407:5414   */\n      dup1\n        /* \"#utility.yul\":5438:5439   */\n      0x00\n        /* \"#utility.yul\":5423:5707   */\n    tag_322:\n        /* \"#utility.yul\":5448:5454   */\n      dup4\n        /* \"#utility.yul\":5445:5446   */\n      dup2\n        /* \"#utility.yul\":5442:5455   */\n      lt\n        /* \"#utility.yul\":5423:5707   */\n      iszero\n      tag_324\n      jumpi\n        /* \"#utility.yul\":5524:5530   */\n      dup2\n        /* \"#utility.yul\":5518:5531   */\n      mload\n        /* \"#utility.yul\":5551:5614   */\n      tag_325\n        /* \"#utility.yul\":5610:5613   */\n      dup9\n        /* \"#utility.yul\":5595:5608   */\n      dup3\n        /* \"#utility.yul\":5551:5614   */\n      tag_229\n      jump\t// in\n    tag_325:\n        /* \"#utility.yul\":5544:5614   */\n      swap8\n      pop\n        /* \"#utility.yul\":5637:5697   */\n      tag_326\n        /* \"#utility.yul\":5690:5696   */\n      dup4\n        /* \"#utility.yul\":5637:5697   */\n      tag_230\n      jump\t// in\n    tag_326:\n        /* \"#utility.yul\":5627:5697   */\n      swap3\n      pop\n        /* \"#utility.yul\":5483:5707   */\n      pop\n        /* \"#utility.yul\":5470:5471   */\n      0x01\n        /* \"#utility.yul\":5467:5468   */\n      dup2\n        /* \"#utility.yul\":5463:5472   */\n      add\n        /* \"#utility.yul\":5458:5472   */\n      swap1\n      pop\n        /* \"#utility.yul\":5423:5707   */\n      jump(tag_322)\n    tag_324:\n        /* \"#utility.yul\":5427:5441   */\n      pop\n        /* \"#utility.yul\":5723:5726   */\n      dup6\n        /* \"#utility.yul\":5716:5726   */\n      swap4\n      pop\n        /* \"#utility.yul\":5124:5732   */\n      pop\n      pop\n      pop\n        /* \"#utility.yul\":5000:5732   */\n      swap3\n      swap2\n      pop\n      pop\n      jump\t// out\n        /* \"#utility.yul\":5738:6111   */\n    tag_50:\n        /* \"#utility.yul\":5881:5885   */\n      0x00\n        /* \"#utility.yul\":5919:5921   */\n      0x20\n        /* \"#utility.yul\":5908:5917   */\n      dup3\n        /* \"#utility.yul\":5904:5922   */\n      add\n        /* \"#utility.yul\":5896:5922   */\n      swap1\n      pop\n        /* \"#utility.yul\":5968:5977   */\n      dup2\n        /* \"#utility.yul\":5962:5966   */\n      dup2\n        /* \"#utility.yul\":5958:5978   */\n      sub\n        /* \"#utility.yul\":5954:5955   */\n      0x00\n        /* \"#utility.yul\":5943:5952   */\n      dup4\n        /* \"#utility.yul\":5939:5956   */\n      add\n        /* \"#utility.yul\":5932:5979   */\n      mstore\n        /* \"#utility.yul\":5996:6104   */\n      tag_328\n        /* \"#utility.yul\":6099:6103   */\n      dup2\n        /* \"#utility.yul\":6090:6096   */\n      dup5\n        /* \"#utility.yul\":5996:6104   */\n      tag_231\n      jump\t// in\n    tag_328:\n        /* \"#utility.yul\":5988:6104   */\n      swap1\n      pop\n        /* \"#utility.yul\":5738:6111   */\n      swap3\n      swap2\n      pop\n      pop\n      jump\t// out\n        /* \"#utility.yul\":6117:6234   */\n    tag_232:\n        /* \"#utility.yul\":6226:6227   */\n      0x00\n        /* \"#utility.yul\":6223:6224   */\n      dup1\n        /* \"#utility.yul\":6216:6228   */\n      revert\n        /* \"#utility.yul\":6240:6357   */\n    tag_233:\n        /* \"#utility.yul\":6349:6350   */\n      0x00\n        /* \"#utility.yul\":6346:6347   */\n      dup1\n        /* \"#utility.yul\":6339:6351   */\n      revert\n        /* \"#utility.yul\":6363:6480   */\n    tag_234:\n        /* \"#utility.yul\":6472:6473   */\n      0x00\n        /* \"#utility.yul\":6469:6470   */\n      dup1\n        /* \"#utility.yul\":6462:6474   */\n      revert\n        /* \"#utility.yul\":6503:7071   */\n    tag_235:\n        /* \"#utility.yul\":6576:6584   */\n      0x00\n        /* \"#utility.yul\":6586:6592   */\n      dup1\n        /* \"#utility.yul\":6636:6639   */\n      dup4\n        /* \"#utility.yul\":6629:6633   */\n      0x1f\n        /* \"#utility.yul\":6621:6627   */\n      dup5\n        /* \"#utility.yul\":6617:6634   */\n      add\n        /* \"#utility.yul\":6613:6640   */\n      slt\n        /* \"#utility.yul\":6603:6725   */\n      tag_333\n      jumpi\n        /* \"#utility.yul\":6644:6723   */\n      tag_334\n      tag_232\n      jump\t// in\n    tag_334:\n        /* \"#utility.yul\":6603:6725   */\n    tag_333:\n        /* \"#utility.yul\":6757:6763   */\n      dup3\n        /* \"#utility.yul\":6744:6764   */\n      calldataload\n        /* \"#utility.yul\":6734:6764   */\n      swap1\n      pop\n        /* \"#utility.yul\":6787:6805   */\n      0xffffffffffffffff\n        /* \"#utility.yul\":6779:6785   */\n      dup2\n        /* \"#utility.yul\":6776:6806   */\n      gt\n        /* \"#utility.yul\":6773:6890   */\n      iszero\n      tag_335\n      jumpi\n        /* \"#utility.yul\":6809:6888   */\n      tag_336\n      tag_233\n      jump\t// in\n    tag_336:\n        /* \"#utility.yul\":6773:6890   */\n    tag_335:\n        /* \"#utility.yul\":6923:6927   */\n      0x20\n        /* \"#utility.yul\":6915:6921   */\n      dup4\n        /* \"#utility.yul\":6911:6928   */\n      add\n        /* \"#utility.yul\":6899:6928   */\n      swap2\n      pop\n        /* \"#utility.yul\":6977:6980   */\n      dup4\n        /* \"#utility.yul\":6969:6973   */\n      0x20\n        /* \"#utility.yul\":6961:6967   */\n      dup3\n        /* \"#utility.yul\":6957:6974   */\n      mul\n        /* \"#utility.yul\":6947:6955   */\n      dup4\n        /* \"#utility.yul\":6943:6975   */\n      add\n        /* \"#utility.yul\":6940:6981   */\n      gt\n        /* \"#utility.yul\":6937:7065   */\n      iszero\n      tag_337\n      jumpi\n        /* \"#utility.yul\":6984:7063   */\n      tag_338\n      tag_234\n      jump\t// in\n    tag_338:\n        /* \"#utility.yul\":6937:7065   */\n    tag_337:\n        /* \"#utility.yul\":6503:7071   */\n      swap3\n      pop\n      swap3\n      swap1\n      pop\n      jump\t// out\n        /* \"#utility.yul\":7077:7636   */\n    tag_54:\n        /* \"#utility.yul\":7163:7169   */\n      0x00\n        /* \"#utility.yul\":7171:7177   */\n      dup1\n        /* \"#utility.yul\":7220:7222   */\n      0x20\n        /* \"#utility.yul\":7208:7217   */\n      dup4\n        /* \"#utility.yul\":7199:7206   */\n      dup6\n        /* \"#utility.yul\":7195:7218   */\n      sub\n        /* \"#utility.yul\":7191:7223   */\n      slt\n        /* \"#utility.yul\":7188:7307   */\n      iszero\n      tag_340\n      jumpi\n        /* \"#utility.yul\":7226:7305   */\n      tag_341\n      tag_210\n      jump\t// in\n    tag_341:\n        /* \"#utility.yul\":7188:7307   */\n    tag_340:\n        /* \"#utility.yul\":7374:7375   */\n      0x00\n        /* \"#utility.yul\":7363:7372   */\n      dup4\n        /* \"#utility.yul\":7359:7376   */\n      add\n        /* \"#utility.yul\":7346:7377   */\n      calldataload\n        /* \"#utility.yul\":7404:7422   */\n      0xffffffffffffffff\n        /* \"#utility.yul\":7396:7402   */\n      dup2\n        /* \"#utility.yul\":7393:7423   */\n      gt\n        /* \"#utility.yul\":7390:7507   */\n      iszero\n      tag_342\n      jumpi\n        /* \"#utility.yul\":7426:7505   */\n      tag_343\n      tag_211\n      jump\t// in\n    tag_343:\n        /* \"#utility.yul\":7390:7507   */\n    tag_342:\n        /* \"#utility.yul\":7539:7619   */\n      tag_344\n        /* \"#utility.yul\":7611:7618   */\n      dup6\n        /* \"#utility.yul\":7602:7608   */\n      dup3\n        /* \"#utility.yul\":7591:7600   */\n      dup7\n        /* \"#utility.yul\":7587:7609   */\n      add\n        /* \"#utility.yul\":7539:7619   */\n      tag_235\n      jump\t// in\n    tag_344:\n        /* \"#utility.yul\":7521:7619   */\n      swap3\n      pop\n      swap3\n      pop\n        /* \"#utility.yul\":7317:7629   */\n      pop\n        /* \"#utility.yul\":7077:7636   */\n      swap3\n      pop\n      swap3\n      swap1\n      pop\n      jump\t// out\n        /* \"#utility.yul\":7642:7811   */\n    tag_236:\n        /* \"#utility.yul\":7726:7737   */\n      0x00\n        /* \"#utility.yul\":7760:7766   */\n      dup3\n        /* \"#utility.yul\":7755:7758   */\n      dup3\n        /* \"#utility.yul\":7748:7767   */\n      mstore\n        /* \"#utility.yul\":7800:7804   */\n      0x20\n        /* \"#utility.yul\":7795:7798   */\n      dup3\n        /* \"#utility.yul\":7791:7805   */\n      add\n        /* \"#utility.yul\":7776:7805   */\n      swap1\n      pop\n        /* \"#utility.yul\":7642:7811   */\n      swap3\n      swap2\n      pop\n      pop\n      jump\t// out\n        /* \"#utility.yul\":7817:7998   */\n    tag_237:\n        /* \"#utility.yul\":7957:7990   */\n      0x796f7520646964206e6f74206372656174652074686973207265717565737400\n        /* \"#utility.yul\":7953:7954   */\n      0x00\n        /* \"#utility.yul\":7945:7951   */\n      dup3\n        /* \"#utility.yul\":7941:7955   */\n      add\n        /* \"#utility.yul\":7934:7991   */\n      mstore\n        /* \"#utility.yul\":7817:7998   */\n      pop\n      jump\t// out\n        /* \"#utility.yul\":8004:8370   */\n    tag_238:\n        /* \"#utility.yul\":8146:8149   */\n      0x00\n        /* \"#utility.yul\":8167:8234   */\n      tag_348\n        /* \"#utility.yul\":8231:8233   */\n      0x1f\n        /* \"#utility.yul\":8226:8229   */\n      dup4\n        /* \"#utility.yul\":8167:8234   */\n      tag_236\n      jump\t// in\n    tag_348:\n        /* \"#utility.yul\":8160:8234   */\n      swap2\n      pop\n        /* \"#utility.yul\":8243:8336   */\n      tag_349\n        /* \"#utility.yul\":8332:8335   */\n      dup3\n        /* \"#utility.yul\":8243:8336   */\n      tag_237\n      jump\t// in\n    tag_349:\n        /* \"#utility.yul\":8361:8363   */\n      0x20\n        /* \"#utility.yul\":8356:8359   */\n      dup3\n        /* \"#utility.yul\":8352:8364   */\n      add\n        /* \"#utility.yul\":8345:8364   */\n      swap1\n      pop\n        /* \"#utility.yul\":8004:8370   */\n      swap2\n      swap1\n      pop\n      jump\t// out\n        /* \"#utility.yul\":8376:8795   */\n    tag_60:\n        /* \"#utility.yul\":8542:8546   */\n      0x00\n        /* \"#utility.yul\":8580:8582   */\n      0x20\n        /* \"#utility.yul\":8569:8578   */\n      dup3\n        /* \"#utility.yul\":8565:8583   */\n      add\n        /* \"#utility.yul\":8557:8583   */\n      swap1\n      pop\n        /* \"#utility.yul\":8629:8638   */\n      dup2\n        /* \"#utility.yul\":8623:8627   */\n      dup2\n        /* \"#utility.yul\":8619:8639   */\n      sub\n        /* \"#utility.yul\":8615:8616   */\n      0x00\n        /* \"#utility.yul\":8604:8613   */\n      dup4\n        /* \"#utility.yul\":8600:8617   */\n      add\n        /* \"#utility.yul\":8593:8640   */\n      mstore\n        /* \"#utility.yul\":8657:8788   */\n      tag_351\n        /* \"#utility.yul\":8783:8787   */\n      dup2\n        /* \"#utility.yul\":8657:8788   */\n      tag_238\n      jump\t// in\n    tag_351:\n        /* \"#utility.yul\":8649:8788   */\n      swap1\n      pop\n        /* \"#utility.yul\":8376:8795   */\n      swap2\n      swap1\n      pop\n      jump\t// out\n        /* \"#utility.yul\":8801:8979   */\n    tag_239:\n        /* \"#utility.yul\":8941:8971   */\n      0x746869732072657175657374206973206e6f7420617070726f76656400000000\n        /* \"#utility.yul\":8937:8938   */\n      0x00\n        /* \"#utility.yul\":8929:8935   */\n      dup3\n        /* \"#utility.yul\":8925:8939   */\n      add\n        /* \"#utility.yul\":8918:8972   */\n      mstore\n        /* \"#utility.yul\":8801:8979   */\n      pop\n      jump\t// out\n        /* \"#utility.yul\":8985:9351   */\n    tag_240:\n        /* \"#utility.yul\":9127:9130   */\n      0x00\n        /* \"#utility.yul\":9148:9215   */\n      tag_354\n        /* \"#utility.yul\":9212:9214   */\n      0x1c\n        /* \"#utility.yul\":9207:9210   */\n      dup4\n        /* \"#utility.yul\":9148:9215   */\n      tag_236\n      jump\t// in\n    tag_354:\n        /* \"#utility.yul\":9141:9215   */\n      swap2\n      pop\n        /* \"#utility.yul\":9224:9317   */\n      tag_355\n        /* \"#utility.yul\":9313:9316   */\n      dup3\n        /* \"#utility.yul\":9224:9317   */\n      tag_239\n      jump\t// in\n    tag_355:\n        /* \"#utility.yul\":9342:9344   */\n      0x20\n        /* \"#utility.yul\":9337:9340   */\n      dup3\n        /* \"#utility.yul\":9333:9345   */\n      add\n        /* \"#utility.yul\":9326:9345   */\n      swap1\n      pop\n        /* \"#utility.yul\":8985:9351   */\n      swap2\n      swap1\n      pop\n      jump\t// out\n        /* \"#utility.yul\":9357:9776   */\n    tag_63:\n        /* \"#utility.yul\":9523:9527   */\n      0x00\n        /* \"#utility.yul\":9561:9563   */\n      0x20\n        /* \"#utility.yul\":9550:9559   */\n      dup3\n        /* \"#utility.yul\":9546:9564   */\n      add\n        /* \"#utility.yul\":9538:9564   */\n      swap1\n      pop\n        /* \"#utility.yul\":9610:9619   */\n      dup2\n        /* \"#utility.yul\":9604:9608   */\n      dup2\n        /* \"#utility.yul\":9600:9620   */\n      sub\n        /* \"#utility.yul\":9596:9597   */\n      0x00\n        /* \"#utility.yul\":9585:9594   */\n      dup4\n        /* \"#utility.yul\":9581:9598   */\n      add\n        /* \"#utility.yul\":9574:9621   */\n      mstore\n        /* \"#utility.yul\":9638:9769   */\n      tag_357\n        /* \"#utility.yul\":9764:9768   */\n      dup2\n        /* \"#utility.yul\":9638:9769   */\n      tag_240\n      jump\t// in\n    tag_357:\n        /* \"#utility.yul\":9630:9769   */\n      swap1\n      pop\n        /* \"#utility.yul\":9357:9776   */\n      swap2\n      swap1\n      pop\n      jump\t// out\n        /* \"#utility.yul\":9782:9952   */\n    tag_241:\n        /* \"#utility.yul\":9922:9944   */\n      0x696e73756666696369656e742062616c616e6365000000000000000000000000\n        /* \"#utility.yul\":9918:9919   */\n      0x00\n        /* \"#utility.yul\":9910:9916   */\n      dup3\n        /* \"#utility.yul\":9906:9920   */\n      add\n        /* \"#utility.yul\":9899:9945   */\n      mstore\n        /* \"#utility.yul\":9782:9952   */\n      pop\n      jump\t// out\n        /* \"#utility.yul\":9958:10324   */\n    tag_242:\n        /* \"#utility.yul\":10100:10103   */\n      0x00\n        /* \"#utility.yul\":10121:10188   */\n      tag_360\n        /* \"#utility.yul\":10185:10187   */\n      0x14\n        /* \"#utility.yul\":10180:10183   */\n      dup4\n        /* \"#utility.yul\":10121:10188   */\n      tag_236\n      jump\t// in\n    tag_360:\n        /* \"#utility.yul\":10114:10188   */\n      swap2\n      pop\n        /* \"#utility.yul\":10197:10290   */\n      tag_361\n        /* \"#utility.yul\":10286:10289   */\n      dup3\n        /* \"#utility.yul\":10197:10290   */\n      tag_241\n      jump\t// in\n    tag_361:\n        /* \"#utility.yul\":10315:10317   */\n      0x20\n        /* \"#utility.yul\":10310:10313   */\n      dup3\n        /* \"#utility.yul\":10306:10318   */\n      add\n        /* \"#utility.yul\":10299:10318   */\n      swap1\n      pop\n        /* \"#utility.yul\":9958:10324   */\n      swap2\n      swap1\n      pop\n      jump\t// out\n        /* \"#utility.yul\":10330:10749   */\n    tag_67:\n        /* \"#utility.yul\":10496:10500   */\n      0x00\n        /* \"#utility.yul\":10534:10536   */\n      0x20\n        /* \"#utility.yul\":10523:10532   */\n      dup3\n        /* \"#utility.yul\":10519:10537   */\n      add\n        /* \"#utility.yul\":10511:10537   */\n      swap1\n      pop\n        /* \"#utility.yul\":10583:10592   */\n      dup2\n        /* \"#utility.yul\":10577:10581   */\n      dup2\n        /* \"#utility.yul\":10573:10593   */\n      sub\n        /* \"#utility.yul\":10569:10570   */\n      0x00\n        /* \"#utility.yul\":10558:10567   */\n      dup4\n        /* \"#utility.yul\":10554:10571   */\n      add\n        /* \"#utility.yul\":10547:10594   */\n      mstore\n        /* \"#utility.yul\":10611:10742   */\n      tag_363\n        /* \"#utility.yul\":10737:10741   */\n      dup2\n        /* \"#utility.yul\":10611:10742   */\n      tag_242\n      jump\t// in\n    tag_363:\n        /* \"#utility.yul\":10603:10742   */\n      swap1\n      pop\n        /* \"#utility.yul\":10330:10749   */\n      swap2\n      swap1\n      pop\n      jump\t// out\n        /* \"#utility.yul\":10755:10935   */\n    tag_243:\n        /* \"#utility.yul\":10803:10880   */\n      0x4e487b7100000000000000000000000000000000000000000000000000000000\n        /* \"#utility.yul\":10800:10801   */\n      0x00\n        /* \"#utility.yul\":10793:10881   */\n      mstore\n        /* \"#utility.yul\":10900:10904   */\n      0x11\n        /* \"#utility.yul\":10897:10898   */\n      0x04\n        /* \"#utility.yul\":10890:10905   */\n      mstore\n        /* \"#utility.yul\":10924:10928   */\n      0x24\n        /* \"#utility.yul\":10921:10922   */\n      0x00\n        /* \"#utility.yul\":10914:10929   */\n      revert\n        /* \"#utility.yul\":10941:11135   */\n    tag_69:\n        /* \"#utility.yul\":10981:10985   */\n      0x00\n        /* \"#utility.yul\":11001:11021   */\n      tag_366\n        /* \"#utility.yul\":11019:11020   */\n      dup3\n        /* \"#utility.yul\":11001:11021   */\n      tag_212\n      jump\t// in\n    tag_366:\n        /* \"#utility.yul\":10996:11021   */\n      swap2\n      pop\n        /* \"#utility.yul\":11035:11055   */\n      tag_367\n        /* \"#utility.yul\":11053:11054   */\n      dup4\n        /* \"#utility.yul\":11035:11055   */\n      tag_212\n      jump\t// in\n    tag_367:\n        /* \"#utility.yul\":11030:11055   */\n      swap3\n      pop\n        /* \"#utility.yul\":11079:11080   */\n      dup3\n        /* \"#utility.yul\":11076:11077   */\n      dup3\n        /* \"#utility.yul\":11072:11081   */\n      sub\n        /* \"#utility.yul\":11064:11081   */\n      swap1\n      pop\n        /* \"#utility.yul\":11103:11104   */\n      dup2\n        /* \"#utility.yul\":11097:11101   */\n      dup2\n        /* \"#utility.yul\":11094:11105   */\n      gt\n        /* \"#utility.yul\":11091:11128   */\n      iszero\n      tag_368\n      jumpi\n        /* \"#utility.yul\":11108:11126   */\n      tag_369\n      tag_243\n      jump\t// in\n    tag_369:\n        /* \"#utility.yul\":11091:11128   */\n    tag_368:\n        /* \"#utility.yul\":10941:11135   */\n      swap3\n      swap2\n      pop\n      pop\n      jump\t// out\n        /* \"#utility.yul\":11141:11288   */\n    tag_244:\n        /* \"#utility.yul\":11242:11253   */\n      0x00\n        /* \"#utility.yul\":11279:11282   */\n      dup2\n        /* \"#utility.yul\":11264:11282   */\n      swap1\n      pop\n        /* \"#utility.yul\":11141:11288   */\n      swap3\n      swap2\n      pop\n      pop\n      jump\t// out\n        /* \"#utility.yul\":11294:11408   */\n    tag_245:\n      pop\n      jump\t// out\n        /* \"#utility.yul\":11414:11812   */\n    tag_246:\n        /* \"#utility.yul\":11573:11576   */\n      0x00\n        /* \"#utility.yul\":11594:11677   */\n      tag_373\n        /* \"#utility.yul\":11675:11676   */\n      0x00\n        /* \"#utility.yul\":11670:11673   */\n      dup4\n        /* \"#utility.yul\":11594:11677   */\n      tag_244\n      jump\t// in\n    tag_373:\n        /* \"#utility.yul\":11587:11677   */\n      swap2\n      pop\n        /* \"#utility.yul\":11686:11779   */\n      tag_374\n        /* \"#utility.yul\":11775:11778   */\n      dup3\n        /* \"#utility.yul\":11686:11779   */\n      tag_245\n      jump\t// in\n    tag_374:\n        /* \"#utility.yul\":11804:11805   */\n      0x00\n        /* \"#utility.yul\":11799:11802   */\n      dup3\n        /* \"#utility.yul\":11795:11806   */\n      add\n        /* \"#utility.yul\":11788:11806   */\n      swap1\n      pop\n        /* \"#utility.yul\":11414:11812   */\n      swap2\n      swap1\n      pop\n      jump\t// out\n        /* \"#utility.yul\":11818:12197   */\n    tag_71:\n        /* \"#utility.yul\":12002:12005   */\n      0x00\n        /* \"#utility.yul\":12024:12171   */\n      tag_376\n        /* \"#utility.yul\":12167:12170   */\n      dup3\n        /* \"#utility.yul\":12024:12171   */\n      tag_246\n      jump\t// in\n    tag_376:\n        /* \"#utility.yul\":12017:12171   */\n      swap2\n      pop\n        /* \"#utility.yul\":12188:12191   */\n      dup2\n        /* \"#utility.yul\":12181:12191   */\n      swap1\n      pop\n        /* \"#utility.yul\":11818:12197   */\n      swap2\n      swap1\n      pop\n      jump\t// out\n        /* \"#utility.yul\":12203:12383   */\n    tag_83:\n        /* \"#utility.yul\":12251:12328   */\n      0x4e487b7100000000000000000000000000000000000000000000000000000000\n        /* \"#utility.yul\":12248:12249   */\n      0x00\n        /* \"#utility.yul\":12241:12329   */\n      mstore\n        /* \"#utility.yul\":12348:12352   */\n      0x32\n        /* \"#utility.yul\":12345:12346   */\n      0x04\n        /* \"#utility.yul\":12338:12353   */\n      mstore\n        /* \"#utility.yul\":12372:12376   */\n      0x24\n        /* \"#utility.yul\":12369:12370   */\n      0x00\n        /* \"#utility.yul\":12362:12377   */\n      revert\n        /* \"#utility.yul\":12389:12612   */\n    tag_247:\n        /* \"#utility.yul\":12529:12563   */\n      0x796f7520617265206e6f7420616e206f776e6572206f66207468697320616363\n        /* \"#utility.yul\":12525:12526   */\n      0x00\n        /* \"#utility.yul\":12517:12523   */\n      dup3\n        /* \"#utility.yul\":12513:12527   */\n      add\n        /* \"#utility.yul\":12506:12564   */\n      mstore\n        /* \"#utility.yul\":12598:12604   */\n      0x6f756e7400000000000000000000000000000000000000000000000000000000\n        /* \"#utility.yul\":12593:12595   */\n      0x20\n        /* \"#utility.yul\":12585:12591   */\n      dup3\n        /* \"#utility.yul\":12581:12596   */\n      add\n        /* \"#utility.yul\":12574:12605   */\n      mstore\n        /* \"#utility.yul\":12389:12612   */\n      pop\n      jump\t// out\n        /* \"#utility.yul\":12618:12984   */\n    tag_248:\n        /* \"#utility.yul\":12760:12763   */\n      0x00\n        /* \"#utility.yul\":12781:12848   */\n      tag_380\n        /* \"#utility.yul\":12845:12847   */\n      0x24\n        /* \"#utility.yul\":12840:12843   */\n      dup4\n        /* \"#utility.yul\":12781:12848   */\n      tag_236\n      jump\t// in\n    tag_380:\n        /* \"#utility.yul\":12774:12848   */\n      swap2\n      pop\n        /* \"#utility.yul\":12857:12950   */\n      tag_381\n        /* \"#utility.yul\":12946:12949   */\n      dup3\n        /* \"#utility.yul\":12857:12950   */\n      tag_247\n      jump\t// in\n    tag_381:\n        /* \"#utility.yul\":12975:12977   */\n      0x40\n        /* \"#utility.yul\":12970:12973   */\n      dup3\n        /* \"#utility.yul\":12966:12978   */\n      add\n        /* \"#utility.yul\":12959:12978   */\n      swap1\n      pop\n        /* \"#utility.yul\":12618:12984   */\n      swap2\n      swap1\n      pop\n      jump\t// out\n        /* \"#utility.yul\":12990:13409   */\n    tag_88:\n        /* \"#utility.yul\":13156:13160   */\n      0x00\n        /* \"#utility.yul\":13194:13196   */\n      0x20\n        /* \"#utility.yul\":13183:13192   */\n      dup3\n        /* \"#utility.yul\":13179:13197   */\n      add\n        /* \"#utility.yul\":13171:13197   */\n      swap1\n      pop\n        /* \"#utility.yul\":13243:13252   */\n      dup2\n        /* \"#utility.yul\":13237:13241   */\n      dup2\n        /* \"#utility.yul\":13233:13253   */\n      sub\n        /* \"#utility.yul\":13229:13230   */\n      0x00\n        /* \"#utility.yul\":13218:13227   */\n      dup4\n        /* \"#utility.yul\":13214:13231   */\n      add\n        /* \"#utility.yul\":13207:13254   */\n      mstore\n        /* \"#utility.yul\":13271:13402   */\n      tag_383\n        /* \"#utility.yul\":13397:13401   */\n      dup2\n        /* \"#utility.yul\":13271:13402   */\n      tag_248\n      jump\t// in\n    tag_383:\n        /* \"#utility.yul\":13263:13402   */\n      swap1\n      pop\n        /* \"#utility.yul\":12990:13409   */\n      swap2\n      swap1\n      pop\n      jump\t// out\n        /* \"#utility.yul\":13415:13597   */\n    tag_249:\n        /* \"#utility.yul\":13555:13589   */\n      0x74686973207265717565737420697320616c726561647920617070726f766564\n        /* \"#utility.yul\":13551:13552   */\n      0x00\n        /* \"#utility.yul\":13543:13549   */\n      dup3\n        /* \"#utility.yul\":13539:13553   */\n      add\n        /* \"#utility.yul\":13532:13590   */\n      mstore\n        /* \"#utility.yul\":13415:13597   */\n      pop\n      jump\t// out\n        /* \"#utility.yul\":13603:13969   */\n    tag_250:\n        /* \"#utility.yul\":13745:13748   */\n      0x00\n        /* \"#utility.yul\":13766:13833   */\n      tag_386\n        /* \"#utility.yul\":13830:13832   */\n      0x20\n        /* \"#utility.yul\":13825:13828   */\n      dup4\n        /* \"#utility.yul\":13766:13833   */\n      tag_236\n      jump\t// in\n    tag_386:\n        /* \"#utility.yul\":13759:13833   */\n      swap2\n      pop\n        /* \"#utility.yul\":13842:13935   */\n      tag_387\n        /* \"#utility.yul\":13931:13934   */\n      dup3\n        /* \"#utility.yul\":13842:13935   */\n      tag_249\n      jump\t// in\n    tag_387:\n        /* \"#utility.yul\":13960:13962   */\n      0x20\n        /* \"#utility.yul\":13955:13958   */\n      dup3\n        /* \"#utility.yul\":13951:13963   */\n      add\n        /* \"#utility.yul\":13944:13963   */\n      swap1\n      pop\n        /* \"#utility.yul\":13603:13969   */\n      swap2\n      swap1\n      pop\n      jump\t// out\n        /* \"#utility.yul\":13975:14394   */\n    tag_92:\n        /* \"#utility.yul\":14141:14145   */\n      0x00\n        /* \"#utility.yul\":14179:14181   */\n      0x20\n        /* \"#utility.yul\":14168:14177   */\n      dup3\n        /* \"#utility.yul\":14164:14182   */\n      add\n        /* \"#utility.yul\":14156:14182   */\n      swap1\n      pop\n        /* \"#utility.yul\":14228:14237   */\n      dup2\n        /* \"#utility.yul\":14222:14226   */\n      dup2\n        /* \"#utility.yul\":14218:14238   */\n      sub\n        /* \"#utility.yul\":14214:14215   */\n      0x00\n        /* \"#utility.yul\":14203:14212   */\n      dup4\n        /* \"#utility.yul\":14199:14216   */\n      add\n        /* \"#utility.yul\":14192:14239   */\n      mstore\n        /* \"#utility.yul\":14256:14387   */\n      tag_389\n        /* \"#utility.yul\":14382:14386   */\n      dup2\n        /* \"#utility.yul\":14256:14387   */\n      tag_250\n      jump\t// in\n    tag_389:\n        /* \"#utility.yul\":14248:14387   */\n      swap1\n      pop\n        /* \"#utility.yul\":13975:14394   */\n      swap2\n      swap1\n      pop\n      jump\t// out\n        /* \"#utility.yul\":14400:14581   */\n    tag_251:\n        /* \"#utility.yul\":14540:14573   */\n      0x796f752063616e6e6f7420617070726f76652074686973207265717565737400\n        /* \"#utility.yul\":14536:14537   */\n      0x00\n        /* \"#utility.yul\":14528:14534   */\n      dup3\n        /* \"#utility.yul\":14524:14538   */\n      add\n        /* \"#utility.yul\":14517:14574   */\n      mstore\n        /* \"#utility.yul\":14400:14581   */\n      pop\n      jump\t// out\n        /* \"#utility.yul\":14587:14953   */\n    tag_252:\n        /* \"#utility.yul\":14729:14732   */\n      0x00\n        /* \"#utility.yul\":14750:14817   */\n      tag_392\n        /* \"#utility.yul\":14814:14816   */\n      0x1f\n        /* \"#utility.yul\":14809:14812   */\n      dup4\n        /* \"#utility.yul\":14750:14817   */\n      tag_236\n      jump\t// in\n    tag_392:\n        /* \"#utility.yul\":14743:14817   */\n      swap2\n      pop\n        /* \"#utility.yul\":14826:14919   */\n      tag_393\n        /* \"#utility.yul\":14915:14918   */\n      dup3\n        /* \"#utility.yul\":14826:14919   */\n      tag_251\n      jump\t// in\n    tag_393:\n        /* \"#utility.yul\":14944:14946   */\n      0x20\n        /* \"#utility.yul\":14939:14942   */\n      dup3\n        /* \"#utility.yul\":14935:14947   */\n      add\n        /* \"#utility.yul\":14928:14947   */\n      swap1\n      pop\n        /* \"#utility.yul\":14587:14953   */\n      swap2\n      swap1\n      pop\n      jump\t// out\n        /* \"#utility.yul\":14959:15378   */\n    tag_95:\n        /* \"#utility.yul\":15125:15129   */\n      0x00\n        /* \"#utility.yul\":15163:15165   */\n      0x20\n        /* \"#utility.yul\":15152:15161   */\n      dup3\n        /* \"#utility.yul\":15148:15166   */\n      add\n        /* \"#utility.yul\":15140:15166   */\n      swap1\n      pop\n        /* \"#utility.yul\":15212:15221   */\n      dup2\n        /* \"#utility.yul\":15206:15210   */\n      dup2\n        /* \"#utility.yul\":15202:15222   */\n      sub\n        /* \"#utility.yul\":15198:15199   */\n      0x00\n        /* \"#utility.yul\":15187:15196   */\n      dup4\n        /* \"#utility.yul\":15183:15200   */\n      add\n        /* \"#utility.yul\":15176:15223   */\n      mstore\n        /* \"#utility.yul\":15240:15371   */\n      tag_395\n        /* \"#utility.yul\":15366:15370   */\n      dup2\n        /* \"#utility.yul\":15240:15371   */\n      tag_252\n      jump\t// in\n    tag_395:\n        /* \"#utility.yul\":15232:15371   */\n      swap1\n      pop\n        /* \"#utility.yul\":14959:15378   */\n      swap2\n      swap1\n      pop\n      jump\t// out\n        /* \"#utility.yul\":15384:15561   */\n    tag_253:\n        /* \"#utility.yul\":15524:15553   */\n      0x74686973207265717565737420646f6573206e6f742065786973740000000000\n        /* \"#utility.yul\":15520:15521   */\n      0x00\n        /* \"#utility.yul\":15512:15518   */\n      dup3\n        /* \"#utility.yul\":15508:15522   */\n      add\n        /* \"#utility.yul\":15501:15554   */\n      mstore\n        /* \"#utility.yul\":15384:15561   */\n      pop\n      jump\t// out\n        /* \"#utility.yul\":15567:15933   */\n    tag_254:\n        /* \"#utility.yul\":15709:15712   */\n      0x00\n        /* \"#utility.yul\":15730:15797   */\n      tag_398\n        /* \"#utility.yul\":15794:15796   */\n      0x1b\n        /* \"#utility.yul\":15789:15792   */\n      dup4\n        /* \"#utility.yul\":15730:15797   */\n      tag_236\n      jump\t// in\n    tag_398:\n        /* \"#utility.yul\":15723:15797   */\n      swap2\n      pop\n        /* \"#utility.yul\":15806:15899   */\n      tag_399\n        /* \"#utility.yul\":15895:15898   */\n      dup3\n        /* \"#utility.yul\":15806:15899   */\n      tag_253\n      jump\t// in\n    tag_399:\n        /* \"#utility.yul\":15924:15926   */\n      0x20\n        /* \"#utility.yul\":15919:15922   */\n      dup3\n        /* \"#utility.yul\":15915:15927   */\n      add\n        /* \"#utility.yul\":15908:15927   */\n      swap1\n      pop\n        /* \"#utility.yul\":15567:15933   */\n      swap2\n      swap1\n      pop\n      jump\t// out\n        /* \"#utility.yul\":15939:16358   */\n    tag_98:\n        /* \"#utility.yul\":16105:16109   */\n      0x00\n        /* \"#utility.yul\":16143:16145   */\n      0x20\n        /* \"#utility.yul\":16132:16141   */\n      dup3\n        /* \"#utility.yul\":16128:16146   */\n      add\n        /* \"#utility.yul\":16120:16146   */\n      swap1\n      pop\n        /* \"#utility.yul\":16192:16201   */\n      dup2\n        /* \"#utility.yul\":16186:16190   */\n      dup2\n        /* \"#utility.yul\":16182:16202   */\n      sub\n        /* \"#utility.yul\":16178:16179   */\n      0x00\n        /* \"#utility.yul\":16167:16176   */\n      dup4\n        /* \"#utility.yul\":16163:16180   */\n      add\n        /* \"#utility.yul\":16156:16203   */\n      mstore\n        /* \"#utility.yul\":16220:16351   */\n      tag_401\n        /* \"#utility.yul\":16346:16350   */\n      dup2\n        /* \"#utility.yul\":16220:16351   */\n      tag_254\n      jump\t// in\n    tag_401:\n        /* \"#utility.yul\":16212:16351   */\n      swap1\n      pop\n        /* \"#utility.yul\":15939:16358   */\n      swap2\n      swap1\n      pop\n      jump\t// out\n        /* \"#utility.yul\":16364:16589   */\n    tag_255:\n        /* \"#utility.yul\":16504:16538   */\n      0x796f75206861766520616c726561647920617070726f76656420746869732072\n        /* \"#utility.yul\":16500:16501   */\n      0x00\n        /* \"#utility.yul\":16492:16498   */\n      dup3\n        /* \"#utility.yul\":16488:16502   */\n      add\n        /* \"#utility.yul\":16481:16539   */\n      mstore\n        /* \"#utility.yul\":16573:16581   */\n      0x6571756573740000000000000000000000000000000000000000000000000000\n        /* \"#utility.yul\":16568:16570   */\n      0x20\n        /* \"#utility.yul\":16560:16566   */\n      dup3\n        /* \"#utility.yul\":16556:16571   */\n      add\n        /* \"#utility.yul\":16549:16582   */\n      mstore\n        /* \"#utility.yul\":16364:16589   */\n      pop\n      jump\t// out\n        /* \"#utility.yul\":16595:16961   */\n    tag_256:\n        /* \"#utility.yul\":16737:16740   */\n      0x00\n        /* \"#utility.yul\":16758:16825   */\n      tag_404\n        /* \"#utility.yul\":16822:16824   */\n      0x26\n        /* \"#utility.yul\":16817:16820   */\n      dup4\n        /* \"#utility.yul\":16758:16825   */\n      tag_236\n      jump\t// in\n    tag_404:\n        /* \"#utility.yul\":16751:16825   */\n      swap2\n      pop\n        /* \"#utility.yul\":16834:16927   */\n      tag_405\n        /* \"#utility.yul\":16923:16926   */\n      dup3\n        /* \"#utility.yul\":16834:16927   */\n      tag_255\n      jump\t// in\n    tag_405:\n        /* \"#utility.yul\":16952:16954   */\n      0x40\n        /* \"#utility.yul\":16947:16950   */\n      dup3\n        /* \"#utility.yul\":16943:16955   */\n      add\n        /* \"#utility.yul\":16936:16955   */\n      swap1\n      pop\n        /* \"#utility.yul\":16595:16961   */\n      swap2\n      swap1\n      pop\n      jump\t// out\n        /* \"#utility.yul\":16967:17386   */\n    tag_101:\n        /* \"#utility.yul\":17133:17137   */\n      0x00\n        /* \"#utility.yul\":17171:17173   */\n      0x20\n        /* \"#utility.yul\":17160:17169   */\n      dup3\n        /* \"#utility.yul\":17156:17174   */\n      add\n        /* \"#utility.yul\":17148:17174   */\n      swap1\n      pop\n        /* \"#utility.yul\":17220:17229   */\n      dup2\n        /* \"#utility.yul\":17214:17218   */\n      dup2\n        /* \"#utility.yul\":17210:17230   */\n      sub\n        /* \"#utility.yul\":17206:17207   */\n      0x00\n        /* \"#utility.yul\":17195:17204   */\n      dup4\n        /* \"#utility.yul\":17191:17208   */\n      add\n        /* \"#utility.yul\":17184:17231   */\n      mstore\n        /* \"#utility.yul\":17248:17379   */\n      tag_407\n        /* \"#utility.yul\":17374:17378   */\n      dup2\n        /* \"#utility.yul\":17248:17379   */\n      tag_256\n      jump\t// in\n    tag_407:\n        /* \"#utility.yul\":17240:17379   */\n      swap1\n      pop\n        /* \"#utility.yul\":16967:17386   */\n      swap2\n      swap1\n      pop\n      jump\t// out\n        /* \"#utility.yul\":17392:17625   */\n    tag_104:\n        /* \"#utility.yul\":17431:17434   */\n      0x00\n        /* \"#utility.yul\":17454:17478   */\n      tag_409\n        /* \"#utility.yul\":17472:17477   */\n      dup3\n        /* \"#utility.yul\":17454:17478   */\n      tag_212\n      jump\t// in\n    tag_409:\n        /* \"#utility.yul\":17445:17478   */\n      swap2\n      pop\n        /* \"#utility.yul\":17500:17566   */\n      0xffffffffffffffffffffffffffffffffffffffffffffffffffffffffffffffff\n        /* \"#utility.yul\":17493:17498   */\n      dup3\n        /* \"#utility.yul\":17490:17567   */\n      sub\n        /* \"#utility.yul\":17487:17590   */\n      tag_410\n      jumpi\n        /* \"#utility.yul\":17570:17588   */\n      tag_411\n      tag_243\n      jump\t// in\n    tag_411:\n        /* \"#utility.yul\":17487:17590   */\n    tag_410:\n        /* \"#utility.yul\":17617:17618   */\n      0x01\n        /* \"#utility.yul\":17610:17615   */\n      dup3\n        /* \"#utility.yul\":17606:17619   */\n      add\n        /* \"#utility.yul\":17599:17619   */\n      swap1\n      pop\n        /* \"#utility.yul\":17392:17625   */\n      swap2\n      swap1\n      pop\n      jump\t// out\n        /* \"#utility.yul\":17631:17963   */\n    tag_127:\n        /* \"#utility.yul\":17752:17756   */\n      0x00\n        /* \"#utility.yul\":17790:17792   */\n      0x40\n        /* \"#utility.yul\":17779:17788   */\n      dup3\n        /* \"#utility.yul\":17775:17793   */\n      add\n        /* \"#utility.yul\":17767:17793   */\n      swap1\n      pop\n        /* \"#utility.yul\":17803:17874   */\n      tag_413\n        /* \"#utility.yul\":17871:17872   */\n      0x00\n        /* \"#utility.yul\":17860:17869   */\n      dup4\n        /* \"#utility.yul\":17856:17873   */\n      add\n        /* \"#utility.yul\":17847:17853   */\n      dup6\n        /* \"#utility.yul\":17803:17874   */\n      tag_215\n      jump\t// in\n    tag_413:\n        /* \"#utility.yul\":17884:17956   */\n      tag_414\n        /* \"#utility.yul\":17952:17954   */\n      0x20\n        /* \"#utility.yul\":17941:17950   */\n      dup4\n        /* \"#utility.yul\":17937:17955   */\n      add\n        /* \"#utility.yul\":17928:17934   */\n      dup5\n        /* \"#utility.yul\":17884:17956   */\n      tag_215\n      jump\t// in\n    tag_414:\n        /* \"#utility.yul\":17631:17963   */\n      swap4\n      swap3\n      pop\n      pop\n      pop\n      jump\t// out\n        /* \"#utility.yul\":17969:18160   */\n    tag_140:\n        /* \"#utility.yul\":18009:18012   */\n      0x00\n        /* \"#utility.yul\":18028:18048   */\n      tag_416\n        /* \"#utility.yul\":18046:18047   */\n      dup3\n        /* \"#utility.yul\":18028:18048   */\n      tag_212\n      jump\t// in\n    tag_416:\n        /* \"#utility.yul\":18023:18048   */\n      swap2\n      pop\n        /* \"#utility.yul\":18062:18082   */\n      tag_417\n        /* \"#utility.yul\":18080:18081   */\n      dup4\n        /* \"#utility.yul\":18062:18082   */\n      tag_212\n      jump\t// in\n    tag_417:\n        /* \"#utility.yul\":18057:18082   */\n      swap3\n      pop\n        /* \"#utility.yul\":18105:18106   */\n      dup3\n        /* \"#utility.yul\":18102:18103   */\n      dup3\n        /* \"#utility.yul\":18098:18107   */\n      add\n        /* \"#utility.yul\":18091:18107   */\n      swap1\n      pop\n        /* \"#utility.yul\":18126:18129   */\n      dup1\n        /* \"#utility.yul\":18123:18124   */\n      dup3\n        /* \"#utility.yul\":18120:18130   */\n      gt\n        /* \"#utility.yul\":18117:18153   */\n      iszero\n      tag_418\n      jumpi\n        /* \"#utility.yul\":18133:18151   */\n      tag_419\n      tag_243\n      jump\t// in\n    tag_419:\n        /* \"#utility.yul\":18117:18153   */\n    tag_418:\n        /* \"#utility.yul\":17969:18160   */\n      swap3\n      swap2\n      pop\n      pop\n      jump\t// out\n        /* \"#utility.yul\":18166:18347   */\n    tag_257:\n        /* \"#utility.yul\":18306:18339   */\n      0x6d6178696d756d206f662034206f776e65727320706572206163636f756e7400\n        /* \"#utility.yul\":18302:18303   */\n      0x00\n        /* \"#utility.yul\":18294:18300   */\n      dup3\n        /* \"#utility.yul\":18290:18304   */\n      add\n        /* \"#utility.yul\":18283:18340   */\n      mstore\n        /* \"#utility.yul\":18166:18347   */\n      pop\n      jump\t// out\n        /* \"#utility.yul\":18353:18719   */\n    tag_258:\n        /* \"#utility.yul\":18495:18498   */\n      0x00\n        /* \"#utility.yul\":18516:18583   */\n      tag_422\n        /* \"#utility.yul\":18580:18582   */\n      0x1f\n        /* \"#utility.yul\":18575:18578   */\n      dup4\n        /* \"#utility.yul\":18516:18583   */\n      tag_236\n      jump\t// in\n    tag_422:\n        /* \"#utility.yul\":18509:18583   */\n      swap2\n      pop\n        /* \"#utility.yul\":18592:18685   */\n      tag_423\n        /* \"#utility.yul\":18681:18684   */\n      dup3\n        /* \"#utility.yul\":18592:18685   */\n      tag_257\n      jump\t// in\n    tag_423:\n        /* \"#utility.yul\":18710:18712   */\n      0x20\n        /* \"#utility.yul\":18705:18708   */\n      dup3\n        /* \"#utility.yul\":18701:18713   */\n      add\n        /* \"#utility.yul\":18694:18713   */\n      swap1\n      pop\n        /* \"#utility.yul\":18353:18719   */\n      swap2\n      swap1\n      pop\n      jump\t// out\n        /* \"#utility.yul\":18725:19144   */\n    tag_148:\n        /* \"#utility.yul\":18891:18895   */\n      0x00\n        /* \"#utility.yul\":18929:18931   */\n      0x20\n        /* \"#utility.yul\":18918:18927   */\n      dup3\n        /* \"#utility.yul\":18914:18932   */\n      add\n        /* \"#utility.yul\":18906:18932   */\n      swap1\n      pop\n        /* \"#utility.yul\":18978:18987   */\n      dup2\n        /* \"#utility.yul\":18972:18976   */\n      dup2\n        /* \"#utility.yul\":18968:18988   */\n      sub\n        /* \"#utility.yul\":18964:18965   */\n      0x00\n        /* \"#utility.yul\":18953:18962   */\n      dup4\n        /* \"#utility.yul\":18949:18966   */\n      add\n        /* \"#utility.yul\":18942:18989   */\n      mstore\n        /* \"#utility.yul\":19006:19137   */\n      tag_425\n        /* \"#utility.yul\":19132:19136   */\n      dup2\n        /* \"#utility.yul\":19006:19137   */\n      tag_258\n      jump\t// in\n    tag_425:\n        /* \"#utility.yul\":18998:19137   */\n      swap1\n      pop\n        /* \"#utility.yul\":18725:19144   */\n      swap2\n      swap1\n      pop\n      jump\t// out\n        /* \"#utility.yul\":19150:19272   */\n    tag_259:\n        /* \"#utility.yul\":19223:19247   */\n      tag_427\n        /* \"#utility.yul\":19241:19246   */\n      dup2\n        /* \"#utility.yul\":19223:19247   */\n      tag_227\n      jump\t// in\n    tag_427:\n        /* \"#utility.yul\":19216:19221   */\n      dup2\n        /* \"#utility.yul\":19213:19248   */\n      eq\n        /* \"#utility.yul\":19203:19266   */\n      tag_428\n      jumpi\n        /* \"#utility.yul\":19262:19263   */\n      0x00\n        /* \"#utility.yul\":19259:19260   */\n      dup1\n        /* \"#utility.yul\":19252:19264   */\n      revert\n        /* \"#utility.yul\":19203:19266   */\n    tag_428:\n        /* \"#utility.yul\":19150:19272   */\n      pop\n      jump\t// out\n        /* \"#utility.yul\":19278:19417   */\n    tag_260:\n        /* \"#utility.yul\":19324:19329   */\n      0x00\n        /* \"#utility.yul\":19362:19368   */\n      dup2\n        /* \"#utility.yul\":19349:19369   */\n      calldataload\n        /* \"#utility.yul\":19340:19369   */\n      swap1\n      pop\n        /* \"#utility.yul\":19378:19411   */\n      tag_430\n        /* \"#utility.yul\":19405:19410   */\n      dup2\n        /* \"#utility.yul\":19378:19411   */\n      tag_259\n      jump\t// in\n    tag_430:\n        /* \"#utility.yul\":19278:19417   */\n      swap3\n      swap2\n      pop\n      pop\n      jump\t// out\n        /* \"#utility.yul\":19423:19752   */\n    tag_155:\n        /* \"#utility.yul\":19482:19488   */\n      0x00\n        /* \"#utility.yul\":19531:19533   */\n      0x20\n        /* \"#utility.yul\":19519:19528   */\n      dup3\n        /* \"#utility.yul\":19510:19517   */\n      dup5\n        /* \"#utility.yul\":19506:19529   */\n      sub\n        /* \"#utility.yul\":19502:19534   */\n      slt\n        /* \"#utility.yul\":19499:19618   */\n      iszero\n      tag_432\n      jumpi\n        /* \"#utility.yul\":19537:19616   */\n      tag_433\n      tag_210\n      jump\t// in\n    tag_433:\n        /* \"#utility.yul\":19499:19618   */\n    tag_432:\n        /* \"#utility.yul\":19657:19658   */\n      0x00\n        /* \"#utility.yul\":19682:19735   */\n      tag_434\n        /* \"#utility.yul\":19727:19734   */\n      dup5\n        /* \"#utility.yul\":19718:19724   */\n      dup3\n        /* \"#utility.yul\":19707:19716   */\n      dup6\n        /* \"#utility.yul\":19703:19725   */\n      add\n        /* \"#utility.yul\":19682:19735   */\n      tag_260\n      jump\t// in\n    tag_434:\n        /* \"#utility.yul\":19672:19735   */\n      swap2\n      pop\n        /* \"#utility.yul\":19628:19745   */\n      pop\n        /* \"#utility.yul\":19423:19752   */\n      swap3\n      swap2\n      pop\n      pop\n      jump\t// out\n        /* \"#utility.yul\":19758:19927   */\n    tag_261:\n        /* \"#utility.yul\":19898:19919   */\n      0x6e6f206475706c6963617465206f776e65727300000000000000000000000000\n        /* \"#utility.yul\":19894:19895   */\n      0x00\n        /* \"#utility.yul\":19886:19892   */\n      dup3\n        /* \"#utility.yul\":19882:19896   */\n      add\n        /* \"#utility.yul\":19875:19920   */\n      mstore\n        /* \"#utility.yul\":19758:19927   */\n      pop\n      jump\t// out\n        /* \"#utility.yul\":19933:20299   */\n    tag_262:\n        /* \"#utility.yul\":20075:20078   */\n      0x00\n        /* \"#utility.yul\":20096:20163   */\n      tag_437\n        /* \"#utility.yul\":20160:20162   */\n      0x13\n        /* \"#utility.yul\":20155:20158   */\n      dup4\n        /* \"#utility.yul\":20096:20163   */\n      tag_236\n      jump\t// in\n    tag_437:\n        /* \"#utility.yul\":20089:20163   */\n      swap2\n      pop\n        /* \"#utility.yul\":20172:20265   */\n      tag_438\n        /* \"#utility.yul\":20261:20264   */\n      dup3\n        /* \"#utility.yul\":20172:20265   */\n      tag_261\n      jump\t// in\n    tag_438:\n        /* \"#utility.yul\":20290:20292   */\n      0x20\n        /* \"#utility.yul\":20285:20288   */\n      dup3\n        /* \"#utility.yul\":20281:20293   */\n      add\n        /* \"#utility.yul\":20274:20293   */\n      swap1\n      pop\n        /* \"#utility.yul\":19933:20299   */\n      swap2\n      swap1\n      pop\n      jump\t// out\n        /* \"#utility.yul\":20305:20724   */\n    tag_158:\n        /* \"#utility.yul\":20471:20475   */\n      0x00\n        /* \"#utility.yul\":20509:20511   */\n      0x20\n        /* \"#utility.yul\":20498:20507   */\n      dup3\n        /* \"#utility.yul\":20494:20512   */\n      add\n        /* \"#utility.yul\":20486:20512   */\n      swap1\n      pop\n        /* \"#utility.yul\":20558:20567   */\n      dup2\n        /* \"#utility.yul\":20552:20556   */\n      dup2\n        /* \"#utility.yul\":20548:20568   */\n      sub\n        /* \"#utility.yul\":20544:20545   */\n      0x00\n        /* \"#utility.yul\":20533:20542   */\n      dup4\n        /* \"#utility.yul\":20529:20546   */\n      add\n        /* \"#utility.yul\":20522:20569   */\n      mstore\n        /* \"#utility.yul\":20586:20717   */\n      tag_440\n        /* \"#utility.yul\":20712:20716   */\n      dup2\n        /* \"#utility.yul\":20586:20717   */\n      tag_262\n      jump\t// in\n    tag_440:\n        /* \"#utility.yul\":20578:20717   */\n      swap1\n      pop\n        /* \"#utility.yul\":20305:20724   */\n      swap2\n      swap1\n      pop\n      jump\t// out\n        /* \"#utility.yul\":20730:20910   */\n    tag_175:\n        /* \"#utility.yul\":20778:20855   */\n      0x4e487b7100000000000000000000000000000000000000000000000000000000\n        /* \"#utility.yul\":20775:20776   */\n      0x00\n        /* \"#utility.yul\":20768:20856   */\n      mstore\n        /* \"#utility.yul\":20875:20879   */\n      0x41\n        /* \"#utility.yul\":20872:20873   */\n      0x04\n        /* \"#utility.yul\":20865:20880   */\n      mstore\n        /* \"#utility.yul\":20899:20903   */\n      0x24\n        /* \"#utility.yul\":20896:20897   */\n      0x00\n        /* \"#utility.yul\":20889:20904   */\n      revert\n        /* \"#utility.yul\":20916:21141   */\n    tag_263:\n        /* \"#utility.yul\":21056:21090   */\n      0x6561636820757365722063616e20686176652061206d6178206f662033206163\n        /* \"#utility.yul\":21052:21053   */\n      0x00\n        /* \"#utility.yul\":21044:21050   */\n      dup3\n        /* \"#utility.yul\":21040:21054   */\n      add\n        /* \"#utility.yul\":21033:21091   */\n      mstore\n        /* \"#utility.yul\":21125:21133   */\n      0x636f756e74730000000000000000000000000000000000000000000000000000\n        /* \"#utility.yul\":21120:21122   */\n      0x20\n        /* \"#utility.yul\":21112:21118   */\n      dup3\n        /* \"#utility.yul\":21108:21123   */\n      add\n        /* \"#utility.yul\":21101:21134   */\n      mstore\n        /* \"#utility.yul\":20916:21141   */\n      pop\n      jump\t// out\n        /* \"#utility.yul\":21147:21513   */\n    tag_264:\n        /* \"#utility.yul\":21289:21292   */\n      0x00\n        /* \"#utility.yul\":21310:21377   */\n      tag_444\n        /* \"#utility.yul\":21374:21376   */\n      0x26\n        /* \"#utility.yul\":21369:21372   */\n      dup4\n        /* \"#utility.yul\":21310:21377   */\n      tag_236\n      jump\t// in\n    tag_444:\n        /* \"#utility.yul\":21303:21377   */\n      swap2\n      pop\n        /* \"#utility.yul\":21386:21479   */\n      tag_445\n        /* \"#utility.yul\":21475:21478   */\n      dup3\n        /* \"#utility.yul\":21386:21479   */\n      tag_263\n      jump\t// in\n    tag_445:\n        /* \"#utility.yul\":21504:21506   */\n      0x40\n        /* \"#utility.yul\":21499:21502   */\n      dup3\n        /* \"#utility.yul\":21495:21507   */\n      add\n        /* \"#utility.yul\":21488:21507   */\n      swap1\n      pop\n        /* \"#utility.yul\":21147:21513   */\n      swap2\n      swap1\n      pop\n      jump\t// out\n        /* \"#utility.yul\":21519:21938   */\n    tag_193:\n        /* \"#utility.yul\":21685:21689   */\n      0x00\n        /* \"#utility.yul\":21723:21725   */\n      0x20\n        /* \"#utility.yul\":21712:21721   */\n      dup3\n        /* \"#utility.yul\":21708:21726   */\n      add\n        /* \"#utility.yul\":21700:21726   */\n      swap1\n      pop\n        /* \"#utility.yul\":21772:21781   */\n      dup2\n        /* \"#utility.yul\":21766:21770   */\n      dup2\n        /* \"#utility.yul\":21762:21782   */\n      sub\n        /* \"#utility.yul\":21758:21759   */\n      0x00\n        /* \"#utility.yul\":21747:21756   */\n      dup4\n        /* \"#utility.yul\":21743:21760   */\n      add\n        /* \"#utility.yul\":21736:21783   */\n      mstore\n        /* \"#utility.yul\":21800:21931   */\n      tag_447\n        /* \"#utility.yul\":21926:21930   */\n      dup2\n        /* \"#utility.yul\":21800:21931   */\n      tag_264\n      jump\t// in\n    tag_447:\n        /* \"#utility.yul\":21792:21931   */\n      swap1\n      pop\n        /* \"#utility.yul\":21519:21938   */\n      swap2\n      swap1\n      pop\n      jump\t// out\n        /* \"#utility.yul\":21944:22427   */\n    tag_201:\n        /* \"#utility.yul\":22115:22119   */\n      0x00\n        /* \"#utility.yul\":22153:22155   */\n      0x40\n        /* \"#utility.yul\":22142:22151   */\n      dup3\n        /* \"#utility.yul\":22138:22156   */\n      add\n        /* \"#utility.yul\":22130:22156   */\n      swap1\n      pop\n        /* \"#utility.yul\":22202:22211   */\n      dup2\n        /* \"#utility.yul\":22196:22200   */\n      dup2\n        /* \"#utility.yul\":22192:22212   */\n      sub\n        /* \"#utility.yul\":22188:22189   */\n      0x00\n        /* \"#utility.yul\":22177:22186   */\n      dup4\n        /* \"#utility.yul\":22173:22190   */\n      add\n        /* \"#utility.yul\":22166:22213   */\n      mstore\n        /* \"#utility.yul\":22230:22338   */\n      tag_449\n        /* \"#utility.yul\":22333:22337   */\n      dup2\n        /* \"#utility.yul\":22324:22330   */\n      dup6\n        /* \"#utility.yul\":22230:22338   */\n      tag_231\n      jump\t// in\n    tag_449:\n        /* \"#utility.yul\":22222:22338   */\n      swap1\n      pop\n        /* \"#utility.yul\":22348:22420   */\n      tag_450\n        /* \"#utility.yul\":22416:22418   */\n      0x20\n        /* \"#utility.yul\":22405:22414   */\n      dup4\n        /* \"#utility.yul\":22401:22419   */\n      add\n        /* \"#utility.yul\":22392:22398   */\n      dup5\n        /* \"#utility.yul\":22348:22420   */\n      tag_215\n      jump\t// in\n    tag_450:\n        /* \"#utility.yul\":21944:22427   */\n      swap4\n      swap3\n      pop\n      pop\n      pop\n      jump\t// out\n\n    auxdata: 0xa2646970667358221220b2ed1e486ed5b7ce02b9e9dc465096e6309c0c3e109028f2680a0758abbdbee864736f6c634300081a0033\n}\n",
				"bytecode": {
					"linkReferences": {},
					"object": "6080604052348015600e575f80fd5b50611e5f8061001c5f395ff3fe608060405260043610610085575f3560e01c80638a48ac03116100585780638a48ac0314610151578063a52a6f9a1461017b578063b6b55f25146101a3578063ee4525d5146101bf578063eff63433146101fb57610085565b80631e01043914610089578063441a3e70146100c5578063785e5531146100ed578063867275a514610115575b5f80fd5b348015610094575f80fd5b506100af60048036038101906100aa91906113f5565b610223565b6040516100bc919061142f565b60405180910390f35b3480156100d0575f80fd5b506100eb60048036038101906100e69190611448565b61023f565b005b3480156100f8575f80fd5b50610113600480360381019061010e9190611448565b610527565b005b348015610120575f80fd5b5061013b60048036038101906101369190611448565b610987565b604051610148919061142f565b60405180910390f35b34801561015c575f80fd5b506101656109b6565b604051610172919061153d565b60405180910390f35b348015610186575f80fd5b506101a1600480360381019061019c9190611448565b610a47565b005b6101bd60048036038101906101b891906113f5565b610c7d565b005b3480156101ca575f80fd5b506101e560048036038101906101e091906113f5565b610da1565b6040516101f29190611644565b60405180910390f35b348015610206575f80fd5b50610221600480360381019061021c91906116c5565b610e3e565b005b5f805f8381526020019081526020015f20600101549050919050565b81813373ffffffffffffffffffffffffffffffffffffffff165f808481526020019081526020015f206002015f8381526020019081526020015f205f015f9054906101000a900473ffffffffffffffffffffffffffffffffffffffff1673ffffffffffffffffffffffffffffffffffffffff16146102f2576040517f08c379a00000000000000000000000000000000000000000000000000000000081526004016102e99061176a565b60405180910390fd5b5f808381526020019081526020015f206002015f8281526020019081526020015f206004015f9054906101000a900460ff16610363576040517f08c379a000000000000000000000000000000000000000000000000000000000815260040161035a906117d2565b60405180910390fd5b5f805f8681526020019081526020015f206002015f8581526020019081526020015f20600101549050805f808781526020019081526020015f206001015410156103e2576040517f08c379a00000000000000000000000000000000000000000000000000000000081526004016103d99061183a565b60405180910390fd5b805f808781526020019081526020015f206001015f8282546104049190611885565b925050819055505f808681526020019081526020015f206002015f8581526020019081526020015f205f8082015f6101000a81549073ffffffffffffffffffffffffffffffffffffffff0219169055600182015f9055600282015f9055600482015f6101000a81549060ff021916905550505f3373ffffffffffffffffffffffffffffffffffffffff168260405161049b906118e5565b5f6040518083038185875af1925050503d805f81146104d5576040519150601f19603f3d011682016040523d82523d5f602084013e6104da565b606091505b50509050806104e7575f80fd5b847f56ca301a9219608c91e7bcee90e083c19671d2cdcc96752c7af291cee5f9c8c842604051610517919061142f565b60405180910390a2505050505050565b815f805b5f808481526020019081526020015f205f01805490508110156105dc573373ffffffffffffffffffffffffffffffffffffffff165f808581526020019081526020015f205f018281548110610583576105826118f9565b5b905f5260205f20015f9054906101000a900473ffffffffffffffffffffffffffffffffffffffff1673ffffffffffffffffffffffffffffffffffffffff16036105cf57600191506105dc565b808060010191505061052b565b508061061d576040517f08c379a000000000000000000000000000000000000000000000000000000000815260040161061490611996565b60405180910390fd5b83835f808381526020019081526020015f206002015f8281526020019081526020015f206004015f9054906101000a900460ff1615610691576040517f08c379a0000000000000000000000000000000000000000000000000000000008152600401610688906119fe565b60405180910390fd5b3373ffffffffffffffffffffffffffffffffffffffff165f808481526020019081526020015f206002015f8381526020019081526020015f205f015f9054906101000a900473ffffffffffffffffffffffffffffffffffffffff1673ffffffffffffffffffffffffffffffffffffffff1603610742576040517f08c379a000000000000000000000000000000000000000000000000000000000815260040161073990611a66565b60405180910390fd5b5f73ffffffffffffffffffffffffffffffffffffffff165f808481526020019081526020015f206002015f8381526020019081526020015f205f015f9054906101000a900473ffffffffffffffffffffffffffffffffffffffff1673ffffffffffffffffffffffffffffffffffffffff16036107f3576040517f08c379a00000000000000000000000000000000000000000000000000000000081526004016107ea90611ace565b60405180910390fd5b5f808381526020019081526020015f206002015f8281526020019081526020015f206003015f3373ffffffffffffffffffffffffffffffffffffffff1673ffffffffffffffffffffffffffffffffffffffff1681526020019081526020015f205f9054906101000a900460ff16156108a0576040517f08c379a000000000000000000000000000000000000000000000000000000000815260040161089790611b5c565b60405180910390fd5b5f805f8881526020019081526020015f206002015f8781526020019081526020015f209050806002015f8154809291906108d990611b7a565b91905055506001816003015f3373ffffffffffffffffffffffffffffffffffffffff1673ffffffffffffffffffffffffffffffffffffffff1681526020019081526020015f205f6101000a81548160ff02191690831515021790555060015f808981526020019081526020015f205f01805490506109579190611885565b81600201540361097e576001816004015f6101000a81548160ff0219169083151502179055505b50505050505050565b5f805f8481526020019081526020015f206002015f8381526020019081526020015f2060020154905092915050565b606060015f3373ffffffffffffffffffffffffffffffffffffffff1673ffffffffffffffffffffffffffffffffffffffff1681526020019081526020015f20805480602002602001604051908101604052809291908181526020018280548015610a3d57602002820191905f5260205f20905b815481526020019060010190808311610a29575b5050505050905090565b815f805b5f808481526020019081526020015f205f0180549050811015610afc573373ffffffffffffffffffffffffffffffffffffffff165f808581526020019081526020015f205f018281548110610aa357610aa26118f9565b5b905f5260205f20015f9054906101000a900473ffffffffffffffffffffffffffffffffffffffff1673ffffffffffffffffffffffffffffffffffffffff1603610aef5760019150610afc565b8080600101915050610a4b565b5080610b3d576040517f08c379a0000000000000000000000000000000000000000000000000000000008152600401610b3490611996565b60405180910390fd5b8383805f808481526020019081526020015f20600101541015610b95576040517f08c379a0000000000000000000000000000000000000000000000000000000008152600401610b8c9061183a565b60405180910390fd5b5f60035490505f805f8981526020019081526020015f206002015f8381526020019081526020015f20905033815f015f6101000a81548173ffffffffffffffffffffffffffffffffffffffff021916908373ffffffffffffffffffffffffffffffffffffffff16021790555086816001018190555060035f815480929190610c1c90611b7a565b919050555081883373ffffffffffffffffffffffffffffffffffffffff167f1f0d204a59639d21245dbaa239dfc9a6227aa86cb614bdda19843c52d155fcfa8a42604051610c6b929190611bc1565b60405180910390a45050505050505050565b805f805b5f808481526020019081526020015f205f0180549050811015610d32573373ffffffffffffffffffffffffffffffffffffffff165f808581526020019081526020015f205f018281548110610cd957610cd86118f9565b5b905f5260205f20015f9054906101000a900473ffffffffffffffffffffffffffffffffffffffff1673ffffffffffffffffffffffffffffffffffffffff1603610d255760019150610d32565b8080600101915050610c81565b5080610d73576040517f08c379a0000000000000000000000000000000000000000000000000000000008152600401610d6a90611996565b60405180910390fd5b345f808581526020019081526020015f206001015f828254610d959190611be8565b92505081905550505050565b60605f808381526020019081526020015f205f01805480602002602001604051908101604052809291908181526020018280548015610e3257602002820191905f5260205f20905b815f9054906101000a900473ffffffffffffffffffffffffffffffffffffffff1673ffffffffffffffffffffffffffffffffffffffff1681526020019060010190808311610de9575b50505050509050919050565b81816004600183839050610e529190611be8565b1115610e93576040517f08c379a0000000000000000000000000000000000000000000000000000000008152600401610e8a90611c65565b60405180910390fd5b5f5b82829050811015611028573373ffffffffffffffffffffffffffffffffffffffff16838383818110610eca57610ec96118f9565b5b9050602002016020810190610edf9190611cad565b73ffffffffffffffffffffffffffffffffffffffff1603610f35576040517f08c379a0000000000000000000000000000000000000000000000000000000008152600401610f2c90611d22565b60405180910390fd5b5f600182610f439190611be8565b90505b8383905081101561101a57838382818110610f6457610f636118f9565b5b9050602002016020810190610f799190611cad565b73ffffffffffffffffffffffffffffffffffffffff16848484818110610fa257610fa16118f9565b5b9050602002016020810190610fb79190611cad565b73ffffffffffffffffffffffffffffffffffffffff160361100d576040517f08c379a000000000000000000000000000000000000000000000000000000000815260040161100490611d22565b60405180910390fd5b8080600101915050610f46565b508080600101915050610e95565b505f60018585905061103a9190611be8565b67ffffffffffffffff81111561105357611052611d40565b5b6040519080825280602002602001820160405280156110815781602001602082028036833780820191505090505b5090503381868690508151811061109b5761109a6118f9565b5b602002602001019073ffffffffffffffffffffffffffffffffffffffff16908173ffffffffffffffffffffffffffffffffffffffff16815250505f60025490505f5b825181101561129757600183516110f49190611885565b8110156111715786868281811061110e5761110d6118f9565b5b90506020020160208101906111239190611cad565b838281518110611136576111356118f9565b5b602002602001019073ffffffffffffffffffffffffffffffffffffffff16908173ffffffffffffffffffffffffffffffffffffffff16815250505b600260015f858481518110611189576111886118f9565b5b602002602001015173ffffffffffffffffffffffffffffffffffffffff1673ffffffffffffffffffffffffffffffffffffffff1681526020019081526020015f2080549050111561120f576040517f08c379a000000000000000000000000000000000000000000000000000000000815260040161120690611ddd565b60405180910390fd5b60015f848381518110611225576112246118f9565b5b602002602001015173ffffffffffffffffffffffffffffffffffffffff1673ffffffffffffffffffffffffffffffffffffffff1681526020019081526020015f2082908060018154018082558091505060019003905f5260205f20015f909190919091505580806001019150506110dd565b50815f808381526020019081526020015f205f0190805190602001906112be929190611318565b5060025f8154809291906112d190611b7a565b9190505550807f1dfea57c7217d8ee2ef44253419f3a05acdf0e6dea69f12e9e2afa2e748e3c8c8342604051611308929190611dfb565b60405180910390a2505050505050565b828054828255905f5260205f2090810192821561138e579160200282015b8281111561138d578251825f6101000a81548173ffffffffffffffffffffffffffffffffffffffff021916908373ffffffffffffffffffffffffffffffffffffffff16021790555091602001919060010190611336565b5b50905061139b919061139f565b5090565b5b808211156113b6575f815f9055506001016113a0565b5090565b5f80fd5b5f80fd5b5f819050919050565b6113d4816113c2565b81146113de575f80fd5b50565b5f813590506113ef816113cb565b92915050565b5f6020828403121561140a576114096113ba565b5b5f611417848285016113e1565b91505092915050565b611429816113c2565b82525050565b5f6020820190506114425f830184611420565b92915050565b5f806040838503121561145e5761145d6113ba565b5b5f61146b858286016113e1565b925050602061147c858286016113e1565b9150509250929050565b5f81519050919050565b5f82825260208201905092915050565b5f819050602082019050919050565b6114b8816113c2565b82525050565b5f6114c983836114af565b60208301905092915050565b5f602082019050919050565b5f6114eb82611486565b6114f58185611490565b9350611500836114a0565b805f5b8381101561153057815161151788826114be565b9750611522836114d5565b925050600181019050611503565b5085935050505092915050565b5f6020820190508181035f83015261155581846114e1565b905092915050565b5f81519050919050565b5f82825260208201905092915050565b5f819050602082019050919050565b5f73ffffffffffffffffffffffffffffffffffffffff82169050919050565b5f6115af82611586565b9050919050565b6115bf816115a5565b82525050565b5f6115d083836115b6565b60208301905092915050565b5f602082019050919050565b5f6115f28261155d565b6115fc8185611567565b935061160783611577565b805f5b8381101561163757815161161e88826115c5565b9750611629836115dc565b92505060018101905061160a565b5085935050505092915050565b5f6020820190508181035f83015261165c81846115e8565b905092915050565b5f80fd5b5f80fd5b5f80fd5b5f8083601f84011261168557611684611664565b5b8235905067ffffffffffffffff8111156116a2576116a1611668565b5b6020830191508360208202830111156116be576116bd61166c565b5b9250929050565b5f80602083850312156116db576116da6113ba565b5b5f83013567ffffffffffffffff8111156116f8576116f76113be565b5b61170485828601611670565b92509250509250929050565b5f82825260208201905092915050565b7f796f7520646964206e6f742063726561746520746869732072657175657374005f82015250565b5f611754601f83611710565b915061175f82611720565b602082019050919050565b5f6020820190508181035f83015261178181611748565b9050919050565b7f746869732072657175657374206973206e6f7420617070726f766564000000005f82015250565b5f6117bc601c83611710565b91506117c782611788565b602082019050919050565b5f6020820190508181035f8301526117e9816117b0565b9050919050565b7f696e73756666696369656e742062616c616e63650000000000000000000000005f82015250565b5f611824601483611710565b915061182f826117f0565b602082019050919050565b5f6020820190508181035f83015261185181611818565b9050919050565b7f4e487b71000000000000000000000000000000000000000000000000000000005f52601160045260245ffd5b5f61188f826113c2565b915061189a836113c2565b92508282039050818111156118b2576118b1611858565b5b92915050565b5f81905092915050565b50565b5f6118d05f836118b8565b91506118db826118c2565b5f82019050919050565b5f6118ef826118c5565b9150819050919050565b7f4e487b71000000000000000000000000000000000000000000000000000000005f52603260045260245ffd5b7f796f7520617265206e6f7420616e206f776e6572206f662074686973206163635f8201527f6f756e7400000000000000000000000000000000000000000000000000000000602082015250565b5f611980602483611710565b915061198b82611926565b604082019050919050565b5f6020820190508181035f8301526119ad81611974565b9050919050565b7f74686973207265717565737420697320616c726561647920617070726f7665645f82015250565b5f6119e8602083611710565b91506119f3826119b4565b602082019050919050565b5f6020820190508181035f830152611a15816119dc565b9050919050565b7f796f752063616e6e6f7420617070726f766520746869732072657175657374005f82015250565b5f611a50601f83611710565b9150611a5b82611a1c565b602082019050919050565b5f6020820190508181035f830152611a7d81611a44565b9050919050565b7f74686973207265717565737420646f6573206e6f7420657869737400000000005f82015250565b5f611ab8601b83611710565b9150611ac382611a84565b602082019050919050565b5f6020820190508181035f830152611ae581611aac565b9050919050565b7f796f75206861766520616c726561647920617070726f766564207468697320725f8201527f6571756573740000000000000000000000000000000000000000000000000000602082015250565b5f611b46602683611710565b9150611b5182611aec565b604082019050919050565b5f6020820190508181035f830152611b7381611b3a565b9050919050565b5f611b84826113c2565b91507fffffffffffffffffffffffffffffffffffffffffffffffffffffffffffffffff8203611bb657611bb5611858565b5b600182019050919050565b5f604082019050611bd45f830185611420565b611be16020830184611420565b9392505050565b5f611bf2826113c2565b9150611bfd836113c2565b9250828201905080821115611c1557611c14611858565b5b92915050565b7f6d6178696d756d206f662034206f776e65727320706572206163636f756e74005f82015250565b5f611c4f601f83611710565b9150611c5a82611c1b565b602082019050919050565b5f6020820190508181035f830152611c7c81611c43565b9050919050565b611c8c816115a5565b8114611c96575f80fd5b50565b5f81359050611ca781611c83565b92915050565b5f60208284031215611cc257611cc16113ba565b5b5f611ccf84828501611c99565b91505092915050565b7f6e6f206475706c6963617465206f776e657273000000000000000000000000005f82015250565b5f611d0c601383611710565b9150611d1782611cd8565b602082019050919050565b5f6020820190508181035f830152611d3981611d00565b9050919050565b7f4e487b71000000000000000000000000000000000000000000000000000000005f52604160045260245ffd5b7f6561636820757365722063616e20686176652061206d6178206f6620332061635f8201527f636f756e74730000000000000000000000000000000000000000000000000000602082015250565b5f611dc7602683611710565b9150611dd282611d6d565b604082019050919050565b5f6020820190508181035f830152611df481611dbb565b9050919050565b5f6040820190508181035f830152611e1381856115e8565b9050611e226020830184611420565b939250505056fea2646970667358221220b2ed1e486ed5b7ce02b9e9dc465096e6309c0c3e109028f2680a0758abbdbee864736f6c634300081a0033",
					"opcodes": "PUSH1 0x80 PUSH1 0x40 MSTORE CALLVALUE DUP1 ISZERO PUSH1 0xE JUMPI PUSH0 DUP1 REVERT JUMPDEST POP PUSH2 0x1E5F DUP1 PUSH2 0x1C PUSH0 CODECOPY PUSH0 RETURN INVALID PUSH1 0x80 PUSH1 0x40 MSTORE PUSH1 0x4 CALLDATASIZE LT PUSH2 0x85 JUMPI PUSH0 CALLDATALOAD PUSH1 0xE0 SHR DUP1 PUSH4 0x8A48AC03 GT PUSH2 0x58 JUMPI DUP1 PUSH4 0x8A48AC03 EQ PUSH2 0x151 JUMPI DUP1 PUSH4 0xA52A6F9A EQ PUSH2 0x17B JUMPI DUP1 PUSH4 0xB6B55F25 EQ PUSH2 0x1A3 JUMPI DUP1 PUSH4 0xEE4525D5 EQ PUSH2 0x1BF JUMPI DUP1 PUSH4 0xEFF63433 EQ PUSH2 0x1FB JUMPI PUSH2 0x85 JUMP JUMPDEST DUP1 PUSH4 0x1E010439 EQ PUSH2 0x89 JUMPI DUP1 PUSH4 0x441A3E70 EQ PUSH2 0xC5 JUMPI DUP1 PUSH4 0x785E5531 EQ PUSH2 0xED JUMPI DUP1 PUSH4 0x867275A5 EQ PUSH2 0x115 JUMPI JUMPDEST PUSH0 DUP1 REVERT JUMPDEST CALLVALUE DUP1 ISZERO PUSH2 0x94 JUMPI PUSH0 DUP1 REVERT JUMPDEST POP PUSH2 0xAF PUSH1 0x4 DUP1 CALLDATASIZE SUB DUP2 ADD SWAP1 PUSH2 0xAA SWAP2 SWAP1 PUSH2 0x13F5 JUMP JUMPDEST PUSH2 0x223 JUMP JUMPDEST PUSH1 0x40 MLOAD PUSH2 0xBC SWAP2 SWAP1 PUSH2 0x142F JUMP JUMPDEST PUSH1 0x40 MLOAD DUP1 SWAP2 SUB SWAP1 RETURN JUMPDEST CALLVALUE DUP1 ISZERO PUSH2 0xD0 JUMPI PUSH0 DUP1 REVERT JUMPDEST POP PUSH2 0xEB PUSH1 0x4 DUP1 CALLDATASIZE SUB DUP2 ADD SWAP1 PUSH2 0xE6 SWAP2 SWAP1 PUSH2 0x1448 JUMP JUMPDEST PUSH2 0x23F JUMP JUMPDEST STOP JUMPDEST CALLVALUE DUP1 ISZERO PUSH2 0xF8 JUMPI PUSH0 DUP1 REVERT JUMPDEST POP PUSH2 0x113 PUSH1 0x4 DUP1 CALLDATASIZE SUB DUP2 ADD SWAP1 PUSH2 0x10E SWAP2 SWAP1 PUSH2 0x1448 JUMP JUMPDEST PUSH2 0x527 JUMP JUMPDEST STOP JUMPDEST CALLVALUE DUP1 ISZERO PUSH2 0x120 JUMPI PUSH0 DUP1 REVERT JUMPDEST POP PUSH2 0x13B PUSH1 0x4 DUP1 CALLDATASIZE SUB DUP2 ADD SWAP1 PUSH2 0x136 SWAP2 SWAP1 PUSH2 0x1448 JUMP JUMPDEST PUSH2 0x987 JUMP JUMPDEST PUSH1 0x40 MLOAD PUSH2 0x148 SWAP2 SWAP1 PUSH2 0x142F JUMP JUMPDEST PUSH1 0x40 MLOAD DUP1 SWAP2 SUB SWAP1 RETURN JUMPDEST CALLVALUE DUP1 ISZERO PUSH2 0x15C JUMPI PUSH0 DUP1 REVERT JUMPDEST POP PUSH2 0x165 PUSH2 0x9B6 JUMP JUMPDEST PUSH1 0x40 MLOAD PUSH2 0x172 SWAP2 SWAP1 PUSH2 0x153D JUMP JUMPDEST PUSH1 0x40 MLOAD DUP1 SWAP2 SUB SWAP1 RETURN JUMPDEST CALLVALUE DUP1 ISZERO PUSH2 0x186 JUMPI PUSH0 DUP1 REVERT JUMPDEST POP PUSH2 0x1A1 PUSH1 0x4 DUP1 CALLDATASIZE SUB DUP2 ADD SWAP1 PUSH2 0x19C SWAP2 SWAP1 PUSH2 0x1448 JUMP JUMPDEST PUSH2 0xA47 JUMP JUMPDEST STOP JUMPDEST PUSH2 0x1BD PUSH1 0x4 DUP1 CALLDATASIZE SUB DUP2 ADD SWAP1 PUSH2 0x1B8 SWAP2 SWAP1 PUSH2 0x13F5 JUMP JUMPDEST PUSH2 0xC7D JUMP JUMPDEST STOP JUMPDEST CALLVALUE DUP1 ISZERO PUSH2 0x1CA JUMPI PUSH0 DUP1 REVERT JUMPDEST POP PUSH2 0x1E5 PUSH1 0x4 DUP1 CALLDATASIZE SUB DUP2 ADD SWAP1 PUSH2 0x1E0 SWAP2 SWAP1 PUSH2 0x13F5 JUMP JUMPDEST PUSH2 0xDA1 JUMP JUMPDEST PUSH1 0x40 MLOAD PUSH2 0x1F2 SWAP2 SWAP1 PUSH2 0x1644 JUMP JUMPDEST PUSH1 0x40 MLOAD DUP1 SWAP2 SUB SWAP1 RETURN JUMPDEST CALLVALUE DUP1 ISZERO PUSH2 0x206 JUMPI PUSH0 DUP1 REVERT JUMPDEST POP PUSH2 0x221 PUSH1 0x4 DUP1 CALLDATASIZE SUB DUP2 ADD SWAP1 PUSH2 0x21C SWAP2 SWAP1 PUSH2 0x16C5 JUMP JUMPDEST PUSH2 0xE3E JUMP JUMPDEST STOP JUMPDEST PUSH0 DUP1 PUSH0 DUP4 DUP2 MSTORE PUSH1 0x20 ADD SWAP1 DUP2 MSTORE PUSH1 0x20 ADD PUSH0 KECCAK256 PUSH1 0x1 ADD SLOAD SWAP1 POP SWAP2 SWAP1 POP JUMP JUMPDEST DUP2 DUP2 CALLER PUSH20 0xFFFFFFFFFFFFFFFFFFFFFFFFFFFFFFFFFFFFFFFF AND PUSH0 DUP1 DUP5 DUP2 MSTORE PUSH1 0x20 ADD SWAP1 DUP2 MSTORE PUSH1 0x20 ADD PUSH0 KECCAK256 PUSH1 0x2 ADD PUSH0 DUP4 DUP2 MSTORE PUSH1 0x20 ADD SWAP1 DUP2 MSTORE PUSH1 0x20 ADD PUSH0 KECCAK256 PUSH0 ADD PUSH0 SWAP1 SLOAD SWAP1 PUSH2 0x100 EXP SWAP1 DIV PUSH20 0xFFFFFFFFFFFFFFFFFFFFFFFFFFFFFFFFFFFFFFFF AND PUSH20 0xFFFFFFFFFFFFFFFFFFFFFFFFFFFFFFFFFFFFFFFF AND EQ PUSH2 0x2F2 JUMPI PUSH1 0x40 MLOAD PUSH32 0x8C379A000000000000000000000000000000000000000000000000000000000 DUP2 MSTORE PUSH1 0x4 ADD PUSH2 0x2E9 SWAP1 PUSH2 0x176A JUMP JUMPDEST PUSH1 0x40 MLOAD DUP1 SWAP2 SUB SWAP1 REVERT JUMPDEST PUSH0 DUP1 DUP4 DUP2 MSTORE PUSH1 0x20 ADD SWAP1 DUP2 MSTORE PUSH1 0x20 ADD PUSH0 KECCAK256 PUSH1 0x2 ADD PUSH0 DUP3 DUP2 MSTORE PUSH1 0x20 ADD SWAP1 DUP2 MSTORE PUSH1 0x20 ADD PUSH0 KECCAK256 PUSH1 0x4 ADD PUSH0 SWAP1 SLOAD SWAP1 PUSH2 0x100 EXP SWAP1 DIV PUSH1 0xFF AND PUSH2 0x363 JUMPI PUSH1 0x40 MLOAD PUSH32 0x8C379A000000000000000000000000000000000000000000000000000000000 DUP2 MSTORE PUSH1 0x4 ADD PUSH2 0x35A SWAP1 PUSH2 0x17D2 JUMP JUMPDEST PUSH1 0x40 MLOAD DUP1 SWAP2 SUB SWAP1 REVERT JUMPDEST PUSH0 DUP1 PUSH0 DUP7 DUP2 MSTORE PUSH1 0x20 ADD SWAP1 DUP2 MSTORE PUSH1 0x20 ADD PUSH0 KECCAK256 PUSH1 0x2 ADD PUSH0 DUP6 DUP2 MSTORE PUSH1 0x20 ADD SWAP1 DUP2 MSTORE PUSH1 0x20 ADD PUSH0 KECCAK256 PUSH1 0x1 ADD SLOAD SWAP1 POP DUP1 PUSH0 DUP1 DUP8 DUP2 MSTORE PUSH1 0x20 ADD SWAP1 DUP2 MSTORE PUSH1 0x20 ADD PUSH0 KECCAK256 PUSH1 0x1 ADD SLOAD LT ISZERO PUSH2 0x3E2 JUMPI PUSH1 0x40 MLOAD PUSH32 0x8C379A000000000000000000000000000000000000000000000000000000000 DUP2 MSTORE PUSH1 0x4 ADD PUSH2 0x3D9 SWAP1 PUSH2 0x183A JUMP JUMPDEST PUSH1 0x40 MLOAD DUP1 SWAP2 SUB SWAP1 REVERT JUMPDEST DUP1 PUSH0 DUP1 DUP8 DUP2 MSTORE PUSH1 0x20 ADD SWAP1 DUP2 MSTORE PUSH1 0x20 ADD PUSH0 KECCAK256 PUSH1 0x1 ADD PUSH0 DUP3 DUP3 SLOAD PUSH2 0x404 SWAP2 SWAP1 PUSH2 0x1885 JUMP JUMPDEST SWAP3 POP POP DUP2 SWAP1 SSTORE POP PUSH0 DUP1 DUP7 DUP2 MSTORE PUSH1 0x20 ADD SWAP1 DUP2 MSTORE PUSH1 0x20 ADD PUSH0 KECCAK256 PUSH1 0x2 ADD PUSH0 DUP6 DUP2 MSTORE PUSH1 0x20 ADD SWAP1 DUP2 MSTORE PUSH1 0x20 ADD PUSH0 KECCAK256 PUSH0 DUP1 DUP3 ADD PUSH0 PUSH2 0x100 EXP DUP2 SLOAD SWAP1 PUSH20 0xFFFFFFFFFFFFFFFFFFFFFFFFFFFFFFFFFFFFFFFF MUL NOT AND SWAP1 SSTORE PUSH1 0x1 DUP3 ADD PUSH0 SWAP1 SSTORE PUSH1 0x2 DUP3 ADD PUSH0 SWAP1 SSTORE PUSH1 0x4 DUP3 ADD PUSH0 PUSH2 0x100 EXP DUP2 SLOAD SWAP1 PUSH1 0xFF MUL NOT AND SWAP1 SSTORE POP POP PUSH0 CALLER PUSH20 0xFFFFFFFFFFFFFFFFFFFFFFFFFFFFFFFFFFFFFFFF AND DUP3 PUSH1 0x40 MLOAD PUSH2 0x49B SWAP1 PUSH2 0x18E5 JUMP JUMPDEST PUSH0 PUSH1 0x40 MLOAD DUP1 DUP4 SUB DUP2 DUP6 DUP8 GAS CALL SWAP3 POP POP POP RETURNDATASIZE DUP1 PUSH0 DUP2 EQ PUSH2 0x4D5 JUMPI PUSH1 0x40 MLOAD SWAP2 POP PUSH1 0x1F NOT PUSH1 0x3F RETURNDATASIZE ADD AND DUP3 ADD PUSH1 0x40 MSTORE RETURNDATASIZE DUP3 MSTORE RETURNDATASIZE PUSH0 PUSH1 0x20 DUP5 ADD RETURNDATACOPY PUSH2 0x4DA JUMP JUMPDEST PUSH1 0x60 SWAP2 POP JUMPDEST POP POP SWAP1 POP DUP1 PUSH2 0x4E7 JUMPI PUSH0 DUP1 REVERT JUMPDEST DUP5 PUSH32 0x56CA301A9219608C91E7BCEE90E083C19671D2CDCC96752C7AF291CEE5F9C8C8 TIMESTAMP PUSH1 0x40 MLOAD PUSH2 0x517 SWAP2 SWAP1 PUSH2 0x142F JUMP JUMPDEST PUSH1 0x40 MLOAD DUP1 SWAP2 SUB SWAP1 LOG2 POP POP POP POP POP POP JUMP JUMPDEST DUP2 PUSH0 DUP1 JUMPDEST PUSH0 DUP1 DUP5 DUP2 MSTORE PUSH1 0x20 ADD SWAP1 DUP2 MSTORE PUSH1 0x20 ADD PUSH0 KECCAK256 PUSH0 ADD DUP1 SLOAD SWAP1 POP DUP2 LT ISZERO PUSH2 0x5DC JUMPI CALLER PUSH20 0xFFFFFFFFFFFFFFFFFFFFFFFFFFFFFFFFFFFFFFFF AND PUSH0 DUP1 DUP6 DUP2 MSTORE PUSH1 0x20 ADD SWAP1 DUP2 MSTORE PUSH1 0x20 ADD PUSH0 KECCAK256 PUSH0 ADD DUP3 DUP2 SLOAD DUP2 LT PUSH2 0x583 JUMPI PUSH2 0x582 PUSH2 0x18F9 JUMP JUMPDEST JUMPDEST SWAP1 PUSH0 MSTORE PUSH1 0x20 PUSH0 KECCAK256 ADD PUSH0 SWAP1 SLOAD SWAP1 PUSH2 0x100 EXP SWAP1 DIV PUSH20 0xFFFFFFFFFFFFFFFFFFFFFFFFFFFFFFFFFFFFFFFF AND PUSH20 0xFFFFFFFFFFFFFFFFFFFFFFFFFFFFFFFFFFFFFFFF AND SUB PUSH2 0x5CF JUMPI PUSH1 0x1 SWAP2 POP PUSH2 0x5DC JUMP JUMPDEST DUP1 DUP1 PUSH1 0x1 ADD SWAP2 POP POP PUSH2 0x52B JUMP JUMPDEST POP DUP1 PUSH2 0x61D JUMPI PUSH1 0x40 MLOAD PUSH32 0x8C379A000000000000000000000000000000000000000000000000000000000 DUP2 MSTORE PUSH1 0x4 ADD PUSH2 0x614 SWAP1 PUSH2 0x1996 JUMP JUMPDEST PUSH1 0x40 MLOAD DUP1 SWAP2 SUB SWAP1 REVERT JUMPDEST DUP4 DUP4 PUSH0 DUP1 DUP4 DUP2 MSTORE PUSH1 0x20 ADD SWAP1 DUP2 MSTORE PUSH1 0x20 ADD PUSH0 KECCAK256 PUSH1 0x2 ADD PUSH0 DUP3 DUP2 MSTORE PUSH1 0x20 ADD SWAP1 DUP2 MSTORE PUSH1 0x20 ADD PUSH0 KECCAK256 PUSH1 0x4 ADD PUSH0 SWAP1 SLOAD SWAP1 PUSH2 0x100 EXP SWAP1 DIV PUSH1 0xFF AND ISZERO PUSH2 0x691 JUMPI PUSH1 0x40 MLOAD PUSH32 0x8C379A000000000000000000000000000000000000000000000000000000000 DUP2 MSTORE PUSH1 0x4 ADD PUSH2 0x688 SWAP1 PUSH2 0x19FE JUMP JUMPDEST PUSH1 0x40 MLOAD DUP1 SWAP2 SUB SWAP1 REVERT JUMPDEST CALLER PUSH20 0xFFFFFFFFFFFFFFFFFFFFFFFFFFFFFFFFFFFFFFFF AND PUSH0 DUP1 DUP5 DUP2 MSTORE PUSH1 0x20 ADD SWAP1 DUP2 MSTORE PUSH1 0x20 ADD PUSH0 KECCAK256 PUSH1 0x2 ADD PUSH0 DUP4 DUP2 MSTORE PUSH1 0x20 ADD SWAP1 DUP2 MSTORE PUSH1 0x20 ADD PUSH0 KECCAK256 PUSH0 ADD PUSH0 SWAP1 SLOAD SWAP1 PUSH2 0x100 EXP SWAP1 DIV PUSH20 0xFFFFFFFFFFFFFFFFFFFFFFFFFFFFFFFFFFFFFFFF AND PUSH20 0xFFFFFFFFFFFFFFFFFFFFFFFFFFFFFFFFFFFFFFFF AND SUB PUSH2 0x742 JUMPI PUSH1 0x40 MLOAD PUSH32 0x8C379A000000000000000000000000000000000000000000000000000000000 DUP2 MSTORE PUSH1 0x4 ADD PUSH2 0x739 SWAP1 PUSH2 0x1A66 JUMP JUMPDEST PUSH1 0x40 MLOAD DUP1 SWAP2 SUB SWAP1 REVERT JUMPDEST PUSH0 PUSH20 0xFFFFFFFFFFFFFFFFFFFFFFFFFFFFFFFFFFFFFFFF AND PUSH0 DUP1 DUP5 DUP2 MSTORE PUSH1 0x20 ADD SWAP1 DUP2 MSTORE PUSH1 0x20 ADD PUSH0 KECCAK256 PUSH1 0x2 ADD PUSH0 DUP4 DUP2 MSTORE PUSH1 0x20 ADD SWAP1 DUP2 MSTORE PUSH1 0x20 ADD PUSH0 KECCAK256 PUSH0 ADD PUSH0 SWAP1 SLOAD SWAP1 PUSH2 0x100 EXP SWAP1 DIV PUSH20 0xFFFFFFFFFFFFFFFFFFFFFFFFFFFFFFFFFFFFFFFF AND PUSH20 0xFFFFFFFFFFFFFFFFFFFFFFFFFFFFFFFFFFFFFFFF AND SUB PUSH2 0x7F3 JUMPI PUSH1 0x40 MLOAD PUSH32 0x8C379A000000000000000000000000000000000000000000000000000000000 DUP2 MSTORE PUSH1 0x4 ADD PUSH2 0x7EA SWAP1 PUSH2 0x1ACE JUMP JUMPDEST PUSH1 0x40 MLOAD DUP1 SWAP2 SUB SWAP1 REVERT JUMPDEST PUSH0 DUP1 DUP4 DUP2 MSTORE PUSH1 0x20 ADD SWAP1 DUP2 MSTORE PUSH1 0x20 ADD PUSH0 KECCAK256 PUSH1 0x2 ADD PUSH0 DUP3 DUP2 MSTORE PUSH1 0x20 ADD SWAP1 DUP2 MSTORE PUSH1 0x20 ADD PUSH0 KECCAK256 PUSH1 0x3 ADD PUSH0 CALLER PUSH20 0xFFFFFFFFFFFFFFFFFFFFFFFFFFFFFFFFFFFFFFFF AND PUSH20 0xFFFFFFFFFFFFFFFFFFFFFFFFFFFFFFFFFFFFFFFF AND DUP2 MSTORE PUSH1 0x20 ADD SWAP1 DUP2 MSTORE PUSH1 0x20 ADD PUSH0 KECCAK256 PUSH0 SWAP1 SLOAD SWAP1 PUSH2 0x100 EXP SWAP1 DIV PUSH1 0xFF AND ISZERO PUSH2 0x8A0 JUMPI PUSH1 0x40 MLOAD PUSH32 0x8C379A000000000000000000000000000000000000000000000000000000000 DUP2 MSTORE PUSH1 0x4 ADD PUSH2 0x897 SWAP1 PUSH2 0x1B5C JUMP JUMPDEST PUSH1 0x40 MLOAD DUP1 SWAP2 SUB SWAP1 REVERT JUMPDEST PUSH0 DUP1 PUSH0 DUP9 DUP2 MSTORE PUSH1 0x20 ADD SWAP1 DUP2 MSTORE PUSH1 0x20 ADD PUSH0 KECCAK256 PUSH1 0x2 ADD PUSH0 DUP8 DUP2 MSTORE PUSH1 0x20 ADD SWAP1 DUP2 MSTORE PUSH1 0x20 ADD PUSH0 KECCAK256 SWAP1 POP DUP1 PUSH1 0x2 ADD PUSH0 DUP2 SLOAD DUP1 SWAP3 SWAP2 SWAP1 PUSH2 0x8D9 SWAP1 PUSH2 0x1B7A JUMP JUMPDEST SWAP2 SWAP1 POP SSTORE POP PUSH1 0x1 DUP2 PUSH1 0x3 ADD PUSH0 CALLER PUSH20 0xFFFFFFFFFFFFFFFFFFFFFFFFFFFFFFFFFFFFFFFF AND PUSH20 0xFFFFFFFFFFFFFFFFFFFFFFFFFFFFFFFFFFFFFFFF AND DUP2 MSTORE PUSH1 0x20 ADD SWAP1 DUP2 MSTORE PUSH1 0x20 ADD PUSH0 KECCAK256 PUSH0 PUSH2 0x100 EXP DUP2 SLOAD DUP2 PUSH1 0xFF MUL NOT AND SWAP1 DUP4 ISZERO ISZERO MUL OR SWAP1 SSTORE POP PUSH1 0x1 PUSH0 DUP1 DUP10 DUP2 MSTORE PUSH1 0x20 ADD SWAP1 DUP2 MSTORE PUSH1 0x20 ADD PUSH0 KECCAK256 PUSH0 ADD DUP1 SLOAD SWAP1 POP PUSH2 0x957 SWAP2 SWAP1 PUSH2 0x1885 JUMP JUMPDEST DUP2 PUSH1 0x2 ADD SLOAD SUB PUSH2 0x97E JUMPI PUSH1 0x1 DUP2 PUSH1 0x4 ADD PUSH0 PUSH2 0x100 EXP DUP2 SLOAD DUP2 PUSH1 0xFF MUL NOT AND SWAP1 DUP4 ISZERO ISZERO MUL OR SWAP1 SSTORE POP JUMPDEST POP POP POP POP POP POP POP JUMP JUMPDEST PUSH0 DUP1 PUSH0 DUP5 DUP2 MSTORE PUSH1 0x20 ADD SWAP1 DUP2 MSTORE PUSH1 0x20 ADD PUSH0 KECCAK256 PUSH1 0x2 ADD PUSH0 DUP4 DUP2 MSTORE PUSH1 0x20 ADD SWAP1 DUP2 MSTORE PUSH1 0x20 ADD PUSH0 KECCAK256 PUSH1 0x2 ADD SLOAD SWAP1 POP SWAP3 SWAP2 POP POP JUMP JUMPDEST PUSH1 0x60 PUSH1 0x1 PUSH0 CALLER PUSH20 0xFFFFFFFFFFFFFFFFFFFFFFFFFFFFFFFFFFFFFFFF AND PUSH20 0xFFFFFFFFFFFFFFFFFFFFFFFFFFFFFFFFFFFFFFFF AND DUP2 MSTORE PUSH1 0x20 ADD SWAP1 DUP2 MSTORE PUSH1 0x20 ADD PUSH0 KECCAK256 DUP1 SLOAD DUP1 PUSH1 0x20 MUL PUSH1 0x20 ADD PUSH1 0x40 MLOAD SWAP1 DUP2 ADD PUSH1 0x40 MSTORE DUP1 SWAP3 SWAP2 SWAP1 DUP2 DUP2 MSTORE PUSH1 0x20 ADD DUP3 DUP1 SLOAD DUP1 ISZERO PUSH2 0xA3D JUMPI PUSH1 0x20 MUL DUP3 ADD SWAP2 SWAP1 PUSH0 MSTORE PUSH1 0x20 PUSH0 KECCAK256 SWAP1 JUMPDEST DUP2 SLOAD DUP2 MSTORE PUSH1 0x20 ADD SWAP1 PUSH1 0x1 ADD SWAP1 DUP1 DUP4 GT PUSH2 0xA29 JUMPI JUMPDEST POP POP POP POP POP SWAP1 POP SWAP1 JUMP JUMPDEST DUP2 PUSH0 DUP1 JUMPDEST PUSH0 DUP1 DUP5 DUP2 MSTORE PUSH1 0x20 ADD SWAP1 DUP2 MSTORE PUSH1 0x20 ADD PUSH0 KECCAK256 PUSH0 ADD DUP1 SLOAD SWAP1 POP DUP2 LT ISZERO PUSH2 0xAFC JUMPI CALLER PUSH20 0xFFFFFFFFFFFFFFFFFFFFFFFFFFFFFFFFFFFFFFFF AND PUSH0 DUP1 DUP6 DUP2 MSTORE PUSH1 0x20 ADD SWAP1 DUP2 MSTORE PUSH1 0x20 ADD PUSH0 KECCAK256 PUSH0 ADD DUP3 DUP2 SLOAD DUP2 LT PUSH2 0xAA3 JUMPI PUSH2 0xAA2 PUSH2 0x18F9 JUMP JUMPDEST JUMPDEST SWAP1 PUSH0 MSTORE PUSH1 0x20 PUSH0 KECCAK256 ADD PUSH0 SWAP1 SLOAD SWAP1 PUSH2 0x100 EXP SWAP1 DIV PUSH20 0xFFFFFFFFFFFFFFFFFFFFFFFFFFFFFFFFFFFFFFFF AND PUSH20 0xFFFFFFFFFFFFFFFFFFFFFFFFFFFFFFFFFFFFFFFF AND SUB PUSH2 0xAEF JUMPI PUSH1 0x1 SWAP2 POP PUSH2 0xAFC JUMP JUMPDEST DUP1 DUP1 PUSH1 0x1 ADD SWAP2 POP POP PUSH2 0xA4B JUMP JUMPDEST POP DUP1 PUSH2 0xB3D JUMPI PUSH1 0x40 MLOAD PUSH32 0x8C379A000000000000000000000000000000000000000000000000000000000 DUP2 MSTORE PUSH1 0x4 ADD PUSH2 0xB34 SWAP1 PUSH2 0x1996 JUMP JUMPDEST PUSH1 0x40 MLOAD DUP1 SWAP2 SUB SWAP1 REVERT JUMPDEST DUP4 DUP4 DUP1 PUSH0 DUP1 DUP5 DUP2 MSTORE PUSH1 0x20 ADD SWAP1 DUP2 MSTORE PUSH1 0x20 ADD PUSH0 KECCAK256 PUSH1 0x1 ADD SLOAD LT ISZERO PUSH2 0xB95 JUMPI PUSH1 0x40 MLOAD PUSH32 0x8C379A000000000000000000000000000000000000000000000000000000000 DUP2 MSTORE PUSH1 0x4 ADD PUSH2 0xB8C SWAP1 PUSH2 0x183A JUMP JUMPDEST PUSH1 0x40 MLOAD DUP1 SWAP2 SUB SWAP1 REVERT JUMPDEST PUSH0 PUSH1 0x3 SLOAD SWAP1 POP PUSH0 DUP1 PUSH0 DUP10 DUP2 MSTORE PUSH1 0x20 ADD SWAP1 DUP2 MSTORE PUSH1 0x20 ADD PUSH0 KECCAK256 PUSH1 0x2 ADD PUSH0 DUP4 DUP2 MSTORE PUSH1 0x20 ADD SWAP1 DUP2 MSTORE PUSH1 0x20 ADD PUSH0 KECCAK256 SWAP1 POP CALLER DUP2 PUSH0 ADD PUSH0 PUSH2 0x100 EXP DUP2 SLOAD DUP2 PUSH20 0xFFFFFFFFFFFFFFFFFFFFFFFFFFFFFFFFFFFFFFFF MUL NOT AND SWAP1 DUP4 PUSH20 0xFFFFFFFFFFFFFFFFFFFFFFFFFFFFFFFFFFFFFFFF AND MUL OR SWAP1 SSTORE POP DUP7 DUP2 PUSH1 0x1 ADD DUP2 SWAP1 SSTORE POP PUSH1 0x3 PUSH0 DUP2 SLOAD DUP1 SWAP3 SWAP2 SWAP1 PUSH2 0xC1C SWAP1 PUSH2 0x1B7A JUMP JUMPDEST SWAP2 SWAP1 POP SSTORE POP DUP2 DUP9 CALLER PUSH20 0xFFFFFFFFFFFFFFFFFFFFFFFFFFFFFFFFFFFFFFFF AND PUSH32 0x1F0D204A59639D21245DBAA239DFC9A6227AA86CB614BDDA19843C52D155FCFA DUP11 TIMESTAMP PUSH1 0x40 MLOAD PUSH2 0xC6B SWAP3 SWAP2 SWAP1 PUSH2 0x1BC1 JUMP JUMPDEST PUSH1 0x40 MLOAD DUP1 SWAP2 SUB SWAP1 LOG4 POP POP POP POP POP POP POP POP JUMP JUMPDEST DUP1 PUSH0 DUP1 JUMPDEST PUSH0 DUP1 DUP5 DUP2 MSTORE PUSH1 0x20 ADD SWAP1 DUP2 MSTORE PUSH1 0x20 ADD PUSH0 KECCAK256 PUSH0 ADD DUP1 SLOAD SWAP1 POP DUP2 LT ISZERO PUSH2 0xD32 JUMPI CALLER PUSH20 0xFFFFFFFFFFFFFFFFFFFFFFFFFFFFFFFFFFFFFFFF AND PUSH0 DUP1 DUP6 DUP2 MSTORE PUSH1 0x20 ADD SWAP1 DUP2 MSTORE PUSH1 0x20 ADD PUSH0 KECCAK256 PUSH0 ADD DUP3 DUP2 SLOAD DUP2 LT PUSH2 0xCD9 JUMPI PUSH2 0xCD8 PUSH2 0x18F9 JUMP JUMPDEST JUMPDEST SWAP1 PUSH0 MSTORE PUSH1 0x20 PUSH0 KECCAK256 ADD PUSH0 SWAP1 SLOAD SWAP1 PUSH2 0x100 EXP SWAP1 DIV PUSH20 0xFFFFFFFFFFFFFFFFFFFFFFFFFFFFFFFFFFFFFFFF AND PUSH20 0xFFFFFFFFFFFFFFFFFFFFFFFFFFFFFFFFFFFFFFFF AND SUB PUSH2 0xD25 JUMPI PUSH1 0x1 SWAP2 POP PUSH2 0xD32 JUMP JUMPDEST DUP1 DUP1 PUSH1 0x1 ADD SWAP2 POP POP PUSH2 0xC81 JUMP JUMPDEST POP DUP1 PUSH2 0xD73 JUMPI PUSH1 0x40 MLOAD PUSH32 0x8C379A000000000000000000000000000000000000000000000000000000000 DUP2 MSTORE PUSH1 0x4 ADD PUSH2 0xD6A SWAP1 PUSH2 0x1996 JUMP JUMPDEST PUSH1 0x40 MLOAD DUP1 SWAP2 SUB SWAP1 REVERT JUMPDEST CALLVALUE PUSH0 DUP1 DUP6 DUP2 MSTORE PUSH1 0x20 ADD SWAP1 DUP2 MSTORE PUSH1 0x20 ADD PUSH0 KECCAK256 PUSH1 0x1 ADD PUSH0 DUP3 DUP3 SLOAD PUSH2 0xD95 SWAP2 SWAP1 PUSH2 0x1BE8 JUMP JUMPDEST SWAP3 POP POP DUP2 SWAP1 SSTORE POP POP POP POP JUMP JUMPDEST PUSH1 0x60 PUSH0 DUP1 DUP4 DUP2 MSTORE PUSH1 0x20 ADD SWAP1 DUP2 MSTORE PUSH1 0x20 ADD PUSH0 KECCAK256 PUSH0 ADD DUP1 SLOAD DUP1 PUSH1 0x20 MUL PUSH1 0x20 ADD PUSH1 0x40 MLOAD SWAP1 DUP2 ADD PUSH1 0x40 MSTORE DUP1 SWAP3 SWAP2 SWAP1 DUP2 DUP2 MSTORE PUSH1 0x20 ADD DUP3 DUP1 SLOAD DUP1 ISZERO PUSH2 0xE32 JUMPI PUSH1 0x20 MUL DUP3 ADD SWAP2 SWAP1 PUSH0 MSTORE PUSH1 0x20 PUSH0 KECCAK256 SWAP1 JUMPDEST DUP2 PUSH0 SWAP1 SLOAD SWAP1 PUSH2 0x100 EXP SWAP1 DIV PUSH20 0xFFFFFFFFFFFFFFFFFFFFFFFFFFFFFFFFFFFFFFFF AND PUSH20 0xFFFFFFFFFFFFFFFFFFFFFFFFFFFFFFFFFFFFFFFF AND DUP2 MSTORE PUSH1 0x20 ADD SWAP1 PUSH1 0x1 ADD SWAP1 DUP1 DUP4 GT PUSH2 0xDE9 JUMPI JUMPDEST POP POP POP POP POP SWAP1 POP SWAP2 SWAP1 POP JUMP JUMPDEST DUP2 DUP2 PUSH1 0x4 PUSH1 0x1 DUP4 DUP4 SWAP1 POP PUSH2 0xE52 SWAP2 SWAP1 PUSH2 0x1BE8 JUMP JUMPDEST GT ISZERO PUSH2 0xE93 JUMPI PUSH1 0x40 MLOAD PUSH32 0x8C379A000000000000000000000000000000000000000000000000000000000 DUP2 MSTORE PUSH1 0x4 ADD PUSH2 0xE8A SWAP1 PUSH2 0x1C65 JUMP JUMPDEST PUSH1 0x40 MLOAD DUP1 SWAP2 SUB SWAP1 REVERT JUMPDEST PUSH0 JUMPDEST DUP3 DUP3 SWAP1 POP DUP2 LT ISZERO PUSH2 0x1028 JUMPI CALLER PUSH20 0xFFFFFFFFFFFFFFFFFFFFFFFFFFFFFFFFFFFFFFFF AND DUP4 DUP4 DUP4 DUP2 DUP2 LT PUSH2 0xECA JUMPI PUSH2 0xEC9 PUSH2 0x18F9 JUMP JUMPDEST JUMPDEST SWAP1 POP PUSH1 0x20 MUL ADD PUSH1 0x20 DUP2 ADD SWAP1 PUSH2 0xEDF SWAP2 SWAP1 PUSH2 0x1CAD JUMP JUMPDEST PUSH20 0xFFFFFFFFFFFFFFFFFFFFFFFFFFFFFFFFFFFFFFFF AND SUB PUSH2 0xF35 JUMPI PUSH1 0x40 MLOAD PUSH32 0x8C379A000000000000000000000000000000000000000000000000000000000 DUP2 MSTORE PUSH1 0x4 ADD PUSH2 0xF2C SWAP1 PUSH2 0x1D22 JUMP JUMPDEST PUSH1 0x40 MLOAD DUP1 SWAP2 SUB SWAP1 REVERT JUMPDEST PUSH0 PUSH1 0x1 DUP3 PUSH2 0xF43 SWAP2 SWAP1 PUSH2 0x1BE8 JUMP JUMPDEST SWAP1 POP JUMPDEST DUP4 DUP4 SWAP1 POP DUP2 LT ISZERO PUSH2 0x101A JUMPI DUP4 DUP4 DUP3 DUP2 DUP2 LT PUSH2 0xF64 JUMPI PUSH2 0xF63 PUSH2 0x18F9 JUMP JUMPDEST JUMPDEST SWAP1 POP PUSH1 0x20 MUL ADD PUSH1 0x20 DUP2 ADD SWAP1 PUSH2 0xF79 SWAP2 SWAP1 PUSH2 0x1CAD JUMP JUMPDEST PUSH20 0xFFFFFFFFFFFFFFFFFFFFFFFFFFFFFFFFFFFFFFFF AND DUP5 DUP5 DUP5 DUP2 DUP2 LT PUSH2 0xFA2 JUMPI PUSH2 0xFA1 PUSH2 0x18F9 JUMP JUMPDEST JUMPDEST SWAP1 POP PUSH1 0x20 MUL ADD PUSH1 0x20 DUP2 ADD SWAP1 PUSH2 0xFB7 SWAP2 SWAP1 PUSH2 0x1CAD JUMP JUMPDEST PUSH20 0xFFFFFFFFFFFFFFFFFFFFFFFFFFFFFFFFFFFFFFFF AND SUB PUSH2 0x100D JUMPI PUSH1 0x40 MLOAD PUSH32 0x8C379A000000000000000000000000000000000000000000000000000000000 DUP2 MSTORE PUSH1 0x4 ADD PUSH2 0x1004 SWAP1 PUSH2 0x1D22 JUMP JUMPDEST PUSH1 0x40 MLOAD DUP1 SWAP2 SUB SWAP1 REVERT JUMPDEST DUP1 DUP1 PUSH1 0x1 ADD SWAP2 POP POP PUSH2 0xF46 JUMP JUMPDEST POP DUP1 DUP1 PUSH1 0x1 ADD SWAP2 POP POP PUSH2 0xE95 JUMP JUMPDEST POP PUSH0 PUSH1 0x1 DUP6 DUP6 SWAP1 POP PUSH2 0x103A SWAP2 SWAP1 PUSH2 0x1BE8 JUMP JUMPDEST PUSH8 0xFFFFFFFFFFFFFFFF DUP2 GT ISZERO PUSH2 0x1053 JUMPI PUSH2 0x1052 PUSH2 0x1D40 JUMP JUMPDEST JUMPDEST PUSH1 0x40 MLOAD SWAP1 DUP1 DUP3 MSTORE DUP1 PUSH1 0x20 MUL PUSH1 0x20 ADD DUP3 ADD PUSH1 0x40 MSTORE DUP1 ISZERO PUSH2 0x1081 JUMPI DUP2 PUSH1 0x20 ADD PUSH1 0x20 DUP3 MUL DUP1 CALLDATASIZE DUP4 CALLDATACOPY DUP1 DUP3 ADD SWAP2 POP POP SWAP1 POP JUMPDEST POP SWAP1 POP CALLER DUP2 DUP7 DUP7 SWAP1 POP DUP2 MLOAD DUP2 LT PUSH2 0x109B JUMPI PUSH2 0x109A PUSH2 0x18F9 JUMP JUMPDEST JUMPDEST PUSH1 0x20 MUL PUSH1 0x20 ADD ADD SWAP1 PUSH20 0xFFFFFFFFFFFFFFFFFFFFFFFFFFFFFFFFFFFFFFFF AND SWAP1 DUP2 PUSH20 0xFFFFFFFFFFFFFFFFFFFFFFFFFFFFFFFFFFFFFFFF AND DUP2 MSTORE POP POP PUSH0 PUSH1 0x2 SLOAD SWAP1 POP PUSH0 JUMPDEST DUP3 MLOAD DUP2 LT ISZERO PUSH2 0x1297 JUMPI PUSH1 0x1 DUP4 MLOAD PUSH2 0x10F4 SWAP2 SWAP1 PUSH2 0x1885 JUMP JUMPDEST DUP2 LT ISZERO PUSH2 0x1171 JUMPI DUP7 DUP7 DUP3 DUP2 DUP2 LT PUSH2 0x110E JUMPI PUSH2 0x110D PUSH2 0x18F9 JUMP JUMPDEST JUMPDEST SWAP1 POP PUSH1 0x20 MUL ADD PUSH1 0x20 DUP2 ADD SWAP1 PUSH2 0x1123 SWAP2 SWAP1 PUSH2 0x1CAD JUMP JUMPDEST DUP4 DUP3 DUP2 MLOAD DUP2 LT PUSH2 0x1136 JUMPI PUSH2 0x1135 PUSH2 0x18F9 JUMP JUMPDEST JUMPDEST PUSH1 0x20 MUL PUSH1 0x20 ADD ADD SWAP1 PUSH20 0xFFFFFFFFFFFFFFFFFFFFFFFFFFFFFFFFFFFFFFFF AND SWAP1 DUP2 PUSH20 0xFFFFFFFFFFFFFFFFFFFFFFFFFFFFFFFFFFFFFFFF AND DUP2 MSTORE POP POP JUMPDEST PUSH1 0x2 PUSH1 0x1 PUSH0 DUP6 DUP5 DUP2 MLOAD DUP2 LT PUSH2 0x1189 JUMPI PUSH2 0x1188 PUSH2 0x18F9 JUMP JUMPDEST JUMPDEST PUSH1 0x20 MUL PUSH1 0x20 ADD ADD MLOAD PUSH20 0xFFFFFFFFFFFFFFFFFFFFFFFFFFFFFFFFFFFFFFFF AND PUSH20 0xFFFFFFFFFFFFFFFFFFFFFFFFFFFFFFFFFFFFFFFF AND DUP2 MSTORE PUSH1 0x20 ADD SWAP1 DUP2 MSTORE PUSH1 0x20 ADD PUSH0 KECCAK256 DUP1 SLOAD SWAP1 POP GT ISZERO PUSH2 0x120F JUMPI PUSH1 0x40 MLOAD PUSH32 0x8C379A000000000000000000000000000000000000000000000000000000000 DUP2 MSTORE PUSH1 0x4 ADD PUSH2 0x1206 SWAP1 PUSH2 0x1DDD JUMP JUMPDEST PUSH1 0x40 MLOAD DUP1 SWAP2 SUB SWAP1 REVERT JUMPDEST PUSH1 0x1 PUSH0 DUP5 DUP4 DUP2 MLOAD DUP2 LT PUSH2 0x1225 JUMPI PUSH2 0x1224 PUSH2 0x18F9 JUMP JUMPDEST JUMPDEST PUSH1 0x20 MUL PUSH1 0x20 ADD ADD MLOAD PUSH20 0xFFFFFFFFFFFFFFFFFFFFFFFFFFFFFFFFFFFFFFFF AND PUSH20 0xFFFFFFFFFFFFFFFFFFFFFFFFFFFFFFFFFFFFFFFF AND DUP2 MSTORE PUSH1 0x20 ADD SWAP1 DUP2 MSTORE PUSH1 0x20 ADD PUSH0 KECCAK256 DUP3 SWAP1 DUP1 PUSH1 0x1 DUP2 SLOAD ADD DUP1 DUP3 SSTORE DUP1 SWAP2 POP POP PUSH1 0x1 SWAP1 SUB SWAP1 PUSH0 MSTORE PUSH1 0x20 PUSH0 KECCAK256 ADD PUSH0 SWAP1 SWAP2 SWAP1 SWAP2 SWAP1 SWAP2 POP SSTORE DUP1 DUP1 PUSH1 0x1 ADD SWAP2 POP POP PUSH2 0x10DD JUMP JUMPDEST POP DUP2 PUSH0 DUP1 DUP4 DUP2 MSTORE PUSH1 0x20 ADD SWAP1 DUP2 MSTORE PUSH1 0x20 ADD PUSH0 KECCAK256 PUSH0 ADD SWAP1 DUP1 MLOAD SWAP1 PUSH1 0x20 ADD SWAP1 PUSH2 0x12BE SWAP3 SWAP2 SWAP1 PUSH2 0x1318 JUMP JUMPDEST POP PUSH1 0x2 PUSH0 DUP2 SLOAD DUP1 SWAP3 SWAP2 SWAP1 PUSH2 0x12D1 SWAP1 PUSH2 0x1B7A JUMP JUMPDEST SWAP2 SWAP1 POP SSTORE POP DUP1 PUSH32 0x1DFEA57C7217D8EE2EF44253419F3A05ACDF0E6DEA69F12E9E2AFA2E748E3C8C DUP4 TIMESTAMP PUSH1 0x40 MLOAD PUSH2 0x1308 SWAP3 SWAP2 SWAP1 PUSH2 0x1DFB JUMP JUMPDEST PUSH1 0x40 MLOAD DUP1 SWAP2 SUB SWAP1 LOG2 POP POP POP POP POP POP JUMP JUMPDEST DUP3 DUP1 SLOAD DUP3 DUP3 SSTORE SWAP1 PUSH0 MSTORE PUSH1 0x20 PUSH0 KECCAK256 SWAP1 DUP2 ADD SWAP3 DUP3 ISZERO PUSH2 0x138E JUMPI SWAP2 PUSH1 0x20 MUL DUP3 ADD JUMPDEST DUP3 DUP2 GT ISZERO PUSH2 0x138D JUMPI DUP3 MLOAD DUP3 PUSH0 PUSH2 0x100 EXP DUP2 SLOAD DUP2 PUSH20 0xFFFFFFFFFFFFFFFFFFFFFFFFFFFFFFFFFFFFFFFF MUL NOT AND SWAP1 DUP4 PUSH20 0xFFFFFFFFFFFFFFFFFFFFFFFFFFFFFFFFFFFFFFFF AND MUL OR SWAP1 SSTORE POP SWAP2 PUSH1 0x20 ADD SWAP2 SWAP1 PUSH1 0x1 ADD SWAP1 PUSH2 0x1336 JUMP JUMPDEST JUMPDEST POP SWAP1 POP PUSH2 0x139B SWAP2 SWAP1 PUSH2 0x139F JUMP JUMPDEST POP SWAP1 JUMP JUMPDEST JUMPDEST DUP1 DUP3 GT ISZERO PUSH2 0x13B6 JUMPI PUSH0 DUP2 PUSH0 SWAP1 SSTORE POP PUSH1 0x1 ADD PUSH2 0x13A0 JUMP JUMPDEST POP SWAP1 JUMP JUMPDEST PUSH0 DUP1 REVERT JUMPDEST PUSH0 DUP1 REVERT JUMPDEST PUSH0 DUP2 SWAP1 POP SWAP2 SWAP1 POP JUMP JUMPDEST PUSH2 0x13D4 DUP2 PUSH2 0x13C2 JUMP JUMPDEST DUP2 EQ PUSH2 0x13DE JUMPI PUSH0 DUP1 REVERT JUMPDEST POP JUMP JUMPDEST PUSH0 DUP2 CALLDATALOAD SWAP1 POP PUSH2 0x13EF DUP2 PUSH2 0x13CB JUMP JUMPDEST SWAP3 SWAP2 POP POP JUMP JUMPDEST PUSH0 PUSH1 0x20 DUP3 DUP5 SUB SLT ISZERO PUSH2 0x140A JUMPI PUSH2 0x1409 PUSH2 0x13BA JUMP JUMPDEST JUMPDEST PUSH0 PUSH2 0x1417 DUP5 DUP3 DUP6 ADD PUSH2 0x13E1 JUMP JUMPDEST SWAP2 POP POP SWAP3 SWAP2 POP POP JUMP JUMPDEST PUSH2 0x1429 DUP2 PUSH2 0x13C2 JUMP JUMPDEST DUP3 MSTORE POP POP JUMP JUMPDEST PUSH0 PUSH1 0x20 DUP3 ADD SWAP1 POP PUSH2 0x1442 PUSH0 DUP4 ADD DUP5 PUSH2 0x1420 JUMP JUMPDEST SWAP3 SWAP2 POP POP JUMP JUMPDEST PUSH0 DUP1 PUSH1 0x40 DUP4 DUP6 SUB SLT ISZERO PUSH2 0x145E JUMPI PUSH2 0x145D PUSH2 0x13BA JUMP JUMPDEST JUMPDEST PUSH0 PUSH2 0x146B DUP6 DUP3 DUP7 ADD PUSH2 0x13E1 JUMP JUMPDEST SWAP3 POP POP PUSH1 0x20 PUSH2 0x147C DUP6 DUP3 DUP7 ADD PUSH2 0x13E1 JUMP JUMPDEST SWAP2 POP POP SWAP3 POP SWAP3 SWAP1 POP JUMP JUMPDEST PUSH0 DUP2 MLOAD SWAP1 POP SWAP2 SWAP1 POP JUMP JUMPDEST PUSH0 DUP3 DUP3 MSTORE PUSH1 0x20 DUP3 ADD SWAP1 POP SWAP3 SWAP2 POP POP JUMP JUMPDEST PUSH0 DUP2 SWAP1 POP PUSH1 0x20 DUP3 ADD SWAP1 POP SWAP2 SWAP1 POP JUMP JUMPDEST PUSH2 0x14B8 DUP2 PUSH2 0x13C2 JUMP JUMPDEST DUP3 MSTORE POP POP JUMP JUMPDEST PUSH0 PUSH2 0x14C9 DUP4 DUP4 PUSH2 0x14AF JUMP JUMPDEST PUSH1 0x20 DUP4 ADD SWAP1 POP SWAP3 SWAP2 POP POP JUMP JUMPDEST PUSH0 PUSH1 0x20 DUP3 ADD SWAP1 POP SWAP2 SWAP1 POP JUMP JUMPDEST PUSH0 PUSH2 0x14EB DUP3 PUSH2 0x1486 JUMP JUMPDEST PUSH2 0x14F5 DUP2 DUP6 PUSH2 0x1490 JUMP JUMPDEST SWAP4 POP PUSH2 0x1500 DUP4 PUSH2 0x14A0 JUMP JUMPDEST DUP1 PUSH0 JUMPDEST DUP4 DUP2 LT ISZERO PUSH2 0x1530 JUMPI DUP2 MLOAD PUSH2 0x1517 DUP9 DUP3 PUSH2 0x14BE JUMP JUMPDEST SWAP8 POP PUSH2 0x1522 DUP4 PUSH2 0x14D5 JUMP JUMPDEST SWAP3 POP POP PUSH1 0x1 DUP2 ADD SWAP1 POP PUSH2 0x1503 JUMP JUMPDEST POP DUP6 SWAP4 POP POP POP POP SWAP3 SWAP2 POP POP JUMP JUMPDEST PUSH0 PUSH1 0x20 DUP3 ADD SWAP1 POP DUP2 DUP2 SUB PUSH0 DUP4 ADD MSTORE PUSH2 0x1555 DUP2 DUP5 PUSH2 0x14E1 JUMP JUMPDEST SWAP1 POP SWAP3 SWAP2 POP POP JUMP JUMPDEST PUSH0 DUP2 MLOAD SWAP1 POP SWAP2 SWAP1 POP JUMP JUMPDEST PUSH0 DUP3 DUP3 MSTORE PUSH1 0x20 DUP3 ADD SWAP1 POP SWAP3 SWAP2 POP POP JUMP JUMPDEST PUSH0 DUP2 SWAP1 POP PUSH1 0x20 DUP3 ADD SWAP1 POP SWAP2 SWAP1 POP JUMP JUMPDEST PUSH0 PUSH20 0xFFFFFFFFFFFFFFFFFFFFFFFFFFFFFFFFFFFFFFFF DUP3 AND SWAP1 POP SWAP2 SWAP1 POP JUMP JUMPDEST PUSH0 PUSH2 0x15AF DUP3 PUSH2 0x1586 JUMP JUMPDEST SWAP1 POP SWAP2 SWAP1 POP JUMP JUMPDEST PUSH2 0x15BF DUP2 PUSH2 0x15A5 JUMP JUMPDEST DUP3 MSTORE POP POP JUMP JUMPDEST PUSH0 PUSH2 0x15D0 DUP4 DUP4 PUSH2 0x15B6 JUMP JUMPDEST PUSH1 0x20 DUP4 ADD SWAP1 POP SWAP3 SWAP2 POP POP JUMP JUMPDEST PUSH0 PUSH1 0x20 DUP3 ADD SWAP1 POP SWAP2 SWAP1 POP JUMP JUMPDEST PUSH0 PUSH2 0x15F2 DUP3 PUSH2 0x155D JUMP JUMPDEST PUSH2 0x15FC DUP2 DUP6 PUSH2 0x1567 JUMP JUMPDEST SWAP4 POP PUSH2 0x1607 DUP4 PUSH2 0x1577 JUMP JUMPDEST DUP1 PUSH0 JUMPDEST DUP4 DUP2 LT ISZERO PUSH2 0x1637 JUMPI DUP2 MLOAD PUSH2 0x161E DUP9 DUP3 PUSH2 0x15C5 JUMP JUMPDEST SWAP8 POP PUSH2 0x1629 DUP4 PUSH2 0x15DC JUMP JUMPDEST SWAP3 POP POP PUSH1 0x1 DUP2 ADD SWAP1 POP PUSH2 0x160A JUMP JUMPDEST POP DUP6 SWAP4 POP POP POP POP SWAP3 SWAP2 POP POP JUMP JUMPDEST PUSH0 PUSH1 0x20 DUP3 ADD SWAP1 POP DUP2 DUP2 SUB PUSH0 DUP4 ADD MSTORE PUSH2 0x165C DUP2 DUP5 PUSH2 0x15E8 JUMP JUMPDEST SWAP1 POP SWAP3 SWAP2 POP POP JUMP JUMPDEST PUSH0 DUP1 REVERT JUMPDEST PUSH0 DUP1 REVERT JUMPDEST PUSH0 DUP1 REVERT JUMPDEST PUSH0 DUP1 DUP4 PUSH1 0x1F DUP5 ADD SLT PUSH2 0x1685 JUMPI PUSH2 0x1684 PUSH2 0x1664 JUMP JUMPDEST JUMPDEST DUP3 CALLDATALOAD SWAP1 POP PUSH8 0xFFFFFFFFFFFFFFFF DUP2 GT ISZERO PUSH2 0x16A2 JUMPI PUSH2 0x16A1 PUSH2 0x1668 JUMP JUMPDEST JUMPDEST PUSH1 0x20 DUP4 ADD SWAP2 POP DUP4 PUSH1 0x20 DUP3 MUL DUP4 ADD GT ISZERO PUSH2 0x16BE JUMPI PUSH2 0x16BD PUSH2 0x166C JUMP JUMPDEST JUMPDEST SWAP3 POP SWAP3 SWAP1 POP JUMP JUMPDEST PUSH0 DUP1 PUSH1 0x20 DUP4 DUP6 SUB SLT ISZERO PUSH2 0x16DB JUMPI PUSH2 0x16DA PUSH2 0x13BA JUMP JUMPDEST JUMPDEST PUSH0 DUP4 ADD CALLDATALOAD PUSH8 0xFFFFFFFFFFFFFFFF DUP2 GT ISZERO PUSH2 0x16F8 JUMPI PUSH2 0x16F7 PUSH2 0x13BE JUMP JUMPDEST JUMPDEST PUSH2 0x1704 DUP6 DUP3 DUP7 ADD PUSH2 0x1670 JUMP JUMPDEST SWAP3 POP SWAP3 POP POP SWAP3 POP SWAP3 SWAP1 POP JUMP JUMPDEST PUSH0 DUP3 DUP3 MSTORE PUSH1 0x20 DUP3 ADD SWAP1 POP SWAP3 SWAP2 POP POP JUMP JUMPDEST PUSH32 0x796F7520646964206E6F74206372656174652074686973207265717565737400 PUSH0 DUP3 ADD MSTORE POP JUMP JUMPDEST PUSH0 PUSH2 0x1754 PUSH1 0x1F DUP4 PUSH2 0x1710 JUMP JUMPDEST SWAP2 POP PUSH2 0x175F DUP3 PUSH2 0x1720 JUMP JUMPDEST PUSH1 0x20 DUP3 ADD SWAP1 POP SWAP2 SWAP1 POP JUMP JUMPDEST PUSH0 PUSH1 0x20 DUP3 ADD SWAP1 POP DUP2 DUP2 SUB PUSH0 DUP4 ADD MSTORE PUSH2 0x1781 DUP2 PUSH2 0x1748 JUMP JUMPDEST SWAP1 POP SWAP2 SWAP1 POP JUMP JUMPDEST PUSH32 0x746869732072657175657374206973206E6F7420617070726F76656400000000 PUSH0 DUP3 ADD MSTORE POP JUMP JUMPDEST PUSH0 PUSH2 0x17BC PUSH1 0x1C DUP4 PUSH2 0x1710 JUMP JUMPDEST SWAP2 POP PUSH2 0x17C7 DUP3 PUSH2 0x1788 JUMP JUMPDEST PUSH1 0x20 DUP3 ADD SWAP1 POP SWAP2 SWAP1 POP JUMP JUMPDEST PUSH0 PUSH1 0x20 DUP3 ADD SWAP1 POP DUP2 DUP2 SUB PUSH0 DUP4 ADD MSTORE PUSH2 0x17E9 DUP2 PUSH2 0x17B0 JUMP JUMPDEST SWAP1 POP SWAP2 SWAP1 POP JUMP JUMPDEST PUSH32 0x696E73756666696369656E742062616C616E6365000000000000000000000000 PUSH0 DUP3 ADD MSTORE POP JUMP JUMPDEST PUSH0 PUSH2 0x1824 PUSH1 0x14 DUP4 PUSH2 0x1710 JUMP JUMPDEST SWAP2 POP PUSH2 0x182F DUP3 PUSH2 0x17F0 JUMP JUMPDEST PUSH1 0x20 DUP3 ADD SWAP1 POP SWAP2 SWAP1 POP JUMP JUMPDEST PUSH0 PUSH1 0x20 DUP3 ADD SWAP1 POP DUP2 DUP2 SUB PUSH0 DUP4 ADD MSTORE PUSH2 0x1851 DUP2 PUSH2 0x1818 JUMP JUMPDEST SWAP1 POP SWAP2 SWAP1 POP JUMP JUMPDEST PUSH32 0x4E487B7100000000000000000000000000000000000000000000000000000000 PUSH0 MSTORE PUSH1 0x11 PUSH1 0x4 MSTORE PUSH1 0x24 PUSH0 REVERT JUMPDEST PUSH0 PUSH2 0x188F DUP3 PUSH2 0x13C2 JUMP JUMPDEST SWAP2 POP PUSH2 0x189A DUP4 PUSH2 0x13C2 JUMP JUMPDEST SWAP3 POP DUP3 DUP3 SUB SWAP1 POP DUP2 DUP2 GT ISZERO PUSH2 0x18B2 JUMPI PUSH2 0x18B1 PUSH2 0x1858 JUMP JUMPDEST JUMPDEST SWAP3 SWAP2 POP POP JUMP JUMPDEST PUSH0 DUP2 SWAP1 POP SWAP3 SWAP2 POP POP JUMP JUMPDEST POP JUMP JUMPDEST PUSH0 PUSH2 0x18D0 PUSH0 DUP4 PUSH2 0x18B8 JUMP JUMPDEST SWAP2 POP PUSH2 0x18DB DUP3 PUSH2 0x18C2 JUMP JUMPDEST PUSH0 DUP3 ADD SWAP1 POP SWAP2 SWAP1 POP JUMP JUMPDEST PUSH0 PUSH2 0x18EF DUP3 PUSH2 0x18C5 JUMP JUMPDEST SWAP2 POP DUP2 SWAP1 POP SWAP2 SWAP1 POP JUMP JUMPDEST PUSH32 0x4E487B7100000000000000000000000000000000000000000000000000000000 PUSH0 MSTORE PUSH1 0x32 PUSH1 0x4 MSTORE PUSH1 0x24 PUSH0 REVERT JUMPDEST PUSH32 0x796F7520617265206E6F7420616E206F776E6572206F66207468697320616363 PUSH0 DUP3 ADD MSTORE PUSH32 0x6F756E7400000000000000000000000000000000000000000000000000000000 PUSH1 0x20 DUP3 ADD MSTORE POP JUMP JUMPDEST PUSH0 PUSH2 0x1980 PUSH1 0x24 DUP4 PUSH2 0x1710 JUMP JUMPDEST SWAP2 POP PUSH2 0x198B DUP3 PUSH2 0x1926 JUMP JUMPDEST PUSH1 0x40 DUP3 ADD SWAP1 POP SWAP2 SWAP1 POP JUMP JUMPDEST PUSH0 PUSH1 0x20 DUP3 ADD SWAP1 POP DUP2 DUP2 SUB PUSH0 DUP4 ADD MSTORE PUSH2 0x19AD DUP2 PUSH2 0x1974 JUMP JUMPDEST SWAP1 POP SWAP2 SWAP1 POP JUMP JUMPDEST PUSH32 0x74686973207265717565737420697320616C726561647920617070726F766564 PUSH0 DUP3 ADD MSTORE POP JUMP JUMPDEST PUSH0 PUSH2 0x19E8 PUSH1 0x20 DUP4 PUSH2 0x1710 JUMP JUMPDEST SWAP2 POP PUSH2 0x19F3 DUP3 PUSH2 0x19B4 JUMP JUMPDEST PUSH1 0x20 DUP3 ADD SWAP1 POP SWAP2 SWAP1 POP JUMP JUMPDEST PUSH0 PUSH1 0x20 DUP3 ADD SWAP1 POP DUP2 DUP2 SUB PUSH0 DUP4 ADD MSTORE PUSH2 0x1A15 DUP2 PUSH2 0x19DC JUMP JUMPDEST SWAP1 POP SWAP2 SWAP1 POP JUMP JUMPDEST PUSH32 0x796F752063616E6E6F7420617070726F76652074686973207265717565737400 PUSH0 DUP3 ADD MSTORE POP JUMP JUMPDEST PUSH0 PUSH2 0x1A50 PUSH1 0x1F DUP4 PUSH2 0x1710 JUMP JUMPDEST SWAP2 POP PUSH2 0x1A5B DUP3 PUSH2 0x1A1C JUMP JUMPDEST PUSH1 0x20 DUP3 ADD SWAP1 POP SWAP2 SWAP1 POP JUMP JUMPDEST PUSH0 PUSH1 0x20 DUP3 ADD SWAP1 POP DUP2 DUP2 SUB PUSH0 DUP4 ADD MSTORE PUSH2 0x1A7D DUP2 PUSH2 0x1A44 JUMP JUMPDEST SWAP1 POP SWAP2 SWAP1 POP JUMP JUMPDEST PUSH32 0x74686973207265717565737420646F6573206E6F742065786973740000000000 PUSH0 DUP3 ADD MSTORE POP JUMP JUMPDEST PUSH0 PUSH2 0x1AB8 PUSH1 0x1B DUP4 PUSH2 0x1710 JUMP JUMPDEST SWAP2 POP PUSH2 0x1AC3 DUP3 PUSH2 0x1A84 JUMP JUMPDEST PUSH1 0x20 DUP3 ADD SWAP1 POP SWAP2 SWAP1 POP JUMP JUMPDEST PUSH0 PUSH1 0x20 DUP3 ADD SWAP1 POP DUP2 DUP2 SUB PUSH0 DUP4 ADD MSTORE PUSH2 0x1AE5 DUP2 PUSH2 0x1AAC JUMP JUMPDEST SWAP1 POP SWAP2 SWAP1 POP JUMP JUMPDEST PUSH32 0x796F75206861766520616C726561647920617070726F76656420746869732072 PUSH0 DUP3 ADD MSTORE PUSH32 0x6571756573740000000000000000000000000000000000000000000000000000 PUSH1 0x20 DUP3 ADD MSTORE POP JUMP JUMPDEST PUSH0 PUSH2 0x1B46 PUSH1 0x26 DUP4 PUSH2 0x1710 JUMP JUMPDEST SWAP2 POP PUSH2 0x1B51 DUP3 PUSH2 0x1AEC JUMP JUMPDEST PUSH1 0x40 DUP3 ADD SWAP1 POP SWAP2 SWAP1 POP JUMP JUMPDEST PUSH0 PUSH1 0x20 DUP3 ADD SWAP1 POP DUP2 DUP2 SUB PUSH0 DUP4 ADD MSTORE PUSH2 0x1B73 DUP2 PUSH2 0x1B3A JUMP JUMPDEST SWAP1 POP SWAP2 SWAP1 POP JUMP JUMPDEST PUSH0 PUSH2 0x1B84 DUP3 PUSH2 0x13C2 JUMP JUMPDEST SWAP2 POP PUSH32 0xFFFFFFFFFFFFFFFFFFFFFFFFFFFFFFFFFFFFFFFFFFFFFFFFFFFFFFFFFFFFFFFF DUP3 SUB PUSH2 0x1BB6 JUMPI PUSH2 0x1BB5 PUSH2 0x1858 JUMP JUMPDEST JUMPDEST PUSH1 0x1 DUP3 ADD SWAP1 POP SWAP2 SWAP1 POP JUMP JUMPDEST PUSH0 PUSH1 0x40 DUP3 ADD SWAP1 POP PUSH2 0x1BD4 PUSH0 DUP4 ADD DUP6 PUSH2 0x1420 JUMP JUMPDEST PUSH2 0x1BE1 PUSH1 0x20 DUP4 ADD DUP5 PUSH2 0x1420 JUMP JUMPDEST SWAP4 SWAP3 POP POP POP JUMP JUMPDEST PUSH0 PUSH2 0x1BF2 DUP3 PUSH2 0x13C2 JUMP JUMPDEST SWAP2 POP PUSH2 0x1BFD DUP4 PUSH2 0x13C2 JUMP JUMPDEST SWAP3 POP DUP3 DUP3 ADD SWAP1 POP DUP1 DUP3 GT ISZERO PUSH2 0x1C15 JUMPI PUSH2 0x1C14 PUSH2 0x1858 JUMP JUMPDEST JUMPDEST SWAP3 SWAP2 POP POP JUMP JUMPDEST PUSH32 0x6D6178696D756D206F662034206F776E65727320706572206163636F756E7400 PUSH0 DUP3 ADD MSTORE POP JUMP JUMPDEST PUSH0 PUSH2 0x1C4F PUSH1 0x1F DUP4 PUSH2 0x1710 JUMP JUMPDEST SWAP2 POP PUSH2 0x1C5A DUP3 PUSH2 0x1C1B JUMP JUMPDEST PUSH1 0x20 DUP3 ADD SWAP1 POP SWAP2 SWAP1 POP JUMP JUMPDEST PUSH0 PUSH1 0x20 DUP3 ADD SWAP1 POP DUP2 DUP2 SUB PUSH0 DUP4 ADD MSTORE PUSH2 0x1C7C DUP2 PUSH2 0x1C43 JUMP JUMPDEST SWAP1 POP SWAP2 SWAP1 POP JUMP JUMPDEST PUSH2 0x1C8C DUP2 PUSH2 0x15A5 JUMP JUMPDEST DUP2 EQ PUSH2 0x1C96 JUMPI PUSH0 DUP1 REVERT JUMPDEST POP JUMP JUMPDEST PUSH0 DUP2 CALLDATALOAD SWAP1 POP PUSH2 0x1CA7 DUP2 PUSH2 0x1C83 JUMP JUMPDEST SWAP3 SWAP2 POP POP JUMP JUMPDEST PUSH0 PUSH1 0x20 DUP3 DUP5 SUB SLT ISZERO PUSH2 0x1CC2 JUMPI PUSH2 0x1CC1 PUSH2 0x13BA JUMP JUMPDEST JUMPDEST PUSH0 PUSH2 0x1CCF DUP5 DUP3 DUP6 ADD PUSH2 0x1C99 JUMP JUMPDEST SWAP2 POP POP SWAP3 SWAP2 POP POP JUMP JUMPDEST PUSH32 0x6E6F206475706C6963617465206F776E65727300000000000000000000000000 PUSH0 DUP3 ADD MSTORE POP JUMP JUMPDEST PUSH0 PUSH2 0x1D0C PUSH1 0x13 DUP4 PUSH2 0x1710 JUMP JUMPDEST SWAP2 POP PUSH2 0x1D17 DUP3 PUSH2 0x1CD8 JUMP JUMPDEST PUSH1 0x20 DUP3 ADD SWAP1 POP SWAP2 SWAP1 POP JUMP JUMPDEST PUSH0 PUSH1 0x20 DUP3 ADD SWAP1 POP DUP2 DUP2 SUB PUSH0 DUP4 ADD MSTORE PUSH2 0x1D39 DUP2 PUSH2 0x1D00 JUMP JUMPDEST SWAP1 POP SWAP2 SWAP1 POP JUMP JUMPDEST PUSH32 0x4E487B7100000000000000000000000000000000000000000000000000000000 PUSH0 MSTORE PUSH1 0x41 PUSH1 0x4 MSTORE PUSH1 0x24 PUSH0 REVERT JUMPDEST PUSH32 0x6561636820757365722063616E20686176652061206D6178206F662033206163 PUSH0 DUP3 ADD MSTORE PUSH32 0x636F756E74730000000000000000000000000000000000000000000000000000 PUSH1 0x20 DUP3 ADD MSTORE POP JUMP JUMPDEST PUSH0 PUSH2 0x1DC7 PUSH1 0x26 DUP4 PUSH2 0x1710 JUMP JUMPDEST SWAP2 POP PUSH2 0x1DD2 DUP3 PUSH2 0x1D6D JUMP JUMPDEST PUSH1 0x40 DUP3 ADD SWAP1 POP SWAP2 SWAP1 POP JUMP JUMPDEST PUSH0 PUSH1 0x20 DUP3 ADD SWAP1 POP DUP2 DUP2 SUB PUSH0 DUP4 ADD MSTORE PUSH2 0x1DF4 DUP2 PUSH2 0x1DBB JUMP JUMPDEST SWAP1 POP SWAP2 SWAP1 POP JUMP JUMPDEST PUSH0 PUSH1 0x40 DUP3 ADD SWAP1 POP DUP2 DUP2 SUB PUSH0 DUP4 ADD MSTORE PUSH2 0x1E13 DUP2 DUP6 PUSH2 0x15E8 JUMP JUMPDEST SWAP1 POP PUSH2 0x1E22 PUSH1 0x20 DUP4 ADD DUP5 PUSH2 0x1420 JUMP JUMPDEST SWAP4 SWAP3 POP POP POP JUMP INVALID LOG2 PUSH5 0x6970667358 0x22 SLT KECCAK256 0xB2 0xED 0x1E BASEFEE PUSH15 0xD5B7CE02B9E9DC465096E6309C0C3E LT SWAP1 0x28 CALLCODE PUSH9 0xA0758ABBDBEE86473 PUSH16 0x6C634300081A00330000000000000000 "
				},
				"gasEstimates": {
					"creation": {
						"codeDepositCost": "1555000",
						"executionCost": "1622",
						"totalCost": "1556622"
					},
					"external": {
						"approveWithdrawl(uint256,uint256)": "infinite",
						"createAccount(address[])": "infinite",
						"deposit(uint256)": "infinite",
						"getAccounts()": "infinite",
						"getApprovals(uint256,uint256)": "infinite",
						"getBalance(uint256)": "infinite",
						"getOwners(uint256)": "infinite",
						"requestWithdrawl(uint256,uint256)": "infinite",
						"withdraw(uint256,uint256)": "infinite"
					}
				},
				"methodIdentifiers": {
					"approveWithdrawl(uint256,uint256)": "785e5531",
					"createAccount(address[])": "eff63433",
					"deposit(uint256)": "b6b55f25",
					"getAccounts()": "8a48ac03",
					"getApprovals(uint256,uint256)": "867275a5",
					"getBalance(uint256)": "1e010439",
					"getOwners(uint256)": "ee4525d5",
					"requestWithdrawl(uint256,uint256)": "a52a6f9a",
					"withdraw(uint256,uint256)": "441a3e70"
				}
			},
			"storageLayout": {
				"storage": [
					{
						"astId": 67,
						"contract": "BankAccount.sol:BankAccount",
						"label": "accounts",
						"offset": 0,
						"slot": "0",
						"type": "t_mapping(t_uint256,t_struct(Account)62_storage)"
					},
					{
						"astId": 72,
						"contract": "BankAccount.sol:BankAccount",
						"label": "userAccounts",
						"offset": 0,
						"slot": "1",
						"type": "t_mapping(t_address,t_array(t_uint256)dyn_storage)"
					},
					{
						"astId": 74,
						"contract": "BankAccount.sol:BankAccount",
						"label": "nextAccountId",
						"offset": 0,
						"slot": "2",
						"type": "t_uint256"
					},
					{
						"astId": 76,
						"contract": "BankAccount.sol:BankAccount",
						"label": "nextWithdrawId",
						"offset": 0,
						"slot": "3",
						"type": "t_uint256"
					}
				],
				"types": {
					"t_address": {
						"encoding": "inplace",
						"label": "address",
						"numberOfBytes": "20"
					},
					"t_array(t_address)dyn_storage": {
						"base": "t_address",
						"encoding": "dynamic_array",
						"label": "address[]",
						"numberOfBytes": "32"
					},
					"t_array(t_uint256)dyn_storage": {
						"base": "t_uint256",
						"encoding": "dynamic_array",
						"label": "uint256[]",
						"numberOfBytes": "32"
					},
					"t_bool": {
						"encoding": "inplace",
						"label": "bool",
						"numberOfBytes": "1"
					},
					"t_mapping(t_address,t_array(t_uint256)dyn_storage)": {
						"encoding": "mapping",
						"key": "t_address",
						"label": "mapping(address => uint256[])",
						"numberOfBytes": "32",
						"value": "t_array(t_uint256)dyn_storage"
					},
					"t_mapping(t_address,t_bool)": {
						"encoding": "mapping",
						"key": "t_address",
						"label": "mapping(address => bool)",
						"numberOfBytes": "32",
						"value": "t_bool"
					},
					"t_mapping(t_uint256,t_struct(Account)62_storage)": {
						"encoding": "mapping",
						"key": "t_uint256",
						"label": "mapping(uint256 => struct BankAccount.Account)",
						"numberOfBytes": "32",
						"value": "t_struct(Account)62_storage"
					},
					"t_mapping(t_uint256,t_struct(WithdrawRequest)51_storage)": {
						"encoding": "mapping",
						"key": "t_uint256",
						"label": "mapping(uint256 => struct BankAccount.WithdrawRequest)",
						"numberOfBytes": "32",
						"value": "t_struct(WithdrawRequest)51_storage"
					},
					"t_struct(Account)62_storage": {
						"encoding": "inplace",
						"label": "struct BankAccount.Account",
						"members": [
							{
								"astId": 54,
								"contract": "BankAccount.sol:BankAccount",
								"label": "owners",
								"offset": 0,
								"slot": "0",
								"type": "t_array(t_address)dyn_storage"
							},
							{
								"astId": 56,
								"contract": "BankAccount.sol:BankAccount",
								"label": "balance",
								"offset": 0,
								"slot": "1",
								"type": "t_uint256"
							},
							{
								"astId": 61,
								"contract": "BankAccount.sol:BankAccount",
								"label": "withdrawRequests",
								"offset": 0,
								"slot": "2",
								"type": "t_mapping(t_uint256,t_struct(WithdrawRequest)51_storage)"
							}
						],
						"numberOfBytes": "96"
					},
					"t_struct(WithdrawRequest)51_storage": {
						"encoding": "inplace",
						"label": "struct BankAccount.WithdrawRequest",
						"members": [
							{
								"astId": 40,
								"contract": "BankAccount.sol:BankAccount",
								"label": "user",
								"offset": 0,
								"slot": "0",
								"type": "t_address"
							},
							{
								"astId": 42,
								"contract": "BankAccount.sol:BankAccount",
								"label": "amount",
								"offset": 0,
								"slot": "1",
								"type": "t_uint256"
							},
							{
								"astId": 44,
								"contract": "BankAccount.sol:BankAccount",
								"label": "approvals",
								"offset": 0,
								"slot": "2",
								"type": "t_uint256"
							},
							{
								"astId": 48,
								"contract": "BankAccount.sol:BankAccount",
								"label": "ownersApproved",
								"offset": 0,
								"slot": "3",
								"type": "t_mapping(t_address,t_bool)"
							},
							{
								"astId": 50,
								"contract": "BankAccount.sol:BankAccount",
								"label": "approved",
								"offset": 0,
								"slot": "4",
								"type": "t_bool"
							}
						],
						"numberOfBytes": "160"
					},
					"t_uint256": {
						"encoding": "inplace",
						"label": "uint256",
						"numberOfBytes": "32"
					}
				}
			},
			"userdoc": {
				"kind": "user",
				"methods": {},
				"version": 1
			}
		}
	}
}